Component: ARM Compiler 5.06 update 6 (build 750) Tool: armlink [4d35ed]

==============================================================================

Section Cross References

    main.o(i.CPU_CACHE_Enable) refers to main.o(i.SCB_EnableICache) for SCB_EnableICache
    main.o(i.CPU_CACHE_Enable) refers to main.o(i.SCB_EnableDCache) for SCB_EnableDCache
    main.o(i.HAL_GetTick) refers to rtx_kernel.o(i.osKernelGetState) for osKernelGetState
    main.o(i.HAL_GetTick) refers to rtx_kernel.o(i.osKernelGetTickCount) for osKernelGetTickCount
    main.o(i.HAL_GetTick) refers to system_stm32f7xx.o(.data) for SystemCoreClock
    main.o(i.HAL_GetTick) refers to main.o(.data) for ticks
    main.o(i.SystemClock_Config) refers to stm32f7xx_hal_rcc.o(i.HAL_RCC_OscConfig) for HAL_RCC_OscConfig
    main.o(i.SystemClock_Config) refers to main.o(i.Error_Handler) for Error_Handler
    main.o(i.SystemClock_Config) refers to stm32f7xx_hal_pwr_ex.o(i.HAL_PWREx_EnableOverDrive) for HAL_PWREx_EnableOverDrive
    main.o(i.SystemClock_Config) refers to stm32f7xx_hal_rcc.o(i.HAL_RCC_ClockConfig) for HAL_RCC_ClockConfig
    main.o(i.main) refers to main.o(i.CPU_CACHE_Enable) for CPU_CACHE_Enable
    main.o(i.main) refers to stm32f7xx_hal.o(i.HAL_Init) for HAL_Init
    main.o(i.main) refers to main.o(i.SystemClock_Config) for SystemClock_Config
    main.o(i.main) refers to system_stm32f7xx.o(i.SystemCoreClockUpdate) for SystemCoreClockUpdate
    main.o(i.main) refers to rtx_kernel.o(i.osKernelInitialize) for osKernelInitialize
    main.o(i.main) refers to rtx_thread.o(i.osThreadNew) for osThreadNew
    main.o(i.main) refers to rtx_kernel.o(i.osKernelStart) for osKernelStart
    main.o(i.main) refers to rtx_delay.o(i.osDelay) for osDelay
==============================================================================

Removing Unused input sections from the image.

    Removing main.o(.rev16_text), (4 bytes).
    Removing main.o(.revsh_text), (4 bytes).
    Removing main.o(.rrx_text), (6 bytes).
    Removing blinky.o(.rev16_text), (4 bytes).
    Removing blinky.o(.revsh_text), (4 bytes).
    Removing blinky.o(.rrx_text), (6 bytes).
    Removing nohau_demo.o(i.BitPrint), (172 bytes).
    Removing nohau_demo.o(i.SetupSinewave), (88 bytes).
    Removing nohau_demo.o(i.StructInit), (1008 bytes).
    Removing nohau_demo.o(.constdata), (160 bytes).
    Removing vsprintf.o(i.sprintf), (34 bytes).
    Removing adc_756g_eval.o(.rev16_text), (4 bytes).
    Removing adc_756g_eval.o(.revsh_text), (4 bytes).
    Removing adc_756g_eval.o(.rrx_text), (6 bytes).
    Removing adc_756g_eval.o(i.ADC_GetResolution), (4 bytes).
    Removing adc_756g_eval.o(i.ADC_Uninitialize), (36 bytes).
    Removing buttons_756g_eval.o(.rev16_text), (4 bytes).
    Removing buttons_756g_eval.o(.revsh_text), (4 bytes).
==============================================================================

Image Symbol Table

    Local Symbols

    Symbol Name                              Value     Ov Type        Size  Object(Section)

    ../clib/angel/boardlib.s                 0x00000000   Number         0  boardinit3.o ABSOLUTE
    ../clib/angel/boardlib.s                 0x00000000   Number         0  boardshut.o ABSOLUTE
    ../clib/angel/boardlib.s                 0x00000000   Number         0  boardinit1.o ABSOLUTE
    ../clib/angel/dczerorl2.s                0x00000000   Number         0  __dczerorl2.o ABSOLUTE
    ../clib/angel/handlers.s                 0x00000000   Number         0  __scatter_zi.o ABSOLUTE
    ../clib/angel/kernel.s                   0x00000000   Number         0  rtexit2.o ABSOLUTE
    ../clib/angel/kernel.s                   0x00000000   Number         0  rtexit.o ABSOLUTE
    ../clib/angel/kernel.s                   0x00000000   Number         0  __rtentry.o ABSOLUTE
    ../clib/angel/kernel.s                   0x00000000   Number         0  __rtentry2.o ABSOLUTE
    ../clib/angel/kernel.s                   0x00000000   Number         0  __rtentry4.o ABSOLUTE
    ../clib/angel/rt.s                       0x00000000   Number         0  rt_heap_descriptor_twolibspace.o ABSOLUTE
    ../clib/angel/rt.s                       0x00000000   Number         0  aeabi_ldiv0.o ABSOLUTE
    ../clib/angel/rt.s                       0x00000000   Number         0  rt_errno_addr.o ABSOLUTE
    ../clib/angel/rt.s                       0x00000000   Number         0  rt_heap_descriptor_intlibspace.o ABSOLUTE
    ../clib/angel/rt.s                       0x00000000   Number         0  rt_raise.o ABSOLUTE
    ../clib/angel/rt.s                       0x00000000   Number         0  aeabi_ldiv0_sigfpe.o ABSOLUTE
    ../clib/angel/rt.s                       0x00000000   Number         0  rt_div0.o ABSOLUTE
    ../clib/angel/rt.s                       0x00000000   Number         0  rt_errno_addr_intlibspace.o ABSOLUTE
    ../clib/angel/rt.s                       0x00000000   Number         0  rt_heap_descriptor.o ABSOLUTE
    ../clib/angel/rt.s                       0x00000000   Number         0  rt_errno_addr_twolibspace.o ABSOLUTE
    ../clib/angel/scatter.s                  0x00000000   Number         0  __scatter.o ABSOLUTE
    ../clib/angel/startup.s                  0x00000000   Number         0  __main.o ABSOLUTE
    ../clib/angel/sys.s                      0x00000000   Number         0  use_no_semi.o ABSOLUTE
    ../clib/angel/sys.s                      0x00000000   Number         0  sys_stackheap_outer.o ABSOLUTE
    ../clib/angel/sys.s                      0x00000000   Number         0  libspace.o ABSOLUTE
    ../clib/angel/sys.s                      0x00000000   Number         0  indicate_semi.o ABSOLUTE
    ../clib/angel/sysapp.c                   0x00000000   Number         0  sys_io.o ABSOLUTE
    ../clib/angel/sysapp.c                   0x00000000   Number         0  sys_command.o ABSOLUTE
    ../clib/angel/sysapp.c                   0x00000000   Number         0  sys_wrch.o ABSOLUTE
    ../clib/angel/sysapp.c                   0x00000000   Number         0  sys_exit.o ABSOLUTE
    ../clib/armsys.c                         0x00000000   Number         0  argv_veneer.o ABSOLUTE
    ../clib/armsys.c                         0x00000000   Number         0  argv_veneer.o ABSOLUTE
    ../clib/armsys.c                         0x00000000   Number         0  _get_argv.o ABSOLUTE
    ../clib/armsys.c                         0x00000000   Number         0  no_argv.o ABSOLUTE
    ../clib/armsys.c                         0x00000000   Number         0  _get_argv_nomalloc.o ABSOLUTE
    ../clib/assert.c                         0x00000000   Number         0  assert_stdio.o ABSOLUTE
    ../clib/fenv.c                           0x00000000   Number         0  _rserrno.o ABSOLUTE
    ../clib/heap1.c                          0x00000000   Number         0  h1_init_mt.o ABSOLUTE
    ../clib/heap1.c                          0x00000000   Number         0  h1_init.o ABSOLUTE
    ../clib/heap1.c                          0x00000000   Number         0  h1_alloc.o ABSOLUTE
    ../clib/heap1.c                          0x00000000   Number         0  h1_free.o ABSOLUTE
    ../clib/heap1.c                          0x00000000   Number         0  h1_alloc_mt.o ABSOLUTE
    ../clib/heap1.c                          0x00000000   Number         0  h1_final_mt.o ABSOLUTE
    ../clib/heap1.c                          0x00000000   Number         0  h1_final.o ABSOLUTE
    ../clib/heap1.c                          0x00000000   Number         0  h1_free_mt.o ABSOLUTE
    ../clib/heap1.c                          0x00000000   Number         0  h1_extend_mt.o ABSOLUTE
    ../clib/heap1.c                          0x00000000   Number         0  h1_extend.o ABSOLUTE
    ../clib/heap2.c                          0x00000000   Number         0  heap2.o ABSOLUTE
    ../clib/heap2.c                          0x00000000   Number         0  fdtree.o ABSOLUTE
    ../clib/heap2.c                          0x00000000   Number         0  heap2mt.o ABSOLUTE
    ../clib/heapalloc.c                      0x00000000   Number         0  maybetermalloc2.o ABSOLUTE
    ../clib/heapalloc.c                      0x00000000   Number         0  maybetermalloc2.o ABSOLUTE
    ../clib/heapalloc.c                      0x00000000   Number         0  heapstubs.o ABSOLUTE
    ../clib/heapalloc.c                      0x00000000   Number         0  init_alloc.o ABSOLUTE
    ../clib/heapalloc.c                      0x00000000   Number         0  hguard.o ABSOLUTE
    ../clib/heapalloc.c                      0x00000000   Number         0  term_alloc.o ABSOLUTE
    ../clib/heapalloc.c                      0x00000000   Number         0  malloc.o ABSOLUTE
    ../clib/heapalloc.c                      0x00000000   Number         0  free.o ABSOLUTE
    ../clib/heapalloc.c                      0x00000000   Number         0  calloc.o ABSOLUTE
    ../clib/heapalloc.c                      0x00000000   Number         0  hrguard.o ABSOLUTE
    ../clib/heapalloc.c                      0x00000000   Number         0  maybetermalloc1.o ABSOLUTE
    ../clib/heapalloc.c                      0x00000000   Number         0  maybetermalloc1.o ABSOLUTE
    ../clib/heapaux.c                        0x00000000   Number         0  heapauxi.o ABSOLUTE
    ../clib/heapaux.c                        0x00000000   Number         0  heapauxa.o ABSOLUTE
    ../clib/libinit.s                        0x00000000   Number         0  libshutdown.o ABSOLUTE
    ../clib/libinit.s                        0x00000000   Number         0  libshutdown2.o ABSOLUTE
    ../clib/libinit.s                        0x00000000   Number         0  libinit.o ABSOLUTE
    ../clib/libinit.s                        0x00000000   Number         0  libinit2.o ABSOLUTE
    ../clib/longlong.s                       0x00000000   Number         0  lludivv7m.o ABSOLUTE
    ../clib/memcpset.s                       0x00000000   Number         0  rt_memcpy_v6.o ABSOLUTE
    ../clib/memcpset.s                       0x00000000   Number         0  rt_memcpy_w.o ABSOLUTE
    ../clib/memcpset.s                       0x00000000   Number         0  rt_memclr.o ABSOLUTE
    ../clib/memcpset.s                       0x00000000   Number         0  rt_memclr_w.o ABSOLUTE
    ../clib/printf.c                         0x00000000   Number         0  __printf_nopercent.o ABSOLUTE
    ../clib/printf.c                         0x00000000   Number         0  _printf_char_file_locked.o ABSOLUTE
    ../clib/printf.c                         0x00000000   Number         0  __printf_flags_wp.o ABSOLUTE
    ../clib/printf.c                         0x00000000   Number         0  __printf.o ABSOLUTE
    ../clib/printf.c                         0x00000000   Number         0  _printf_dec.o ABSOLUTE
    ../clib/printf.c                         0x00000000   Number         0  __printf_flags.o ABSOLUTE
    ../clib/printf.c                         0x00000000   Number         0  __printf_ss.o ABSOLUTE
    ../clib/printf.c                         0x00000000   Number         0  __printf_flags_ss_wp.o ABSOLUTE
    ../clib/printf.c                         0x00000000   Number         0  __2printf.o ABSOLUTE
    ../clib/printf.c                         0x00000000   Number         0  __printf_flags_ss.o ABSOLUTE
    ../clib/printf.c                         0x00000000   Number         0  _printf_char_file.o ABSOLUTE
    ../clib/printf.c                         0x00000000   Number         0  _printf_char_common.o ABSOLUTE
    ../clib/printf.c                         0x00000000   Number         0  noretval__2printf.o ABSOLUTE
    ../clib/printf.c                         0x00000000   Number         0  __printf_wp.o ABSOLUTE
    ../clib/printf.c                         0x00000000   Number         0  _printf_intcommon.o ABSOLUTE
    ../clib/printf.c                         0x00000000   Number         0  __printf_ss_wp.o ABSOLUTE
    ../clib/printf_percent.s                 0x00000000   Number         0  _printf_u.o ABSOLUTE
    ../clib/printf_percent.s                 0x00000000   Number         0  _printf_percent.o ABSOLUTE
    ../clib/printf_percent.s                 0x00000000   Number         0  _printf_percent_end.o ABSOLUTE
    ../clib/signal.c                         0x00000000   Number         0  defsig_rtmem_outer.o ABSOLUTE
    ../clib/signal.c                         0x00000000   Number         0  defsig_rtmem_inner.o ABSOLUTE
    ../clib/signal.c                         0x00000000   Number         0  defsig_rtred_inner.o ABSOLUTE
    ../clib/signal.c                         0x00000000   Number         0  defsig_fpe_inner.o ABSOLUTE
    ../clib/signal.c                         0x00000000   Number         0  defsig_general.o ABSOLUTE
    ../clib/signal.c                         0x00000000   Number         0  defsig_rtred_formal.o ABSOLUTE
    ../clib/signal.c                         0x00000000   Number         0  defsig_rtred_outer.o ABSOLUTE
    ../clib/signal.c                         0x00000000   Number         0  defsig_fpe_formal.o ABSOLUTE
    ../clib/signal.c                         0x00000000   Number         0  defsig_other.o ABSOLUTE
    ../clib/signal.c                         0x00000000   Number         0  defsig_segv_inner.o ABSOLUTE
    ../clib/signal.c                         0x00000000   Number         0  defsig_fpe_outer.o ABSOLUTE
    ../clib/signal.c                         0x00000000   Number         0  defsig_exit.o ABSOLUTE
    ../clib/signal.c                         0x00000000   Number         0  defsig_cppl_inner.o ABSOLUTE
    ../clib/signal.c                         0x00000000   Number         0  defsig_pvfn_inner.o ABSOLUTE
    ../clib/signal.c                         0x00000000   Number         0  defsig_stak_inner.o ABSOLUTE
    ../clib/signal.c                         0x00000000   Number         0  defsig_abrt_inner.o ABSOLUTE
    ../clib/signal.c                         0x00000000   Number         0  __raise.o ABSOLUTE
    ../clib/signal.c                         0x00000000   Number         0  defsig_rtmem_formal.o ABSOLUTE
    ../clib/signal.s                         0x00000000   Number         0  defsig.o ABSOLUTE
    ../clib/stdio.c                          0x00000000   Number         0  ftell.o ABSOLUTE
    ../clib/stdio.c                          0x00000000   Number         0  fclose.o ABSOLUTE
    ../clib/stdio.c                          0x00000000   Number         0  fwritefast_locked.o ABSOLUTE
    ../clib/stdio.c                          0x00000000   Number         0  fputs.o ABSOLUTE
    ../clib/stdio.c                          0x00000000   Number         0  fwritefast.o ABSOLUTE
    ../clib/stdio.c                          0x00000000   Number         0  initio_locked.o ABSOLUTE
    ../clib/stdio.c                          0x00000000   Number         0  stdio.o ABSOLUTE
    ../clib/stdio.c                          0x00000000   Number         0  fseek.o ABSOLUTE
    ../clib/stdio.c                          0x00000000   Number         0  fflush.o ABSOLUTE
    ../clib/stdio.c                          0x00000000   Number         0  ferror_locked.o ABSOLUTE
    ../clib/stdio.c                          0x00000000   Number         0  fflush_locked.o ABSOLUTE
    ../clib/stdio.c                          0x00000000   Number         0  fputs_locked.o ABSOLUTE
    ../clib/stdio.c                          0x00000000   Number         0  fopen.o ABSOLUTE
    ../clib/stdio.c                          0x00000000   Number         0  initio.o ABSOLUTE
    ../clib/stdio.c                          0x00000000   Number         0  fputc.o ABSOLUTE
    ../clib/stdio.c                          0x00000000   Number         0  ferror.o ABSOLUTE
    ../clib/stdio.c                          0x00000000   Number         0  fopen_locked.o ABSOLUTE
    ../clib/stdio.c                          0x00000000   Number         0  stdio_streams.o ABSOLUTE
    ../clib/stdio.c                          0x00000000   Number         0  fputc_locked.o ABSOLUTE
    ../clib/stdio.c                          0x00000000   Number         0  flsbuf.o ABSOLUTE
    ../clib/stdio.c                          0x00000000   Number         0  setvbuf.o ABSOLUTE
    ../clib/stdio.c                          0x00000000   Number         0  streamlock.o ABSOLUTE
    ../clib/stdio.c                          0x00000000   Number         0  setvbuf_locked.o ABSOLUTE
    ../clib/stdlib.c                         0x00000000   Number         0  rand.o ABSOLUTE
    ../clib/stdlib.c                         0x00000000   Number         0  rand.o ABSOLUTE
    ../clib/stdlib.c                         0x00000000   Number         0  exit.o ABSOLUTE
    ../clib/string.c                         0x00000000   Number         0  strlen.o ABSOLUTE
    ../clib/wchar.c                          0x00000000   Number         0  flsbuf_fwide.o ABSOLUTE
    ../fplib/basic.s                         0x00000000   Number         0  basic.o ABSOLUTE
    ../fplib/d2f.s                           0x00000000   Number         0  d2f.o ABSOLUTE
    ../fplib/daddsub.s                       0x00000000   Number         0  daddsub_clz.o ABSOLUTE
    ../fplib/dcmpi.s                         0x00000000   Number         0  dcmpi.o ABSOLUTE
    ../fplib/ddiv.s                          0x00000000   Number         0  ddiv.o ABSOLUTE
    ../fplib/dfix.s                          0x00000000   Number         0  dfix.o ABSOLUTE
    ../fplib/dflt.s                          0x00000000   Number         0  dflt_clz.o ABSOLUTE
    ../fplib/dleqf.s                         0x00000000   Number         0  dleqf.o ABSOLUTE
    ../fplib/dmul.s                          0x00000000   Number         0  dmul.o ABSOLUTE
    ../fplib/dnaninf.s                       0x00000000   Number         0  dnaninf.o ABSOLUTE
    ../fplib/dretinf.s                       0x00000000   Number         0  dretinf.o ABSOLUTE
    ../fplib/drleqf.s                        0x00000000   Number         0  drleqf.o ABSOLUTE
    ../fplib/f2d.s                           0x00000000   Number         0  f2d.o ABSOLUTE
    ../fplib/fnaninf.s                       0x00000000   Number         0  fnaninf.o ABSOLUTE
    ../fplib/fpinit.s                        0x00000000   Number         0  fpinit.o ABSOLUTE
    ../fplib/fretinf.s                       0x00000000   Number         0  fretinf.o ABSOLUTE
    ../fplib/usenofp.s                       0x00000000   Number         0  usenofp.o ABSOLUTE
    ../mathlib/atan.c                        0x00000000   Number         0  atan.o ABSOLUTE
    ../mathlib/atan.c                        0x00000000   Number         0  atan_x.o ABSOLUTE
    ../mathlib/cos.c                         0x00000000   Number         0  cos.o ABSOLUTE
    ../mathlib/cos.c                         0x00000000   Number         0  cos_x.o ABSOLUTE
    ../mathlib/cos_i.c                       0x00000000   Number         0  cos_i.o ABSOLUTE
    ../mathlib/dunder.c                      0x00000000   Number         0  dunder.o ABSOLUTE
    ../mathlib/fabs.c                        0x00000000   Number         0  fabs.o ABSOLUTE
    ../mathlib/fpclassify.c                  0x00000000   Number         0  fpclassify.o ABSOLUTE
    ../mathlib/poly.c                        0x00000000   Number         0  poly.o ABSOLUTE
    ../mathlib/rred.c                        0x00000000   Number         0  rred.o ABSOLUTE
    ../mathlib/sin.c                         0x00000000   Number         0  sin_x.o ABSOLUTE
    ../mathlib/sin.c                         0x00000000   Number         0  sin.o ABSOLUTE
    ../mathlib/sin_i.c                       0x00000000   Number         0  sin_i_x.o ABSOLUTE
    ../mathlib/sin_i.c                       0x00000000   Number         0  sin_i.o ABSOLUTE
    ../mathlib/tan.c                         0x00000000   Number         0  tan.o ABSOLUTE
    ../mathlib/tan.c                         0x00000000   Number         0  tan_x.o ABSOLUTE
    ../mathlib/tan_i.c                       0x00000000   Number         0  tan_i_x.o ABSOLUTE
    ../mathlib/tan_i.c                       0x00000000   Number         0  tan_i.o ABSOLUTE
    Blinky.c                                 0x00000000   Number         0  blinky.o ABSOLUTE
    Blinky.c                                 0x00000000   Number         0  blinky.o ABSOLUTE
    C:\Keil_v5\ARM\PACK\ARM\CMSIS\5.4.0\CMSIS\RTOS2\RTX\Source\ARM\irq_cm4f.s 0x00000000   Number         0  irq_cm4f.o ABSOLUTE
    C:\Keil_v5\ARM\PACK\ARM\CMSIS\5.4.0\CMSIS\RTOS2\RTX\Source\rtx_delay.c 0x00000000   Number         0  rtx_delay.o ABSOLUTE
    C:\Keil_v5\ARM\PACK\ARM\CMSIS\5.4.0\CMSIS\RTOS2\RTX\Source\rtx_evflags.c 0x00000000   Number         0  rtx_evflags.o ABSOLUTE
    C:\Keil_v5\ARM\PACK\ARM\CMSIS\5.4.0\CMSIS\RTOS2\RTX\Source\rtx_evr.c 0x00000000   Number         0  rtx_evr.o ABSOLUTE
    C:\Keil_v5\ARM\PACK\ARM\CMSIS\5.4.0\CMSIS\RTOS2\RTX\Source\rtx_kernel.c 0x00000000   Number         0  rtx_kernel.o ABSOLUTE
    C:\Keil_v5\ARM\PACK\ARM\CMSIS\5.4.0\CMSIS\RTOS2\RTX\Source\rtx_lib.c 0x00000000   Number         0  rtx_lib.o ABSOLUTE
    C:\Keil_v5\ARM\PACK\ARM\CMSIS\5.4.0\CMSIS\RTOS2\RTX\Source\rtx_memory.c 0x00000000   Number         0  rtx_memory.o ABSOLUTE
    C:\Keil_v5\ARM\PACK\ARM\CMSIS\5.4.0\CMSIS\RTOS2\RTX\Source\rtx_mempool.c 0x00000000   Number         0  rtx_mempool.o ABSOLUTE
    C:\Keil_v5\ARM\PACK\ARM\CMSIS\5.4.0\CMSIS\RTOS2\RTX\Source\rtx_msgqueue.c 0x00000000   Number         0  rtx_msgqueue.o ABSOLUTE
    C:\Keil_v5\ARM\PACK\ARM\CMSIS\5.4.0\CMSIS\RTOS2\RTX\Source\rtx_mutex.c 0x00000000   Number         0  rtx_mutex.o ABSOLUTE
    C:\Keil_v5\ARM\PACK\ARM\CMSIS\5.4.0\CMSIS\RTOS2\RTX\Source\rtx_semaphore.c 0x00000000   Number         0  rtx_semaphore.o ABSOLUTE
    C:\Keil_v5\ARM\PACK\ARM\CMSIS\5.4.0\CMSIS\RTOS2\RTX\Source\rtx_system.c 0x00000000   Number         0  rtx_system.o ABSOLUTE
    C:\Keil_v5\ARM\PACK\ARM\CMSIS\5.4.0\CMSIS\RTOS2\RTX\Source\rtx_thread.c 0x00000000   Number         0  rtx_thread.o ABSOLUTE
    C:\Keil_v5\ARM\PACK\ARM\CMSIS\5.4.0\CMSIS\RTOS2\RTX\Source\rtx_timer.c 0x00000000   Number         0  rtx_timer.o ABSOLUTE
    C:\Keil_v5\ARM\PACK\ARM\CMSIS\5.4.0\CMSIS\RTOS2\Source\os_systick.c 0x00000000   Number         0  os_systick.o ABSOLUTE
    C:\Keil_v5\ARM\PACK\Keil\ARM_Compiler\1.6.0\Source\EventRecorder.c 0x00000000   Number         0  eventrecorder.o ABSOLUTE
    C:\Keil_v5\ARM\PACK\Keil\STM32F7xx_DFP\2.10.0\Drivers\STM32F7xx_HAL_Driver\Src\stm32f7xx_hal.c 0x00000000   Number         0  stm32f7xx_hal.o ABSOLUTE
    C:\Keil_v5\ARM\PACK\Keil\STM32F7xx_DFP\2.10.0\Drivers\STM32F7xx_HAL_Driver\Src\stm32f7xx_hal_adc.c 0x00000000   Number         0  stm32f7xx_hal_adc.o ABSOLUTE
    C:\Keil_v5\ARM\PACK\Keil\STM32F7xx_DFP\2.10.0\Drivers\STM32F7xx_HAL_Driver\Src\stm32f7xx_hal_adc_ex.c 0x00000000   Number         0  stm32f7xx_hal_adc_ex.o ABSOLUTE
    C:\Keil_v5\ARM\PACK\Keil\STM32F7xx_DFP\2.10.0\Drivers\STM32F7xx_HAL_Driver\Src\stm32f7xx_hal_cortex.c 0x00000000   Number         0  stm32f7xx_hal_cortex.o ABSOLUTE
    C:\Keil_v5\ARM\PACK\Keil\STM32F7xx_DFP\2.10.0\Drivers\STM32F7xx_HAL_Driver\Src\stm32f7xx_hal_dma.c 0x00000000   Number         0  stm32f7xx_hal_dma.o ABSOLUTE
    C:\Keil_v5\ARM\PACK\Keil\STM32F7xx_DFP\2.10.0\Drivers\STM32F7xx_HAL_Driver\Src\stm32f7xx_hal_dma_ex.c 0x00000000   Number         0  stm32f7xx_hal_dma_ex.o ABSOLUTE
    C:\Keil_v5\ARM\PACK\Keil\STM32F7xx_DFP\2.10.0\Drivers\STM32F7xx_HAL_Driver\Src\stm32f7xx_hal_gpio.c 0x00000000   Number         0  stm32f7xx_hal_gpio.o ABSOLUTE
    C:\Keil_v5\ARM\PACK\Keil\STM32F7xx_DFP\2.10.0\Drivers\STM32F7xx_HAL_Driver\Src\stm32f7xx_hal_pwr.c 0x00000000   Number         0  stm32f7xx_hal_pwr.o ABSOLUTE
    C:\Keil_v5\ARM\PACK\Keil\STM32F7xx_DFP\2.10.0\Drivers\STM32F7xx_HAL_Driver\Src\stm32f7xx_hal_pwr_ex.c 0x00000000   Number         0  stm32f7xx_hal_pwr_ex.o ABSOLUTE
    C:\Keil_v5\ARM\PACK\Keil\STM32F7xx_DFP\2.10.0\Drivers\STM32F7xx_HAL_Driver\Src\stm32f7xx_hal_rcc.c 0x00000000   Number         0  stm32f7xx_hal_rcc.o ABSOLUTE
    C:\Keil_v5\ARM\PACK\Keil\STM32F7xx_DFP\2.10.0\Drivers\STM32F7xx_HAL_Driver\Src\stm32f7xx_hal_rcc_ex.c 0x00000000   Number         0  stm32f7xx_hal_rcc_ex.o ABSOLUTE
    C:\Keil_v5\ARM\PACK\Keil\STM32F7xx_DFP\2.10.0\MDK\Boards\ST\STM32756G_EVAL\Common\ADC_756G_EVAL.c 0x00000000   Number         0  adc_756g_eval.o ABSOLUTE
    C:\Keil_v5\ARM\PACK\Keil\STM32F7xx_DFP\2.10.0\MDK\Boards\ST\STM32756G_EVAL\Common\Buttons_756G_EVAL.c 0x00000000   Number         0  buttons_756g_eval.o ABSOLUTE
    C:\Keil_v5\ARM\PACK\Keil\STM32F7xx_DFP\2.10.0\MDK\Boards\ST\STM32756G_EVAL\Common\LED_756G_EVAL.c 0x00000000   Number         0  led_756g_eval.o ABSOLUTE
    C:\\Keil_v5\\ARM\\PACK\\ARM\\CMSIS\\5.4.0\\CMSIS\\RTOS2\\RTX\\Source\\rtx_delay.c 0x00000000   Number         0  rtx_delay.o ABSOLUTE
    C:\\Keil_v5\\ARM\\PACK\\ARM\\CMSIS\\5.4.0\\CMSIS\\RTOS2\\RTX\\Source\\rtx_evflags.c 0x00000000   Number         0  rtx_evflags.o ABSOLUTE
    C:\\Keil_v5\\ARM\\PACK\\ARM\\CMSIS\\5.4.0\\CMSIS\\RTOS2\\RTX\\Source\\rtx_evr.c 0x00000000   Number         0  rtx_evr.o ABSOLUTE
    C:\\Keil_v5\\ARM\\PACK\\ARM\\CMSIS\\5.4.0\\CMSIS\\RTOS2\\RTX\\Source\\rtx_kernel.c 0x00000000   Number         0  rtx_kernel.o ABSOLUTE
    C:\\Keil_v5\\ARM\\PACK\\ARM\\CMSIS\\5.4.0\\CMSIS\\RTOS2\\RTX\\Source\\rtx_lib.c 0x00000000   Number         0  rtx_lib.o ABSOLUTE
    C:\\Keil_v5\\ARM\\PACK\\ARM\\CMSIS\\5.4.0\\CMSIS\\RTOS2\\RTX\\Source\\rtx_memory.c 0x00000000   Number         0  rtx_memory.o ABSOLUTE
    C:\\Keil_v5\\ARM\\PACK\\ARM\\CMSIS\\5.4.0\\CMSIS\\RTOS2\\RTX\\Source\\rtx_mempool.c 0x00000000   Number         0  rtx_mempool.o ABSOLUTE
    C:\\Keil_v5\\ARM\\PACK\\ARM\\CMSIS\\5.4.0\\CMSIS\\RTOS2\\RTX\\Source\\rtx_msgqueue.c 0x00000000   Number         0  rtx_msgqueue.o ABSOLUTE
    C:\\Keil_v5\\ARM\\PACK\\ARM\\CMSIS\\5.4.0\\CMSIS\\RTOS2\\RTX\\Source\\rtx_mutex.c 0x00000000   Number         0  rtx_mutex.o ABSOLUTE
    C:\\Keil_v5\\ARM\\PACK\\ARM\\CMSIS\\5.4.0\\CMSIS\\RTOS2\\RTX\\Source\\rtx_semaphore.c 0x00000000   Number         0  rtx_semaphore.o ABSOLUTE
    C:\\Keil_v5\\ARM\\PACK\\ARM\\CMSIS\\5.4.0\\CMSIS\\RTOS2\\RTX\\Source\\rtx_system.c 0x00000000   Number         0  rtx_system.o ABSOLUTE
    C:\\Keil_v5\\ARM\\PACK\\ARM\\CMSIS\\5.4.0\\CMSIS\\RTOS2\\RTX\\Source\\rtx_thread.c 0x00000000   Number         0  rtx_thread.o ABSOLUTE
    C:\\Keil_v5\\ARM\\PACK\\ARM\\CMSIS\\5.4.0\\CMSIS\\RTOS2\\RTX\\Source\\rtx_timer.c 0x00000000   Number         0  rtx_timer.o ABSOLUTE
    C:\\Keil_v5\\ARM\\PACK\\ARM\\CMSIS\\5.4.0\\CMSIS\\RTOS2\\Source\\os_systick.c 0x00000000   Number         0  os_systick.o ABSOLUTE
    C:\\Keil_v5\\ARM\\PACK\\Keil\\ARM_Compiler\\1.6.0\\Source\\EventRecorder.c 0x00000000   Number         0  eventrecorder.o ABSOLUTE
    C:\\Keil_v5\\ARM\\PACK\\Keil\\STM32F7xx_DFP\\2.10.0\\Drivers\\STM32F7xx_HAL_Driver\\Src\\stm32f7xx_hal.c 0x00000000   Number         0  stm32f7xx_hal.o ABSOLUTE
    C:\\Keil_v5\\ARM\\PACK\\Keil\\STM32F7xx_DFP\\2.10.0\\Drivers\\STM32F7xx_HAL_Driver\\Src\\stm32f7xx_hal_adc.c 0x00000000   Number         0  stm32f7xx_hal_adc.o ABSOLUTE
    C:\\Keil_v5\\ARM\\PACK\\Keil\\STM32F7xx_DFP\\2.10.0\\Drivers\\STM32F7xx_HAL_Driver\\Src\\stm32f7xx_hal_adc_ex.c 0x00000000   Number         0  stm32f7xx_hal_adc_ex.o ABSOLUTE
    C:\\Keil_v5\\ARM\\PACK\\Keil\\STM32F7xx_DFP\\2.10.0\\Drivers\\STM32F7xx_HAL_Driver\\Src\\stm32f7xx_hal_cortex.c 0x00000000   Number         0  stm32f7xx_hal_cortex.o ABSOLUTE
    C:\\Keil_v5\\ARM\\PACK\\Keil\\STM32F7xx_DFP\\2.10.0\\Drivers\\STM32F7xx_HAL_Driver\\Src\\stm32f7xx_hal_dma.c 0x00000000   Number         0  stm32f7xx_hal_dma.o ABSOLUTE
    C:\\Keil_v5\\ARM\\PACK\\Keil\\STM32F7xx_DFP\\2.10.0\\Drivers\\STM32F7xx_HAL_Driver\\Src\\stm32f7xx_hal_dma_ex.c 0x00000000   Number         0  stm32f7xx_hal_dma_ex.o ABSOLUTE
    C:\\Keil_v5\\ARM\\PACK\\Keil\\STM32F7xx_DFP\\2.10.0\\Drivers\\STM32F7xx_HAL_Driver\\Src\\stm32f7xx_hal_gpio.c 0x00000000   Number         0  stm32f7xx_hal_gpio.o ABSOLUTE
    C:\\Keil_v5\\ARM\\PACK\\Keil\\STM32F7xx_DFP\\2.10.0\\Drivers\\STM32F7xx_HAL_Driver\\Src\\stm32f7xx_hal_pwr.c 0x00000000   Number         0  stm32f7xx_hal_pwr.o ABSOLUTE
    C:\\Keil_v5\\ARM\\PACK\\Keil\\STM32F7xx_DFP\\2.10.0\\Drivers\\STM32F7xx_HAL_Driver\\Src\\stm32f7xx_hal_pwr_ex.c 0x00000000   Number         0  stm32f7xx_hal_pwr_ex.o ABSOLUTE
    C:\\Keil_v5\\ARM\\PACK\\Keil\\STM32F7xx_DFP\\2.10.0\\Drivers\\STM32F7xx_HAL_Driver\\Src\\stm32f7xx_hal_rcc.c 0x00000000   Number         0  stm32f7xx_hal_rcc.o ABSOLUTE
    C:\\Keil_v5\\ARM\\PACK\\Keil\\STM32F7xx_DFP\\2.10.0\\Drivers\\STM32F7xx_HAL_Driver\\Src\\stm32f7xx_hal_rcc_ex.c 0x00000000   Number         0  stm32f7xx_hal_rcc_ex.o ABSOLUTE
    C:\\Keil_v5\\ARM\\PACK\\Keil\\STM32F7xx_DFP\\2.10.0\\MDK\\Boards\\ST\\STM32756G_EVAL\\Common\\ADC_756G_EVAL.c 0x00000000   Number         0  adc_756g_eval.o ABSOLUTE
    C:\\Keil_v5\\ARM\\PACK\\Keil\\STM32F7xx_DFP\\2.10.0\\MDK\\Boards\\ST\\STM32756G_EVAL\\Common\\Buttons_756G_EVAL.c 0x00000000   Number         0  buttons_756g_eval.o ABSOLUTE
    C:\\Keil_v5\\ARM\\PACK\\Keil\\STM32F7xx_DFP\\2.10.0\\MDK\\Boards\\ST\\STM32756G_EVAL\\Common\\LED_756G_EVAL.c 0x00000000   Number         0  led_756g_eval.o ABSOLUTE
    Nohau_Demo.c                             0x00000000   Number         0  nohau_demo.o ABSOLUTE
    RTE\CMSIS\RTX_Config.c                   0x00000000   Number         0  rtx_config.o ABSOLUTE
    RTE\Device\STM32F756NGHx\startup_stm32f756xx.s 0x00000000   Number         0  startup_stm32f756xx.o ABSOLUTE
    RTE\Device\STM32F756NGHx\system_stm32f7xx.c 0x00000000   Number         0  system_stm32f7xx.o ABSOLUTE
    RTE\\CMSIS\\RTX_Config.c                 0x00000000   Number         0  rtx_config.o ABSOLUTE
    RTE\\Device\\STM32F756NGHx\\system_stm32f7xx.c 0x00000000   Number         0  system_stm32f7xx.o ABSOLUTE
    dc.s                                     0x00000000   Number         0  dc.o ABSOLUTE
    main.c                                   0x00000000   Number         0  main.o ABSOLUTE
    main.c                                   0x00000000   Number         0  main.o ABSOLUTE
    vsprintf.c                               0x00000000   Number         0  vsprintf.o ABSOLUTE
    RESET                                    0x08000000   Section      456  startup_stm32f756xx.o(RESET)
    !!!main                                  0x080001c8   Section        8  __main.o(!!!main)
    !!!scatter                               0x080001d0   Section       52  __scatter.o(!!!scatter)
    !!dczerorl2                              0x08000204   Section       90  __dczerorl2.o(!!dczerorl2)
    !!handler_zi                             0x08000260   Section       28  __scatter_zi.o(!!handler_zi)
    .ARM.Collect$$libinit$$00000000          0x0800027c   Section        2  libinit.o(.ARM.Collect$$libinit$$00000000)
    .ARM.Collect$$libinit$$00000001          0x0800027e   Section        4  libinit2.o(.ARM.Collect$$libinit$$00000001)
    .ARM.Collect$$libinit$$00000004          0x08000282   Section        0  libinit2.o(.ARM.Collect$$libinit$$00000004)
    .ARM.Collect$$libinit$$00000005          0x08000282   Section        8  libinit2.o(.ARM.Collect$$libinit$$00000005)
    .ARM.Collect$$libinit$$0000000A          0x0800028a   Section        0  libinit2.o(.ARM.Collect$$libinit$$0000000A)
    .ARM.Collect$$libinit$$0000000C          0x0800028a   Section        0  libinit2.o(.ARM.Collect$$libinit$$0000000C)
    .ARM.Collect$$libinit$$0000000E          0x0800028a   Section        0  libinit2.o(.ARM.Collect$$libinit$$0000000E)
    .ARM.Collect$$libinit$$00000011          0x0800028a   Section        0  libinit2.o(.ARM.Collect$$libinit$$00000011)
    .ARM.Collect$$libinit$$00000013          0x0800028a   Section        0  libinit2.o(.ARM.Collect$$libinit$$00000013)
    .ARM.Collect$$libinit$$00000015          0x0800028a   Section        0  libinit2.o(.ARM.Collect$$libinit$$00000015)
    .ARM.Collect$$libinit$$00000017          0x0800028a   Section        0  libinit2.o(.ARM.Collect$$libinit$$00000017)
    .ARM.Collect$$libinit$$00000019          0x0800028a   Section        0  libinit2.o(.ARM.Collect$$libinit$$00000019)
    .ARM.Collect$$libinit$$0000001B          0x0800028a   Section        0  libinit2.o(.ARM.Collect$$libinit$$0000001B)
    .ARM.Collect$$libinit$$0000001D          0x0800028a   Section        0  libinit2.o(.ARM.Collect$$libinit$$0000001D)
    .ARM.Collect$$libinit$$0000001F          0x0800028a   Section        0  libinit2.o(.ARM.Collect$$libinit$$0000001F)
    .ARM.Collect$$libinit$$00000021          0x0800028a   Section        0  libinit2.o(.ARM.Collect$$libinit$$00000021)
    .ARM.Collect$$libinit$$00000023          0x0800028a   Section        0  libinit2.o(.ARM.Collect$$libinit$$00000023)
    .ARM.Collect$$libinit$$00000025          0x0800028a   Section        0  libinit2.o(.ARM.Collect$$libinit$$00000025)
    .ARM.Collect$$libinit$$0000002C          0x0800028a   Section        0  libinit2.o(.ARM.Collect$$libinit$$0000002C)
    .ARM.Collect$$libinit$$0000002E          0x0800028a   Section        0  libinit2.o(.ARM.Collect$$libinit$$0000002E)
    .ARM.Collect$$libinit$$00000030          0x0800028a   Section        0  libinit2.o(.ARM.Collect$$libinit$$00000030)
    .ARM.Collect$$libinit$$00000032          0x0800028a   Section        0  libinit2.o(.ARM.Collect$$libinit$$00000032)
    .ARM.Collect$$libinit$$00000033          0x0800028a   Section        2  libinit2.o(.ARM.Collect$$libinit$$00000033)
    .ARM.Collect$$libshutdown$$00000000      0x0800028c   Section        2  libshutdown.o(.ARM.Collect$$libshutdown$$00000000)
    .ARM.Collect$$libshutdown$$00000002      0x0800028e   Section        0  libshutdown2.o(.ARM.Collect$$libshutdown$$00000002)
    .ARM.Collect$$libshutdown$$00000004      0x0800028e   Section        0  libshutdown2.o(.ARM.Collect$$libshutdown$$00000004)
    .ARM.Collect$$libshutdown$$00000007      0x0800028e   Section        0  libshutdown2.o(.ARM.Collect$$libshutdown$$00000007)
    .ARM.Collect$$libshutdown$$0000000A      0x0800028e   Section        0  libshutdown2.o(.ARM.Collect$$libshutdown$$0000000A)
    .ARM.Collect$$libshutdown$$0000000C      0x0800028e   Section        0  libshutdown2.o(.ARM.Collect$$libshutdown$$0000000C)
    .ARM.Collect$$libshutdown$$0000000D      0x0800028e   Section        4  libshutdown2.o(.ARM.Collect$$libshutdown$$0000000D)
    .ARM.Collect$$libshutdown$$0000000F      0x08000292   Section        0  libshutdown2.o(.ARM.Collect$$libshutdown$$0000000F)
    .ARM.Collect$$libshutdown$$00000010      0x08000292   Section        2  libshutdown2.o(.ARM.Collect$$libshutdown$$00000010)
    .ARM.Collect$$rtentry$$00000000          0x08000294   Section        0  __rtentry.o(.ARM.Collect$$rtentry$$00000000)
    .ARM.Collect$$rtentry$$00000002          0x08000294   Section        0  __rtentry2.o(.ARM.Collect$$rtentry$$00000002)
    .ARM.Collect$$rtentry$$00000004          0x08000294   Section        6  __rtentry4.o(.ARM.Collect$$rtentry$$00000004)
    .ARM.Collect$$rtentry$$00000008          0x0800029a   Section        8  __rtentry2.o(.ARM.Collect$$rtentry$$00000008)
    .ARM.Collect$$rtentry$$0000000A          0x080002a2   Section        4  __rtentry2.o(.ARM.Collect$$rtentry$$0000000A)
    .ARM.Collect$$rtentry$$0000000C          0x080002a6   Section        0  __rtentry2.o(.ARM.Collect$$rtentry$$0000000C)
    .ARM.Collect$$rtentry$$0000000D          0x080002a6   Section        8  __rtentry2.o(.ARM.Collect$$rtentry$$0000000D)
    .ARM.Collect$$rtexit$$00000000           0x080002ae   Section        2  rtexit.o(.ARM.Collect$$rtexit$$00000000)
    .ARM.Collect$$rtexit$$00000002           0x080002b0   Section        0  rtexit2.o(.ARM.Collect$$rtexit$$00000002)
    .ARM.Collect$$rtexit$$00000003           0x080002b0   Section        4  rtexit2.o(.ARM.Collect$$rtexit$$00000003)
    .ARM.Collect$$rtexit$$00000004           0x080002b4   Section        6  rtexit2.o(.ARM.Collect$$rtexit$$00000004)
    .emb_text                                0x080002bc   Section      328  rtx_mempool.o(.emb_text)
    $v0                                      0x080002bc   Number         0  rtx_mempool.o(.emb_text)
    .emb_text                                0x08000404   Section      328  rtx_msgqueue.o(.emb_text)
    $v0                                      0x08000404   Number         0  rtx_msgqueue.o(.emb_text)
    .emb_text                                0x0800054c   Section      328  rtx_system.o(.emb_text)
    $v0                                      0x0800054c   Number         0  rtx_system.o(.emb_text)
    .emb_text                                0x08000694   Section      328  rtx_thread.o(.emb_text)
    $v0                                      0x08000694   Number         0  rtx_thread.o(.emb_text)
    .emb_text                                0x080007dc   Section      116  eventrecorder.o(.emb_text)
    $v0                                      0x080007dc   Number         0  eventrecorder.o(.emb_text)
    .emb_text                                0x08000850   Section        0  maybetermalloc2.o(.emb_text)
    .text                                    0x08000850   Section      196  irq_cm4f.o(.text)
    $v0                                      0x08000850   Number         0  irq_cm4f.o(.text)
    .text                                    0x08000914   Section       64  startup_stm32f756xx.o(.text)
    $v0                                      0x08000914   Number         0  startup_stm32f756xx.o(.text)
    .text                                    0x08000954   Section        0  h1_alloc_mt.o(.text)
    Heap1_SizeAdjust                         0x08000955   Thumb Code     8  h1_alloc_mt.o(.text)
    .text                                    0x080009f2   Section        0  h1_free_mt.o(.text)
    .text                                    0x08000a68   Section      238  lludivv7m.o(.text)
    .text                                    0x08000b56   Section      138  rt_memcpy_v6.o(.text)
    .text                                    0x08000be0   Section      100  rt_memcpy_w.o(.text)
    .text                                    0x08000c44   Section       68  rt_memclr.o(.text)
    .text                                    0x08000c88   Section       78  rt_memclr_w.o(.text)
    .text                                    0x08000cd6   Section        0  heapauxi.o(.text)
    .text                                    0x08000cdc   Section       10  rt_heap_descriptor_twolibspace.o(.text)
    .text                                    0x08000ce6   Section        0  hguard.o(.text)
    .text                                    0x08000cea   Section        0  init_alloc.o(.text)
    .text                                    0x08000d74   Section        0  h1_init_mt.o(.text)
    .text                                    0x08000d86   Section        0  _rserrno.o(.text)
    .text                                    0x08000d9c   Section        8  libspace.o(.text)
    .text                                    0x08000da4   Section        4  rt_errno_addr_twolibspace.o(.text)
    .text                                    0x08000da8   Section        0  h1_extend_mt.o(.text)
    .text                                    0x08000de6   Section        0  defsig_rtmem_outer.o(.text)
    .text                                    0x08000df4   Section        2  use_no_semi.o(.text)
    .text                                    0x08000df6   Section        0  indicate_semi.o(.text)
    .text                                    0x08000df6   Section       74  sys_stackheap_outer.o(.text)
    .text                                    0x08000e40   Section        0  term_alloc.o(.text)
    .text                                    0x08000e50   Section        0  exit.o(.text)
    .text                                    0x08000e62   Section        0  defsig_exit.o(.text)
    .text                                    0x08000e6c   Section        0  defsig_rtmem_inner.o(.text)
    .text                                    0x08000ebc   Section        0  sys_exit.o(.text)
    .text                                    0x08000ec8   Section        0  h1_final_mt.o(.text)
    .text                                    0x08000ed2   Section        0  defsig_general.o(.text)
    .text                                    0x08000f04   Section        0  sys_wrch.o(.text)
    i.ADC_ConversionDone                     0x08000f14   Section        0  adc_756g_eval.o(i.ADC_ConversionDone)
    i.ADC_GetValue                           0x08000f40   Section        0  adc_756g_eval.o(i.ADC_GetValue)
    i.ADC_Init                               0x08000f70   Section        0  stm32f7xx_hal_adc.o(i.ADC_Init)
    ADC_Init                                 0x08000f71   Thumb Code   350  stm32f7xx_hal_adc.o(i.ADC_Init)
    i.ADC_Initialize                         0x080010dc   Section        0  adc_756g_eval.o(i.ADC_Initialize)
    i.ADC_StartConversion                    0x08001194   Section        0  adc_756g_eval.o(i.ADC_StartConversion)
    i.BigSmall                               0x080011b8   Section        0  nohau_demo.o(i.BigSmall)
    i.BlancStructHandler                     0x080011f8   Section        0  nohau_demo.o(i.BlancStructHandler)
    i.BlankFractMem                          0x080012bc   Section        0  nohau_demo.o(i.BlankFractMem)
    i.Buttons_GetCount                       0x080012d8   Section        0  buttons_756g_eval.o(i.Buttons_GetCount)
    i.Buttons_GetState                       0x080012dc   Section        0  buttons_756g_eval.o(i.Buttons_GetState)
    i.Buttons_Initialize                     0x080012fc   Section        0  buttons_756g_eval.o(i.Buttons_Initialize)
    i.CPU_CACHE_Enable                       0x08001340   Section        0  main.o(i.CPU_CACHE_Enable)
    CPU_CACHE_Enable                         0x08001341   Thumb Code    12  main.o(i.CPU_CACHE_Enable)
    i.Common                                 0x0800134c   Section        0  nohau_demo.o(i.Common)
    i.DataMotionWaveFormer                   0x0800137c   Section        0  nohau_demo.o(i.DataMotionWaveFormer)
    i.Echoes00                               0x0800144c   Section        0  nohau_demo.o(i.Echoes00)
    i.Echoes01                               0x08001470   Section        0  nohau_demo.o(i.Echoes01)
    i.Echoes02                               0x080014b4   Section        0  nohau_demo.o(i.Echoes02)
    i.Echoes03                               0x080014f8   Section        0  nohau_demo.o(i.Echoes03)
    i.Echoes04                               0x0800153c   Section        0  nohau_demo.o(i.Echoes04)
    i.Echoes05                               0x08001580   Section        0  nohau_demo.o(i.Echoes05)
    i.Echoes06                               0x080015c4   Section        0  nohau_demo.o(i.Echoes06)
    i.Echoes07                               0x08001608   Section        0  nohau_demo.o(i.Echoes07)
    i.Echoes08                               0x0800164c   Section        0  nohau_demo.o(i.Echoes08)
    i.Echoes09                               0x08001690   Section        0  nohau_demo.o(i.Echoes09)
    i.Echoes10                               0x080016d4   Section        0  nohau_demo.o(i.Echoes10)
    i.Echoes11                               0x08001718   Section        0  nohau_demo.o(i.Echoes11)
    i.Echoes12                               0x0800175c   Section        0  nohau_demo.o(i.Echoes12)
    i.EchoesOfOsirian                        0x08001798   Section        0  nohau_demo.o(i.EchoesOfOsirian)
    i.Error_Handler                          0x080017c8   Section        0  main.o(i.Error_Handler)
    Error_Handler                            0x080017c9   Thumb Code     4  main.o(i.Error_Handler)
    i.EventCheckFilter                       0x080017cc   Section        0  eventrecorder.o(i.EventCheckFilter)
    EventCheckFilter                         0x080017cd   Thumb Code    32  eventrecorder.o(i.EventCheckFilter)
    i.EventGetTS                             0x080017f4   Section        0  eventrecorder.o(i.EventGetTS)
    EventGetTS                               0x080017f5   Thumb Code    56  eventrecorder.o(i.EventGetTS)
    i.EventRecord2                           0x08001830   Section        0  eventrecorder.o(i.EventRecord2)
    i.EventRecord4                           0x08001876   Section        0  eventrecorder.o(i.EventRecord4)
    i.EventRecordData                        0x080018ec   Section        0  eventrecorder.o(i.EventRecordData)
    i.EventRecordItem                        0x08001a04   Section        0  eventrecorder.o(i.EventRecordItem)
    EventRecordItem                          0x08001a05   Thumb Code   206  eventrecorder.o(i.EventRecordItem)
    i.EventRecorderEnable                    0x08001adc   Section        0  eventrecorder.o(i.EventRecorderEnable)
    i.EventRecorderInitialize                0x08001b38   Section        0  eventrecorder.o(i.EventRecorderInitialize)
    i.EventRecorderStart                     0x08001c60   Section        0  eventrecorder.o(i.EventRecorderStart)
    i.EventRecorderTimerGetCount             0x08001c90   Section        0  eventrecorder.o(i.EventRecorderTimerGetCount)
    i.EventRecorderTimerGetFreq              0x08001c9c   Section        0  eventrecorder.o(i.EventRecorderTimerGetFreq)
    i.EventRecorderTimerSetup                0x08001ca8   Section        0  eventrecorder.o(i.EventRecorderTimerSetup)
    i.EvrRtxEventFlagsWaitTimeout            0x08001ccc   Section        0  rtx_evr.o(i.EvrRtxEventFlagsWaitTimeout)
    i.EvrRtxKernelError                      0x08001ce0   Section        0  rtx_evr.o(i.EvrRtxKernelError)
    i.EvrRtxKernelGetState                   0x08001cf4   Section        0  rtx_evr.o(i.EvrRtxKernelGetState)
    i.EvrRtxKernelGetTickCount               0x08001d08   Section        0  rtx_evr.o(i.EvrRtxKernelGetTickCount)
    i.EvrRtxKernelInitialize                 0x08001d1c   Section        0  rtx_evr.o(i.EvrRtxKernelInitialize)
    i.EvrRtxKernelInitialized                0x08001d30   Section        0  rtx_evr.o(i.EvrRtxKernelInitialized)
    i.EvrRtxKernelStart                      0x08001d44   Section        0  rtx_evr.o(i.EvrRtxKernelStart)
    i.EvrRtxKernelStarted                    0x08001d58   Section        0  rtx_evr.o(i.EvrRtxKernelStarted)
    i.EvrRtxMemoryAlloc                      0x08001d6c   Section        0  rtx_evr.o(i.EvrRtxMemoryAlloc)
    i.EvrRtxMemoryBlockAlloc                 0x08001d8c   Section        0  rtx_evr.o(i.EvrRtxMemoryBlockAlloc)
    i.EvrRtxMemoryBlockFree                  0x08001da4   Section        0  rtx_evr.o(i.EvrRtxMemoryBlockFree)
    i.EvrRtxMemoryBlockInit                  0x08001dc4   Section        0  rtx_evr.o(i.EvrRtxMemoryBlockInit)
    i.EvrRtxMemoryFree                       0x08001de4   Section        0  rtx_evr.o(i.EvrRtxMemoryFree)
    i.EvrRtxMemoryInit                       0x08001e04   Section        0  rtx_evr.o(i.EvrRtxMemoryInit)
    i.EvrRtxMemoryPoolAllocTimeout           0x08001e20   Section        0  rtx_evr.o(i.EvrRtxMemoryPoolAllocTimeout)
    i.EvrRtxMessageQueueCreated              0x08001e34   Section        0  rtx_evr.o(i.EvrRtxMessageQueueCreated)
    i.EvrRtxMessageQueueError                0x08001e4c   Section        0  rtx_evr.o(i.EvrRtxMessageQueueError)
    i.EvrRtxMessageQueueGet                  0x08001e60   Section        0  rtx_evr.o(i.EvrRtxMessageQueueGet)
    i.EvrRtxMessageQueueGetPending           0x08001e80   Section        0  rtx_evr.o(i.EvrRtxMessageQueueGetPending)
    i.EvrRtxMessageQueueGetTimeout           0x08001ea0   Section        0  rtx_evr.o(i.EvrRtxMessageQueueGetTimeout)
    i.EvrRtxMessageQueueInsertPending        0x08001eb4   Section        0  rtx_evr.o(i.EvrRtxMessageQueueInsertPending)
    i.EvrRtxMessageQueueInserted             0x08001ecc   Section        0  rtx_evr.o(i.EvrRtxMessageQueueInserted)
    i.EvrRtxMessageQueueNew                  0x08001ee4   Section        0  rtx_evr.o(i.EvrRtxMessageQueueNew)
    i.EvrRtxMessageQueueNotInserted          0x08001f14   Section        0  rtx_evr.o(i.EvrRtxMessageQueueNotInserted)
    i.EvrRtxMessageQueueNotRetrieved         0x08001f2c   Section        0  rtx_evr.o(i.EvrRtxMessageQueueNotRetrieved)
    i.EvrRtxMessageQueuePut                  0x08001f44   Section        0  rtx_evr.o(i.EvrRtxMessageQueuePut)
    i.EvrRtxMessageQueuePutPending           0x08001f64   Section        0  rtx_evr.o(i.EvrRtxMessageQueuePutPending)
    i.EvrRtxMessageQueuePutTimeout           0x08001f84   Section        0  rtx_evr.o(i.EvrRtxMessageQueuePutTimeout)
    i.EvrRtxMessageQueueRetrieved            0x08001f98   Section        0  rtx_evr.o(i.EvrRtxMessageQueueRetrieved)
    i.EvrRtxMutexAcquire                     0x08001fb0   Section        0  rtx_evr.o(i.EvrRtxMutexAcquire)
    i.EvrRtxMutexAcquirePending              0x08001fc8   Section        0  rtx_evr.o(i.EvrRtxMutexAcquirePending)
    i.EvrRtxMutexAcquireTimeout              0x08001fe0   Section        0  rtx_evr.o(i.EvrRtxMutexAcquireTimeout)
    i.EvrRtxMutexAcquired                    0x08001ff4   Section        0  rtx_evr.o(i.EvrRtxMutexAcquired)
    i.EvrRtxMutexCreated                     0x0800200c   Section        0  rtx_evr.o(i.EvrRtxMutexCreated)
    i.EvrRtxMutexDelete                      0x08002024   Section        0  rtx_evr.o(i.EvrRtxMutexDelete)
    i.EvrRtxMutexDestroyed                   0x08002038   Section        0  rtx_evr.o(i.EvrRtxMutexDestroyed)
    i.EvrRtxMutexError                       0x0800204c   Section        0  rtx_evr.o(i.EvrRtxMutexError)
    i.EvrRtxMutexNew                         0x08002060   Section        0  rtx_evr.o(i.EvrRtxMutexNew)
    i.EvrRtxMutexNotAcquired                 0x08002084   Section        0  rtx_evr.o(i.EvrRtxMutexNotAcquired)
    i.EvrRtxMutexRelease                     0x08002098   Section        0  rtx_evr.o(i.EvrRtxMutexRelease)
    i.EvrRtxMutexReleased                    0x080020ac   Section        0  rtx_evr.o(i.EvrRtxMutexReleased)
    i.EvrRtxSemaphoreAcquireTimeout          0x080020c4   Section        0  rtx_evr.o(i.EvrRtxSemaphoreAcquireTimeout)
    i.EvrRtxThreadBlocked                    0x080020d8   Section        0  rtx_evr.o(i.EvrRtxThreadBlocked)
    i.EvrRtxThreadCreated                    0x080020f0   Section        0  rtx_evr.o(i.EvrRtxThreadCreated)
    i.EvrRtxThreadDelay                      0x08002118   Section        0  rtx_evr.o(i.EvrRtxThreadDelay)
    i.EvrRtxThreadDelayCompleted             0x0800212c   Section        0  rtx_evr.o(i.EvrRtxThreadDelayCompleted)
    i.EvrRtxThreadDestroyed                  0x08002140   Section        0  rtx_evr.o(i.EvrRtxThreadDestroyed)
    i.EvrRtxThreadError                      0x08002154   Section        0  rtx_evr.o(i.EvrRtxThreadError)
    i.EvrRtxThreadExit                       0x08002168   Section        0  rtx_evr.o(i.EvrRtxThreadExit)
    i.EvrRtxThreadFlagsSet                   0x0800217c   Section        0  rtx_evr.o(i.EvrRtxThreadFlagsSet)
    i.EvrRtxThreadFlagsSetDone               0x08002194   Section        0  rtx_evr.o(i.EvrRtxThreadFlagsSetDone)
    i.EvrRtxThreadFlagsWait                  0x080021ac   Section        0  rtx_evr.o(i.EvrRtxThreadFlagsWait)
    i.EvrRtxThreadFlagsWaitCompleted         0x080021cc   Section        0  rtx_evr.o(i.EvrRtxThreadFlagsWaitCompleted)
    i.EvrRtxThreadFlagsWaitNotCompleted      0x080021ec   Section        0  rtx_evr.o(i.EvrRtxThreadFlagsWaitNotCompleted)
    i.EvrRtxThreadFlagsWaitPending           0x08002204   Section        0  rtx_evr.o(i.EvrRtxThreadFlagsWaitPending)
    i.EvrRtxThreadFlagsWaitTimeout           0x08002224   Section        0  rtx_evr.o(i.EvrRtxThreadFlagsWaitTimeout)
    i.EvrRtxThreadGetId                      0x08002238   Section        0  rtx_evr.o(i.EvrRtxThreadGetId)
    i.EvrRtxThreadJoined                     0x0800224c   Section        0  rtx_evr.o(i.EvrRtxThreadJoined)
    i.EvrRtxThreadNew                        0x08002260   Section        0  rtx_evr.o(i.EvrRtxThreadNew)
    i.EvrRtxThreadPreempted                  0x08002290   Section        0  rtx_evr.o(i.EvrRtxThreadPreempted)
    i.EvrRtxThreadSwitched                   0x080022a4   Section        0  rtx_evr.o(i.EvrRtxThreadSwitched)
    i.EvrRtxThreadUnblocked                  0x080022b8   Section        0  rtx_evr.o(i.EvrRtxThreadUnblocked)
    i.EvrRtxTimerCallback                    0x080022d0   Section        0  rtx_evr.o(i.EvrRtxTimerCallback)
    i.GetContext                             0x080022e8   Section        0  eventrecorder.o(i.GetContext)
    GetContext                               0x080022e9   Thumb Code    10  eventrecorder.o(i.GetContext)
    i.GetPrimerBack                          0x080022f8   Section        0  nohau_demo.o(i.GetPrimerBack)
    i.HAL_ADC_ConfigChannel                  0x08002350   Section        0  stm32f7xx_hal_adc.o(i.HAL_ADC_ConfigChannel)
    i.HAL_ADC_GetValue                       0x08002504   Section        0  stm32f7xx_hal_adc.o(i.HAL_ADC_GetValue)
    i.HAL_ADC_Init                           0x0800250c   Section        0  stm32f7xx_hal_adc.o(i.HAL_ADC_Init)
    i.HAL_ADC_MspInit                        0x08002574   Section        0  stm32f7xx_hal_adc.o(i.HAL_ADC_MspInit)
    i.HAL_ADC_PollForConversion              0x08002576   Section        0  stm32f7xx_hal_adc.o(i.HAL_ADC_PollForConversion)
    i.HAL_ADC_Start                          0x08002630   Section        0  stm32f7xx_hal_adc.o(i.HAL_ADC_Start)
    i.HAL_GPIO_Init                          0x08002730   Section        0  stm32f7xx_hal_gpio.o(i.HAL_GPIO_Init)
    i.HAL_GPIO_ReadPin                       0x08002948   Section        0  stm32f7xx_hal_gpio.o(i.HAL_GPIO_ReadPin)
    i.HAL_GPIO_WritePin                      0x08002958   Section        0  stm32f7xx_hal_gpio.o(i.HAL_GPIO_WritePin)
    i.HAL_GetTick                            0x08002964   Section        0  main.o(i.HAL_GetTick)
    i.HAL_Init                               0x080029b0   Section        0  stm32f7xx_hal.o(i.HAL_Init)
    i.HAL_InitTick                           0x080029e0   Section        0  stm32f7xx_hal.o(i.HAL_InitTick)
    i.HAL_MspInit                            0x08002a2c   Section        0  stm32f7xx_hal.o(i.HAL_MspInit)
    i.HAL_NVIC_SetPriority                   0x08002a2e   Section        0  stm32f7xx_hal_cortex.o(i.HAL_NVIC_SetPriority)
    i.HAL_NVIC_SetPriorityGrouping           0x08002aac   Section        0  stm32f7xx_hal_cortex.o(i.HAL_NVIC_SetPriorityGrouping)
    i.HAL_PWREx_EnableOverDrive              0x08002ad4   Section        0  stm32f7xx_hal_pwr_ex.o(i.HAL_PWREx_EnableOverDrive)
    i.HAL_RCC_ClockConfig                    0x08002b64   Section        0  stm32f7xx_hal_rcc.o(i.HAL_RCC_ClockConfig)
    i.HAL_RCC_GetSysClockFreq                0x08002cf4   Section        0  stm32f7xx_hal_rcc.o(i.HAL_RCC_GetSysClockFreq)
    i.HAL_RCC_OscConfig                      0x08002da4   Section        0  stm32f7xx_hal_rcc.o(i.HAL_RCC_OscConfig)
    i.HAL_SYSTICK_Config                     0x08003258   Section        0  stm32f7xx_hal_cortex.o(i.HAL_SYSTICK_Config)
    i.HexSwap                                0x0800328c   Section        0  nohau_demo.o(i.HexSwap)
    i.ITM_printf                             0x080032c4   Section        0  nohau_demo.o(i.ITM_printf)
    i.InitArr                                0x08003320   Section        0  nohau_demo.o(i.InitArr)
    i.InitMatrix                             0x0800363c   Section        0  nohau_demo.o(i.InitMatrix)
    i.IntToFloat                             0x080036ec   Section        0  nohau_demo.o(i.IntToFloat)
    i.IsIrqMasked                            0x0800372c   Section        0  rtx_delay.o(i.IsIrqMasked)
    IsIrqMasked                              0x0800372d   Thumb Code    24  rtx_delay.o(i.IsIrqMasked)
    i.IsIrqMasked                            0x08003744   Section        0  rtx_kernel.o(i.IsIrqMasked)
    IsIrqMasked                              0x08003745   Thumb Code    24  rtx_kernel.o(i.IsIrqMasked)
    i.IsIrqMasked                            0x0800375c   Section        0  rtx_msgqueue.o(i.IsIrqMasked)
    IsIrqMasked                              0x0800375d   Thumb Code    24  rtx_msgqueue.o(i.IsIrqMasked)
    i.IsIrqMasked                            0x08003774   Section        0  rtx_mutex.o(i.IsIrqMasked)
    IsIrqMasked                              0x08003775   Thumb Code    24  rtx_mutex.o(i.IsIrqMasked)
    i.IsIrqMasked                            0x0800378c   Section        0  rtx_thread.o(i.IsIrqMasked)
    IsIrqMasked                              0x0800378d   Thumb Code    24  rtx_thread.o(i.IsIrqMasked)
    i.IsIrqMode                              0x080037a4   Section        0  rtx_delay.o(i.IsIrqMode)
    IsIrqMode                                0x080037a5   Thumb Code    16  rtx_delay.o(i.IsIrqMode)
    i.IsIrqMode                              0x080037b4   Section        0  rtx_kernel.o(i.IsIrqMode)
    IsIrqMode                                0x080037b5   Thumb Code    16  rtx_kernel.o(i.IsIrqMode)
    i.IsIrqMode                              0x080037c4   Section        0  rtx_msgqueue.o(i.IsIrqMode)
    IsIrqMode                                0x080037c5   Thumb Code    16  rtx_msgqueue.o(i.IsIrqMode)
    i.IsIrqMode                              0x080037d4   Section        0  rtx_mutex.o(i.IsIrqMode)
    IsIrqMode                                0x080037d5   Thumb Code    16  rtx_mutex.o(i.IsIrqMode)
    i.IsIrqMode                              0x080037e4   Section        0  rtx_thread.o(i.IsIrqMode)
    IsIrqMode                                0x080037e5   Thumb Code    16  rtx_thread.o(i.IsIrqMode)
    i.IsPrivileged                           0x080037f4   Section        0  rtx_kernel.o(i.IsPrivileged)
    IsPrivileged                             0x080037f5   Thumb Code    16  rtx_kernel.o(i.IsPrivileged)
    i.Kain                                   0x08003804   Section        0  nohau_demo.o(i.Kain)
    i.LED_GetCount                           0x08003832   Section        0  led_756g_eval.o(i.LED_GetCount)
    i.LED_Initialize                         0x08003838   Section        0  led_756g_eval.o(i.LED_Initialize)
    i.LED_Off                                0x080038b4   Section        0  led_756g_eval.o(i.LED_Off)
    i.LED_On                                 0x080038e0   Section        0  led_756g_eval.o(i.LED_On)
    i.LeafOfJulia                            0x0800390c   Section        0  nohau_demo.o(i.LeafOfJulia)
    i.LinkedListBlancFunction                0x08003b7c   Section        0  nohau_demo.o(i.LinkedListBlancFunction)
    i.LinkedListInitFunction                 0x08003bbe   Section        0  nohau_demo.o(i.LinkedListInitFunction)
    i.Linker                                 0x08003c00   Section        0  nohau_demo.o(i.Linker)
    i.LoadFractMem                           0x08003c80   Section        0  nohau_demo.o(i.LoadFractMem)
    i.MemBlockPtr                            0x08003fd4   Section        0  rtx_memory.o(i.MemBlockPtr)
    MemBlockPtr                              0x08003fd5   Thumb Code    10  rtx_memory.o(i.MemBlockPtr)
    i.MessageQueueGet                        0x08003fde   Section        0  rtx_msgqueue.o(i.MessageQueueGet)
    MessageQueueGet                          0x08003fdf   Thumb Code    52  rtx_msgqueue.o(i.MessageQueueGet)
    i.MessageQueuePut                        0x08004012   Section        0  rtx_msgqueue.o(i.MessageQueuePut)
    MessageQueuePut                          0x08004013   Thumb Code    76  rtx_msgqueue.o(i.MessageQueuePut)
    i.MessageQueueRemove                     0x0800405e   Section        0  rtx_msgqueue.o(i.MessageQueueRemove)
    MessageQueueRemove                       0x0800405f   Thumb Code    34  rtx_msgqueue.o(i.MessageQueueRemove)
    i.Morgoth                                0x08004080   Section        0  nohau_demo.o(i.Morgoth)
    i.OS_Tick_AcknowledgeIRQ                 0x0800415c   Section        0  os_systick.o(i.OS_Tick_AcknowledgeIRQ)
    i.OS_Tick_Enable                         0x08004164   Section        0  os_systick.o(i.OS_Tick_Enable)
    i.OS_Tick_GetIRQn                        0x08004194   Section        0  os_systick.o(i.OS_Tick_GetIRQn)
    i.OS_Tick_Setup                          0x0800419c   Section        0  os_systick.o(i.OS_Tick_Setup)
    i.Partition                              0x080041ec   Section        0  nohau_demo.o(i.Partition)
    i.RecurcePower                           0x08004234   Section        0  nohau_demo.o(i.RecurcePower)
    i.SCB_EnableDCache                       0x08004290   Section        0  main.o(i.SCB_EnableDCache)
    SCB_EnableDCache                         0x08004291   Thumb Code   148  main.o(i.SCB_EnableDCache)
    i.SCB_EnableICache                       0x0800432c   Section        0  main.o(i.SCB_EnableICache)
    SCB_EnableICache                         0x0800432d   Thumb Code   116  main.o(i.SCB_EnableICache)
    i.Sorter                                 0x080043a8   Section        0  nohau_demo.o(i.Sorter)
    i.SpeedTrouble                           0x080043d8   Section        0  nohau_demo.o(i.SpeedTrouble)
    i.StructHandler                          0x08004468   Section        0  nohau_demo.o(i.StructHandler)
    i.StructHandlerAnotherMem                0x08004598   Section        0  nohau_demo.o(i.StructHandlerAnotherMem)
    i.SwapStructNameFault                    0x080046c8   Section        0  nohau_demo.o(i.SwapStructNameFault)
    i.SystemClock_Config                     0x080046f0   Section        0  main.o(i.SystemClock_Config)
    SystemClock_Config                       0x080046f1   Thumb Code   106  main.o(i.SystemClock_Config)
    i.SystemCoreClockUpdate                  0x0800475c   Section        0  system_stm32f7xx.o(i.SystemCoreClockUpdate)
    i.SystemInit                             0x0800481c   Section        0  system_stm32f7xx.o(i.SystemInit)
    i.ThreadFlagsCheck                       0x08004880   Section        0  rtx_thread.o(i.ThreadFlagsCheck)
    ThreadFlagsCheck                         0x08004881   Thumb Code    86  rtx_thread.o(i.ThreadFlagsCheck)
    i.ThreadFlagsSet                         0x080048d6   Section        0  rtx_thread.o(i.ThreadFlagsSet)
    ThreadFlagsSet                           0x080048d7   Thumb Code    22  rtx_thread.o(i.ThreadFlagsSet)
    i.Thread_ADC                             0x080048ec   Section        0  blinky.o(i.Thread_ADC)
    Thread_ADC                               0x080048ed   Thumb Code    34  blinky.o(i.Thread_ADC)
    i.TimerInsert                            0x08004914   Section        0  rtx_timer.o(i.TimerInsert)
    TimerInsert                              0x08004915   Thumb Code    58  rtx_timer.o(i.TimerInsert)
    i.TimerUnlink                            0x08004954   Section        0  rtx_timer.o(i.TimerUnlink)
    TimerUnlink                              0x08004955   Thumb Code    18  rtx_timer.o(i.TimerUnlink)
    i.Trigo                                  0x0800496c   Section        0  nohau_demo.o(i.Trigo)
    i.Virtual                                0x08004cc4   Section        0  nohau_demo.o(i.Virtual)
    i.WaveFormer                             0x08004cdc   Section        0  nohau_demo.o(i.WaveFormer)
    i.Wotan                                  0x08004ecc   Section        0  nohau_demo.o(i.Wotan)
    i.WriteMemDest                           0x0800506c   Section        0  nohau_demo.o(i.WriteMemDest)
    i.WriteMemWrite                          0x080050e0   Section        0  nohau_demo.o(i.WriteMemWrite)
    i.XEchoes                                0x08005154   Section        0  nohau_demo.o(i.XEchoes)
    XEchoes                                  0x08005155   Thumb Code    60  nohau_demo.o(i.XEchoes)
    i.__ARM_fpclassify                       0x08005198   Section        0  fpclassify.o(i.__ARM_fpclassify)
    i.__NVIC_GetPriorityGrouping             0x080051c8   Section        0  stm32f7xx_hal_cortex.o(i.__NVIC_GetPriorityGrouping)
    __NVIC_GetPriorityGrouping               0x080051c9   Thumb Code    10  stm32f7xx_hal_cortex.o(i.__NVIC_GetPriorityGrouping)
    i.__NVIC_SetPriority                     0x080051d8   Section        0  stm32f7xx_hal_cortex.o(i.__NVIC_SetPriority)
    __NVIC_SetPriority                       0x080051d9   Thumb Code    32  stm32f7xx_hal_cortex.o(i.__NVIC_SetPriority)
    i.__hardfp_atan                          0x08005200   Section        0  atan.o(i.__hardfp_atan)
    i.__hardfp_cos                           0x080054d8   Section        0  cos.o(i.__hardfp_cos)
    i.__hardfp_sin                           0x080055a0   Section        0  sin.o(i.__hardfp_sin)
    i.__hardfp_tan                           0x08005668   Section        0  tan.o(i.__hardfp_tan)
    i.__ieee754_rem_pio2                     0x080056e8   Section        0  rred.o(i.__ieee754_rem_pio2)
    i.__kernel_cos                           0x08005b20   Section        0  cos_i.o(i.__kernel_cos)
    i.__kernel_poly                          0x08005c90   Section        0  poly.o(i.__kernel_poly)
    i.__kernel_sin                           0x08005d88   Section        0  sin_i.o(i.__kernel_sin)
    i.__kernel_tan                           0x08005eb8   Section        0  tan_i.o(i.__kernel_tan)
    i.__mathlib_dbl_infnan                   0x08006208   Section        0  dunder.o(i.__mathlib_dbl_infnan)
    i.__mathlib_dbl_invalid                  0x08006220   Section        0  dunder.o(i.__mathlib_dbl_invalid)
    i.__mathlib_dbl_underflow                0x08006240   Section        0  dunder.o(i.__mathlib_dbl_underflow)
    i.__user_perthread_libspace              0x08006260   Section        0  rtx_lib.o(i.__user_perthread_libspace)
    i._mutex_acquire                         0x080062b8   Section        0  rtx_lib.o(i._mutex_acquire)
    __tagsym$$used                           0x080062b9   Number         0  rtx_lib.o(i._mutex_acquire)
    i._mutex_free                            0x080062ce   Section        0  rtx_lib.o(i._mutex_free)
    __tagsym$$used                           0x080062cf   Number         0  rtx_lib.o(i._mutex_free)
    i._mutex_initialize                      0x080062da   Section        0  rtx_lib.o(i._mutex_initialize)
    __tagsym$$used                           0x080062db   Number         0  rtx_lib.o(i._mutex_initialize)
    i._mutex_release                         0x080062fc   Section        0  rtx_lib.o(i._mutex_release)
    __tagsym$$used                           0x080062fd   Number         0  rtx_lib.o(i._mutex_release)
    i._platform_post_stackheap_init          0x0800630e   Section        0  rtx_lib.o(i._platform_post_stackheap_init)
    i.app_main                               0x08006318   Section        0  blinky.o(i.app_main)
    i.crc16_ccitt                            0x080063a4   Section        0  eventrecorder.o(i.crc16_ccitt)
    crc16_ccitt                              0x080063a5   Thumb Code    66  eventrecorder.o(i.crc16_ccitt)
    i.eaddr                                  0x080063e8   Section        0  vsprintf.o(i.eaddr)
    eaddr                                    0x080063e9   Thumb Code   176  vsprintf.o(i.eaddr)
    i.fabs                                   0x080064a0   Section        0  fabs.o(i.fabs)
    i.iaddr                                  0x080064b8   Section        0  vsprintf.o(i.iaddr)
    iaddr                                    0x080064b9   Thumb Code   286  vsprintf.o(i.iaddr)
    i.isrRtxMessageQueueGet                  0x080065dc   Section        0  rtx_msgqueue.o(i.isrRtxMessageQueueGet)
    isrRtxMessageQueueGet                    0x080065dd   Thumb Code   130  rtx_msgqueue.o(i.isrRtxMessageQueueGet)
    i.isrRtxMessageQueuePut                  0x0800665e   Section        0  rtx_msgqueue.o(i.isrRtxMessageQueuePut)
    isrRtxMessageQueuePut                    0x0800665f   Thumb Code   134  rtx_msgqueue.o(i.isrRtxMessageQueuePut)
    i.isrRtxThreadFlagsSet                   0x080066e4   Section        0  rtx_thread.o(i.isrRtxThreadFlagsSet)
    isrRtxThreadFlagsSet                     0x080066e5   Thumb Code   100  rtx_thread.o(i.isrRtxThreadFlagsSet)
    i.isr_queue_get                          0x08006748   Section        0  rtx_system.o(i.isr_queue_get)
    isr_queue_get                            0x08006749   Thumb Code    46  rtx_system.o(i.isr_queue_get)
    i.isr_queue_put                          0x0800677c   Section        0  rtx_system.o(i.isr_queue_put)
    isr_queue_put                            0x0800677d   Thumb Code    56  rtx_system.o(i.isr_queue_put)
    i.itm_enable                             0x080067b8   Section        0  nohau_demo.o(i.itm_enable)
    i.main                                   0x080067d0   Section        0  main.o(i.main)
    i.nohau_demo                             0x08006808   Section        0  nohau_demo.o(i.nohau_demo)
    i.number                                 0x08006a28   Section        0  vsprintf.o(i.number)
    number                                   0x08006a29   Thumb Code   344  vsprintf.o(i.number)
    i.osDelay                                0x08006b88   Section        0  rtx_delay.o(i.osDelay)
    i.osKernelGetState                       0x08006bc4   Section        0  rtx_kernel.o(i.osKernelGetState)
    i.osKernelGetTickCount                   0x08006bf4   Section        0  rtx_kernel.o(i.osKernelGetTickCount)
    i.osKernelInitialize                     0x08006c20   Section        0  rtx_kernel.o(i.osKernelInitialize)
    i.osKernelStart                          0x08006c58   Section        0  rtx_kernel.o(i.osKernelStart)
    i.osMessageQueueGet                      0x08006c8c   Section        0  rtx_msgqueue.o(i.osMessageQueueGet)
    i.osMessageQueueNew                      0x08006ce0   Section        0  rtx_msgqueue.o(i.osMessageQueueNew)
    i.osMessageQueuePut                      0x08006d2c   Section        0  rtx_msgqueue.o(i.osMessageQueuePut)
    i.osMutexAcquire                         0x08006d80   Section        0  rtx_mutex.o(i.osMutexAcquire)
    i.osMutexDelete                          0x08006dc4   Section        0  rtx_mutex.o(i.osMutexDelete)
    i.osMutexNew                             0x08006e00   Section        0  rtx_mutex.o(i.osMutexNew)
    i.osMutexRelease                         0x08006e3c   Section        0  rtx_mutex.o(i.osMutexRelease)
    i.osRtxErrorNotify                       0x08006e78   Section        0  rtx_config.o(i.osRtxErrorNotify)
    i.osRtxIdleThread                        0x08006e98   Section        0  rtx_config.o(i.osRtxIdleThread)
    i.osRtxKernelGetState                    0x08006ea0   Section        0  rtx_thread.o(i.osRtxKernelGetState)
    osRtxKernelGetState                      0x08006ea1   Thumb Code     6  rtx_thread.o(i.osRtxKernelGetState)
    i.osRtxKernelPreInit                     0x08006eac   Section        0  rtx_lib.o(i.osRtxKernelPreInit)
    i.osRtxMemoryAlloc                       0x08006eae   Section        0  rtx_memory.o(i.osRtxMemoryAlloc)
    i.osRtxMemoryFree                        0x08006f9c   Section        0  rtx_memory.o(i.osRtxMemoryFree)
    i.osRtxMemoryInit                        0x08007018   Section        0  rtx_memory.o(i.osRtxMemoryInit)
    i.osRtxMemoryPoolAlloc                   0x08007082   Section        0  rtx_mempool.o(i.osRtxMemoryPoolAlloc)
    i.osRtxMemoryPoolFree                    0x080070b2   Section        0  rtx_mempool.o(i.osRtxMemoryPoolFree)
    i.osRtxMemoryPoolInit                    0x080070f6   Section        0  rtx_mempool.o(i.osRtxMemoryPoolInit)
    i.osRtxMessageQueuePostProcess           0x0800714e   Section        0  rtx_msgqueue.o(i.osRtxMessageQueuePostProcess)
    osRtxMessageQueuePostProcess             0x0800714f   Thumb Code   272  rtx_msgqueue.o(i.osRtxMessageQueuePostProcess)
    i.osRtxMutexOwnerRelease                 0x0800725e   Section        0  rtx_mutex.o(i.osRtxMutexOwnerRelease)
    i.osRtxPendSV_Handler                    0x080072bc   Section        0  rtx_system.o(i.osRtxPendSV_Handler)
    i.osRtxPostProcess                       0x08007340   Section        0  rtx_system.o(i.osRtxPostProcess)
    i.osRtxThreadBlock                       0x0800737c   Section        0  rtx_thread.o(i.osRtxThreadBlock)
    osRtxThreadBlock                         0x0800737d   Thumb Code    58  rtx_thread.o(i.osRtxThreadBlock)
    i.osRtxThreadDelayInsert                 0x080073bc   Section        0  rtx_thread.o(i.osRtxThreadDelayInsert)
    osRtxThreadDelayInsert                   0x080073bd   Thumb Code    98  rtx_thread.o(i.osRtxThreadDelayInsert)
    i.osRtxThreadDelayRemove                 0x08007424   Section        0  rtx_thread.o(i.osRtxThreadDelayRemove)
    osRtxThreadDelayRemove                   0x08007425   Thumb Code   110  rtx_thread.o(i.osRtxThreadDelayRemove)
    i.osRtxThreadDelayTick                   0x08007498   Section        0  rtx_thread.o(i.osRtxThreadDelayTick)
    i.osRtxThreadDispatch                    0x08007574   Section        0  rtx_thread.o(i.osRtxThreadDispatch)
    i.osRtxThreadFree                        0x080075e4   Section        0  rtx_thread.o(i.osRtxThreadFree)
    osRtxThreadFree                          0x080075e5   Thumb Code    94  rtx_thread.o(i.osRtxThreadFree)
    i.osRtxThreadGetRunning                  0x08007648   Section        0  rtx_thread.o(i.osRtxThreadGetRunning)
    osRtxThreadGetRunning                    0x08007649   Thumb Code     6  rtx_thread.o(i.osRtxThreadGetRunning)
    i.osRtxThreadListGet                     0x08007654   Section        0  rtx_thread.o(i.osRtxThreadListGet)
    i.osRtxThreadListPut                     0x08007670   Section        0  rtx_thread.o(i.osRtxThreadListPut)
    i.osRtxThreadListRemove                  0x080076a2   Section        0  rtx_thread.o(i.osRtxThreadListRemove)
    i.osRtxThreadListRoot                    0x080076bc   Section        0  rtx_thread.o(i.osRtxThreadListRoot)
    osRtxThreadListRoot                      0x080076bd   Thumb Code    18  rtx_thread.o(i.osRtxThreadListRoot)
    i.osRtxThreadListSort                    0x080076ce   Section        0  rtx_thread.o(i.osRtxThreadListSort)
    i.osRtxThreadPostProcess                 0x080076f8   Section        0  rtx_thread.o(i.osRtxThreadPostProcess)
    osRtxThreadPostProcess                   0x080076f9   Thumb Code    50  rtx_thread.o(i.osRtxThreadPostProcess)
    i.osRtxThreadReadyPut                    0x0800772c   Section        0  rtx_thread.o(i.osRtxThreadReadyPut)
    i.osRtxThreadRegPtr                      0x08007744   Section        0  rtx_thread.o(i.osRtxThreadRegPtr)
    i.osRtxThreadSetRunning                  0x0800775c   Section        0  rtx_thread.o(i.osRtxThreadSetRunning)
    osRtxThreadSetRunning                    0x0800775d   Thumb Code     6  rtx_thread.o(i.osRtxThreadSetRunning)
    i.osRtxThreadStackCheck                  0x08007768   Section        0  rtx_thread.o(i.osRtxThreadStackCheck)
    i.osRtxThreadStartup                     0x08007794   Section        0  rtx_thread.o(i.osRtxThreadStartup)
    i.osRtxThreadSwitch                      0x080077f4   Section        0  rtx_thread.o(i.osRtxThreadSwitch)
    i.osRtxThreadWaitEnter                   0x08007810   Section        0  rtx_thread.o(i.osRtxThreadWaitEnter)
    i.osRtxThreadWaitExit                    0x08007864   Section        0  rtx_thread.o(i.osRtxThreadWaitExit)
    i.osRtxTick_Handler                      0x0800789c   Section        0  rtx_system.o(i.osRtxTick_Handler)
    i.osRtxTimerThread                       0x0800793c   Section        0  rtx_timer.o(i.osRtxTimerThread)
    i.osRtxTimerTick                         0x08007994   Section        0  rtx_timer.o(i.osRtxTimerTick)
    osRtxTimerTick                           0x08007995   Thumb Code    88  rtx_timer.o(i.osRtxTimerTick)
    i.osThreadExit                           0x080079f0   Section        0  rtx_thread.o(i.osThreadExit)
    i.osThreadFlagsSet                       0x08007a10   Section        0  rtx_thread.o(i.osThreadFlagsSet)
    i.osThreadFlagsWait                      0x08007a50   Section        0  rtx_thread.o(i.osThreadFlagsWait)
    i.osThreadGetId                          0x08007a9c   Section        0  rtx_thread.o(i.osThreadGetId)
    i.osThreadNew                            0x08007ac8   Section        0  rtx_thread.o(i.osThreadNew)
    i.os_kernel_is_active                    0x08007b14   Section        0  rtx_lib.o(i.os_kernel_is_active)
    os_kernel_is_active                      0x08007b15   Thumb Code    28  rtx_lib.o(i.os_kernel_is_active)
    i.skip_atoi                              0x08007b34   Section        0  vsprintf.o(i.skip_atoi)
    skip_atoi                                0x08007b35   Thumb Code    44  vsprintf.o(i.skip_atoi)
    i.strnlen                                0x08007b60   Section        0  vsprintf.o(i.strnlen)
    strnlen                                  0x08007b61   Thumb Code    28  vsprintf.o(i.strnlen)
    i.svcRtxDelay                            0x08007b7c   Section        0  rtx_delay.o(i.svcRtxDelay)
    svcRtxDelay                              0x08007b7d   Thumb Code    24  rtx_delay.o(i.svcRtxDelay)
    i.svcRtxKernelGetState                   0x08007b94   Section        0  rtx_kernel.o(i.svcRtxKernelGetState)
    svcRtxKernelGetState                     0x08007b95   Thumb Code    20  rtx_kernel.o(i.svcRtxKernelGetState)
    i.svcRtxKernelGetTickCount               0x08007bac   Section        0  rtx_kernel.o(i.svcRtxKernelGetTickCount)
    svcRtxKernelGetTickCount                 0x08007bad   Thumb Code    16  rtx_kernel.o(i.svcRtxKernelGetTickCount)
    i.svcRtxKernelInitialize                 0x08007bc0   Section        0  rtx_kernel.o(i.svcRtxKernelInitialize)
    svcRtxKernelInitialize                   0x08007bc1   Thumb Code   602  rtx_kernel.o(i.svcRtxKernelInitialize)
    i.svcRtxKernelStart                      0x08007e24   Section        0  rtx_kernel.o(i.svcRtxKernelStart)
    svcRtxKernelStart                        0x08007e25   Thumb Code   216  rtx_kernel.o(i.svcRtxKernelStart)
    i.svcRtxMessageQueueGet                  0x08007f0c   Section        0  rtx_msgqueue.o(i.svcRtxMessageQueueGet)
    svcRtxMessageQueueGet                    0x08007f0d   Thumb Code   316  rtx_msgqueue.o(i.svcRtxMessageQueueGet)
    i.svcRtxMessageQueueNew                  0x0800804c   Section        0  rtx_msgqueue.o(i.svcRtxMessageQueueNew)
    svcRtxMessageQueueNew                    0x0800804d   Thumb Code   396  rtx_msgqueue.o(i.svcRtxMessageQueueNew)
    i.svcRtxMessageQueuePut                  0x080081e0   Section        0  rtx_msgqueue.o(i.svcRtxMessageQueuePut)
    svcRtxMessageQueuePut                    0x080081e1   Thumb Code   292  rtx_msgqueue.o(i.svcRtxMessageQueuePut)
    i.svcRtxMutexAcquire                     0x08008308   Section        0  rtx_mutex.o(i.svcRtxMutexAcquire)
    svcRtxMutexAcquire                       0x08008309   Thumb Code   264  rtx_mutex.o(i.svcRtxMutexAcquire)
    i.svcRtxMutexDelete                      0x08008414   Section        0  rtx_mutex.o(i.svcRtxMutexDelete)
    svcRtxMutexDelete                        0x08008415   Thumb Code   230  rtx_mutex.o(i.svcRtxMutexDelete)
    i.svcRtxMutexNew                         0x08008500   Section        0  rtx_mutex.o(i.svcRtxMutexNew)
    svcRtxMutexNew                           0x08008501   Thumb Code   168  rtx_mutex.o(i.svcRtxMutexNew)
    i.svcRtxMutexRelease                     0x080085ac   Section        0  rtx_mutex.o(i.svcRtxMutexRelease)
    svcRtxMutexRelease                       0x080085ad   Thumb Code   260  rtx_mutex.o(i.svcRtxMutexRelease)
    i.svcRtxThreadExit                       0x080086b4   Section        0  rtx_thread.o(i.svcRtxThreadExit)
    svcRtxThreadExit                         0x080086b5   Thumb Code   142  rtx_thread.o(i.svcRtxThreadExit)
    i.svcRtxThreadFlagsSet                   0x08008748   Section        0  rtx_thread.o(i.svcRtxThreadFlagsSet)
    svcRtxThreadFlagsSet                     0x08008749   Thumb Code   152  rtx_thread.o(i.svcRtxThreadFlagsSet)
    i.svcRtxThreadFlagsWait                  0x080087e0   Section        0  rtx_thread.o(i.svcRtxThreadFlagsWait)
    svcRtxThreadFlagsWait                    0x080087e1   Thumb Code   142  rtx_thread.o(i.svcRtxThreadFlagsWait)
    i.svcRtxThreadGetId                      0x0800886e   Section        0  rtx_thread.o(i.svcRtxThreadGetId)
    svcRtxThreadGetId                        0x0800886f   Thumb Code    18  rtx_thread.o(i.svcRtxThreadGetId)
    i.svcRtxThreadNew                        0x08008880   Section        0  rtx_thread.o(i.svcRtxThreadNew)
    svcRtxThreadNew                          0x08008881   Thumb Code   610  rtx_thread.o(i.svcRtxThreadNew)
    i.thrBUT                                 0x08008af8   Section        0  blinky.o(i.thrBUT)
    thrBUT                                   0x08008af9   Thumb Code    46  blinky.o(i.thrBUT)
    i.thrLED                                 0x08008b30   Section        0  blinky.o(i.thrLED)
    thrLED                                   0x08008b31   Thumb Code    58  blinky.o(i.thrLED)
    i.vsprintf                               0x08008b6c   Section        0  vsprintf.o(i.vsprintf)
    x$fpl$basic                              0x08008eb4   Section       24  basic.o(x$fpl$basic)
    $v0                                      0x08008eb4   Number         0  basic.o(x$fpl$basic)
    x$fpl$d2f                                0x08008ecc   Section       98  d2f.o(x$fpl$d2f)
    $v0                                      0x08008ecc   Number         0  d2f.o(x$fpl$d2f)
    x$fpl$dadd                               0x08008f30   Section      336  daddsub_clz.o(x$fpl$dadd)
    $v0                                      0x08008f30   Number         0  daddsub_clz.o(x$fpl$dadd)
    _dadd1                                   0x08008f41   Thumb Code     0  daddsub_clz.o(x$fpl$dadd)
    x$fpl$dcmpinf                            0x08009080   Section       24  dcmpi.o(x$fpl$dcmpinf)
    $v0                                      0x08009080   Number         0  dcmpi.o(x$fpl$dcmpinf)
    x$fpl$ddiv                               0x08009098   Section      688  ddiv.o(x$fpl$ddiv)
    $v0                                      0x08009098   Number         0  ddiv.o(x$fpl$ddiv)
    ddiv_entry                               0x0800909f   Thumb Code     0  ddiv.o(x$fpl$ddiv)
    x$fpl$dfix                               0x08009348   Section       94  dfix.o(x$fpl$dfix)
    $v0                                      0x08009348   Number         0  dfix.o(x$fpl$dfix)
    x$fpl$dflt                               0x080093a6   Section       46  dflt_clz.o(x$fpl$dflt)
    $v0                                      0x080093a6   Number         0  dflt_clz.o(x$fpl$dflt)
    x$fpl$dfltu                              0x080093d4   Section       38  dflt_clz.o(x$fpl$dfltu)
    $v0                                      0x080093d4   Number         0  dflt_clz.o(x$fpl$dfltu)
    x$fpl$dleqf                              0x080093fc   Section      120  dleqf.o(x$fpl$dleqf)
    $v0                                      0x080093fc   Number         0  dleqf.o(x$fpl$dleqf)
    x$fpl$dmul                               0x08009474   Section      340  dmul.o(x$fpl$dmul)
    $v0                                      0x08009474   Number         0  dmul.o(x$fpl$dmul)
    x$fpl$dnaninf                            0x080095c8   Section      156  dnaninf.o(x$fpl$dnaninf)
    $v0                                      0x080095c8   Number         0  dnaninf.o(x$fpl$dnaninf)
    x$fpl$dretinf                            0x08009664   Section       12  dretinf.o(x$fpl$dretinf)
    $v0                                      0x08009664   Number         0  dretinf.o(x$fpl$dretinf)
    x$fpl$drleqf                             0x08009670   Section      108  drleqf.o(x$fpl$drleqf)
    $v0                                      0x08009670   Number         0  drleqf.o(x$fpl$drleqf)
    x$fpl$drsb                               0x080096dc   Section       22  daddsub_clz.o(x$fpl$drsb)
    $v0                                      0x080096dc   Number         0  daddsub_clz.o(x$fpl$drsb)
    x$fpl$dsub                               0x080096f4   Section      468  daddsub_clz.o(x$fpl$dsub)
    $v0                                      0x080096f4   Number         0  daddsub_clz.o(x$fpl$dsub)
    _dsub1                                   0x08009705   Thumb Code     0  daddsub_clz.o(x$fpl$dsub)
    x$fpl$f2d                                0x080098c8   Section       86  f2d.o(x$fpl$f2d)
    $v0                                      0x080098c8   Number         0  f2d.o(x$fpl$f2d)
    x$fpl$fnaninf                            0x0800991e   Section      140  fnaninf.o(x$fpl$fnaninf)
    $v0                                      0x0800991e   Number         0  fnaninf.o(x$fpl$fnaninf)
    x$fpl$fpinit                             0x080099aa   Section       10  fpinit.o(x$fpl$fpinit)
    $v0                                      0x080099aa   Number         0  fpinit.o(x$fpl$fpinit)
    x$fpl$fretinf                            0x080099b4   Section       10  fretinf.o(x$fpl$fretinf)
    $v0                                      0x080099b4   Number         0  fretinf.o(x$fpl$fretinf)
    x$fpl$usenofp                            0x080099be   Section        0  usenofp.o(x$fpl$usenofp)
    .constdata                               0x080099c0   Section      180  blinky.o(.constdata)
    .constdata                               0x08009a74   Section       16  led_756g_eval.o(.constdata)
    LED_PIN                                  0x08009a74   Data          16  led_756g_eval.o(.constdata)
    .constdata                               0x08009a84   Section        1  irq_cm4f.o(.constdata)
    .constdata                               0x08009a88   Section      100  rtx_lib.o(.constdata)
    os_idle_thread_attr                      0x08009a88   Data          36  rtx_lib.o(.constdata)
    os_timer_thread_attr                     0x08009aac   Data          36  rtx_lib.o(.constdata)
    os_timer_mq_attr                         0x08009ad0   Data          24  rtx_lib.o(.constdata)
    .constdata                               0x08009aec   Section       24  eventrecorder.o(.constdata)
    __tagsym$$used                           0x08009aec   Number         0  eventrecorder.o(.constdata)
    .constdata                               0x08009b04   Section       24  system_stm32f7xx.o(.constdata)
    .constdata                               0x08009b20   Section      152  atan.o(.constdata)
    atanhi                                   0x08009b20   Data          32  atan.o(.constdata)
    atanlo                                   0x08009b40   Data          32  atan.o(.constdata)
    aTodd                                    0x08009b60   Data          40  atan.o(.constdata)
    aTeven                                   0x08009b88   Data          48  atan.o(.constdata)
    .constdata                               0x08009bb8   Section       48  cos_i.o(.constdata)
    C                                        0x08009bb8   Data          48  cos_i.o(.constdata)
    .constdata                               0x08009be8   Section      200  rred.o(.constdata)
    pio2s                                    0x08009be8   Data          48  rred.o(.constdata)
    twooverpi                                0x08009c18   Data         152  rred.o(.constdata)
    .constdata                               0x08009cb0   Section       40  sin_i.o(.constdata)
    S                                        0x08009cb0   Data          40  sin_i.o(.constdata)
    .constdata                               0x08009cd8   Section       96  tan_i.o(.constdata)
    Todd                                     0x08009cd8   Data          48  tan_i.o(.constdata)
    Teven                                    0x08009d08   Data          48  tan_i.o(.constdata)
    .conststring                             0x08009d38   Section       39  blinky.o(.conststring)
    .conststring                             0x08009d60   Section       77  vsprintf.o(.conststring)
    .conststring                             0x08009db0   Section       14  rtx_lib.o(.conststring)
    .conststrlit                             0x08009dc0   Section       11  rtx_kernel.o(.conststrlit)
    .rodata                                  0x08009dcc   Section      104  rtx_lib.o(.rodata)
    __tagsym$$used                           0x08009dcc   Number         0  rtx_lib.o(.rodata)
    .bss.noinit                              0x20010000   Section     1188  eventrecorder.o(.bss.noinit)
    EventBuffer                              0x20010000   Data        1024  eventrecorder.o(.bss.noinit)
    EventFilter                              0x20010400   Data         128  eventrecorder.o(.bss.noinit)
    EventStatus                              0x20010480   Data          36  eventrecorder.o(.bss.noinit)
    .bss.os                                  0x20011000   Section     4160  rtx_lib.o(.bss.os)
    os_mem                                   0x20011000   Data        4096  rtx_lib.o(.bss.os)
    os_isr_queue                             0x20012000   Data          64  rtx_lib.o(.bss.os)
    .bss.os.libspace                         0x20012040   Section      496  rtx_lib.o(.bss.os.libspace)
    os_libspace                              0x20012040   Data         480  rtx_lib.o(.bss.os.libspace)
    os_libspace_id                           0x20012220   Data          16  rtx_lib.o(.bss.os.libspace)
    .bss.os.msgqueue.cb                      0x20012230   Section       52  rtx_lib.o(.bss.os.msgqueue.cb)
    os_timer_mq_cb                           0x20012230   Data          52  rtx_lib.o(.bss.os.msgqueue.cb)
    .bss.os.msgqueue.mem                     0x20012264   Section       80  rtx_lib.o(.bss.os.msgqueue.mem)
    os_timer_mq_data                         0x20012264   Data          80  rtx_lib.o(.bss.os.msgqueue.mem)
    .bss.os.thread.cb                        0x200122b4   Section      136  rtx_lib.o(.bss.os.thread.cb)
    os_idle_thread_cb                        0x200122b4   Data          68  rtx_lib.o(.bss.os.thread.cb)
    os_timer_thread_cb                       0x200122f8   Data          68  rtx_lib.o(.bss.os.thread.cb)
    .bss.os.thread.stack                     0x20012340   Section      512  rtx_lib.o(.bss.os.thread.stack)
    os_idle_thread_stack                     0x20012340   Data         256  rtx_lib.o(.bss.os.thread.stack)
    os_timer_thread_stack                    0x20012440   Data         256  rtx_lib.o(.bss.os.thread.stack)
    .data                                    0x20012540   Section        4  main.o(.data)
    ticks                                    0x20012540   Data           4  main.o(.data)
    .data                                    0x20012544   Section       12  blinky.o(.data)
    tid_thrLED                               0x20012548   Data           4  blinky.o(.data)
    tid_thrBUT                               0x2001254c   Data           4  blinky.o(.data)
    .data                                    0x20012550   Section      188  nohau_demo.o(.data)
    StopPrimer                               0x20012568   Data           4  nohau_demo.o(.data)
    StartPrimer                              0x2001256c   Data           4  nohau_demo.o(.data)
    fact                                     0x20012570   Data           4  nohau_demo.o(.data)
    IdentifyMe3                              0x20012574   Data          21  nohau_demo.o(.data)
    IdentifyMe2                              0x20012589   Data          20  nohau_demo.o(.data)
    IdentifyMe1                              0x2001259d   Data          23  nohau_demo.o(.data)
    IdentifyMe4                              0x200125b4   Data          28  nohau_demo.o(.data)
    IdentifyMeClean                          0x200125d0   Data          16  nohau_demo.o(.data)
    g_itmBase                                0x200125f4   Data           4  nohau_demo.o(.data)
    ITM_BASE                                 0x200125f8   Data           4  nohau_demo.o(.data)
    ITM_TRACEEN                              0x200125fc   Data           4  nohau_demo.o(.data)
    SW                                       0x20012600   Data           4  nohau_demo.o(.data)
    idum2                                    0x20012604   Data           4  nohau_demo.o(.data)
    iy                                       0x20012608   Data           4  nohau_demo.o(.data)
    .data                                    0x2001260c   Section        8  vsprintf.o(.data)
    digits                                   0x2001260c   Data           4  vsprintf.o(.data)
    upper_digits                             0x20012610   Data           4  vsprintf.o(.data)
    .data                                    0x20012614   Section        1  adc_756g_eval.o(.data)
    AD_done                                  0x20012614   Data           1  adc_756g_eval.o(.data)
    .data                                    0x20012618   Section        5  rtx_lib.o(.data)
    os_kernel_active                         0x2001261c   Data           1  rtx_lib.o(.data)
    .data                                    0x2001261d   Section        1  os_systick.o(.data)
    PendST                                   0x2001261d   Data           1  os_systick.o(.data)
    .data                                    0x20012620   Section        9  stm32f7xx_hal.o(.data)
    .data                                    0x2001262c   Section        4  system_stm32f7xx.o(.data)
    .data.os                                 0x20012630   Section      164  rtx_kernel.o(.data.os)
    .bss                                     0x200126d8   Section     5120  blinky.o(.bss)
    .bss                                     0x20013ad8   Section    34768  nohau_demo.o(.bss)
    FractArr                                 0x20013ad8   Data         400  nohau_demo.o(.bss)
    Statter                                  0x20013c7c   Data          56  nohau_demo.o(.bss)
    SingArr                                  0x20013cb4   Data         400  nohau_demo.o(.bss)
    Primer                                   0x20013e44   Data          52  nohau_demo.o(.bss)
    NohauMatrix                              0x20013e78   Data         400  nohau_demo.o(.bss)
    LeafArr                                  0x20014008   Data       20000  nohau_demo.o(.bss)
    FloatArr                                 0x20018e28   Data         400  nohau_demo.o(.bss)
    FrecArr1                                 0x20018fb8   Data        1648  nohau_demo.o(.bss)
    FrecArr2                                 0x20019628   Data        1648  nohau_demo.o(.bss)
    FrecArr3                                 0x20019c98   Data        1648  nohau_demo.o(.bss)
    NSM                                      0x2001a8c8   Data        3248  nohau_demo.o(.bss)
    StatterNSM                               0x2001b578   Data        3248  nohau_demo.o(.bss)
    iv                                       0x2001c228   Data         128  nohau_demo.o(.bss)
    .bss                                     0x2001c2a8   Section       72  adc_756g_eval.o(.bss)
    hadc3                                    0x2001c2a8   Data          72  adc_756g_eval.o(.bss)
    .bss                                     0x2001c2f0   Section       96  libspace.o(.bss)
    HEAP                                     0x2001c350   Section      512  startup_stm32f756xx.o(HEAP)
    Heap_Mem                                 0x2001c350   Data         512  startup_stm32f756xx.o(HEAP)
    STACK                                    0x2001c550   Section     1024  startup_stm32f756xx.o(STACK)
    Stack_Mem                                0x2001c550   Data        1024  startup_stm32f756xx.o(STACK)
    __initial_sp                             0x2001c950   Data           0  startup_stm32f756xx.o(STACK)

    Global Symbols

    Symbol Name                              Value     Ov Type        Size  Object(Section)

    BuildAttributes$$THM_ISAv4$E$P$D$K$B$S$7EM$VFPi5$EXTD16$VFPS$VFMA$PE$PLD8$A:L22UL41UL21$X:L11$S22US41US21$IEEE1$IW$USESV6$~STKCKD$USESV7$~SHL$OTIME$ROPI$IEEEX$EBA8$UX$STANDARDLIB$REQ8$PRES8$EABIv2 0x00000000   Number         0  anon$$obj.o ABSOLUTE
    __ARM_use_no_argv                        0x00000000   Number         0  main.o ABSOLUTE
    .bss.os.evflags.cb$$Base                  - Undefined Weak Reference
    .bss.os.evflags.cb$$Limit                 - Undefined Weak Reference
    .bss.os.mempool.cb$$Base                  - Undefined Weak Reference
    .bss.os.mempool.cb$$Limit                 - Undefined Weak Reference
    .bss.os.mutex.cb$$Base                    - Undefined Weak Reference
    .bss.os.mutex.cb$$Limit                   - Undefined Weak Reference
    .bss.os.semaphore.cb$$Base                - Undefined Weak Reference
    .bss.os.semaphore.cb$$Limit               - Undefined Weak Reference
    .bss.os.timer.cb$$Base                    - Undefined Weak Reference
    .bss.os.timer.cb$$Limit                   - Undefined Weak Reference
    __ARM_exceptions_init                     - Undefined Weak Reference
    __alloca_initialize                       - Undefined Weak Reference
    __arm_preinit_                            - Undefined Weak Reference
    __cpp_initialize__aeabi_                  - Undefined Weak Reference
    __cxa_finalize                            - Undefined Weak Reference
    __rt_locale                               - Undefined Weak Reference
    __sigvec_lookup                           - Undefined Weak Reference
    __user_heap_extent                        - Undefined Weak Reference
    _atexit_init                              - Undefined Weak Reference
    _call_atexit_fns                          - Undefined Weak Reference
    _clock_init                               - Undefined Weak Reference
    _fp_trap_init                             - Undefined Weak Reference
    _fp_trap_shutdown                         - Undefined Weak Reference
    _get_lc_collate                           - Undefined Weak Reference
    _get_lc_ctype                             - Undefined Weak Reference
    _get_lc_monetary                          - Undefined Weak Reference
    _get_lc_numeric                           - Undefined Weak Reference
    _get_lc_time                              - Undefined Weak Reference
    _getenv_init                              - Undefined Weak Reference
    _handle_redirection                       - Undefined Weak Reference
    _printf_post_padding                      - Undefined Weak Reference
    _printf_pre_padding                       - Undefined Weak Reference
    _printf_truncate_signed                   - Undefined Weak Reference
    _printf_truncate_unsigned                 - Undefined Weak Reference
    _signal_finish                            - Undefined Weak Reference
    _signal_init                              - Undefined Weak Reference
    __Vectors_Size                           0x000001c8   Number         0  startup_stm32f756xx.o ABSOLUTE
    __Vectors                                0x08000000   Data           4  startup_stm32f756xx.o(RESET)
    __Vectors_End                            0x080001c8   Data           0  startup_stm32f756xx.o(RESET)
    __main                                   0x080001c9   Thumb Code     8  __main.o(!!!main)
    __scatterload                            0x080001d1   Thumb Code     0  __scatter.o(!!!scatter)
    __scatterload_rt2                        0x080001d1   Thumb Code    44  __scatter.o(!!!scatter)
    __scatterload_rt2_thumb_only             0x080001d1   Thumb Code     0  __scatter.o(!!!scatter)
    __scatterload_null                       0x080001df   Thumb Code     0  __scatter.o(!!!scatter)
    __decompress                             0x08000205   Thumb Code    90  __dczerorl2.o(!!dczerorl2)
    __decompress1                            0x08000205   Thumb Code     0  __dczerorl2.o(!!dczerorl2)
    __scatterload_zeroinit                   0x08000261   Thumb Code    28  __scatter_zi.o(!!handler_zi)
    __rt_lib_init                            0x0800027d   Thumb Code     0  libinit.o(.ARM.Collect$$libinit$$00000000)
    __rt_lib_init_fp_1                       0x0800027f   Thumb Code     0  libinit2.o(.ARM.Collect$$libinit$$00000001)
    __rt_lib_init_heap_2                     0x08000283   Thumb Code     0  libinit2.o(.ARM.Collect$$libinit$$00000005)
    __rt_lib_init_preinit_1                  0x08000283   Thumb Code     0  libinit2.o(.ARM.Collect$$libinit$$00000004)
    __rt_lib_init_alloca_1                   0x0800028b   Thumb Code     0  libinit2.o(.ARM.Collect$$libinit$$0000002E)
    __rt_lib_init_argv_1                     0x0800028b   Thumb Code     0  libinit2.o(.ARM.Collect$$libinit$$0000002C)
    __rt_lib_init_atexit_1                   0x0800028b   Thumb Code     0  libinit2.o(.ARM.Collect$$libinit$$0000001B)
    __rt_lib_init_clock_1                    0x0800028b   Thumb Code     0  libinit2.o(.ARM.Collect$$libinit$$00000021)
    __rt_lib_init_cpp_1                      0x0800028b   Thumb Code     0  libinit2.o(.ARM.Collect$$libinit$$00000032)
    __rt_lib_init_exceptions_1               0x0800028b   Thumb Code     0  libinit2.o(.ARM.Collect$$libinit$$00000030)
    __rt_lib_init_fp_trap_1                  0x0800028b   Thumb Code     0  libinit2.o(.ARM.Collect$$libinit$$0000001F)
    __rt_lib_init_getenv_1                   0x0800028b   Thumb Code     0  libinit2.o(.ARM.Collect$$libinit$$00000023)
    __rt_lib_init_heap_1                     0x0800028b   Thumb Code     0  libinit2.o(.ARM.Collect$$libinit$$0000000A)
    __rt_lib_init_lc_collate_1               0x0800028b   Thumb Code     0  libinit2.o(.ARM.Collect$$libinit$$00000011)
    __rt_lib_init_lc_ctype_1                 0x0800028b   Thumb Code     0  libinit2.o(.ARM.Collect$$libinit$$00000013)
    __rt_lib_init_lc_monetary_1              0x0800028b   Thumb Code     0  libinit2.o(.ARM.Collect$$libinit$$00000015)
    __rt_lib_init_lc_numeric_1               0x0800028b   Thumb Code     0  libinit2.o(.ARM.Collect$$libinit$$00000017)
    __rt_lib_init_lc_time_1                  0x0800028b   Thumb Code     0  libinit2.o(.ARM.Collect$$libinit$$00000019)
    __rt_lib_init_rand_1                     0x0800028b   Thumb Code     0  libinit2.o(.ARM.Collect$$libinit$$0000000E)
    __rt_lib_init_return                     0x0800028b   Thumb Code     0  libinit2.o(.ARM.Collect$$libinit$$00000033)
    __rt_lib_init_signal_1                   0x0800028b   Thumb Code     0  libinit2.o(.ARM.Collect$$libinit$$0000001D)
    __rt_lib_init_stdio_1                    0x0800028b   Thumb Code     0  libinit2.o(.ARM.Collect$$libinit$$00000025)
    __rt_lib_init_user_alloc_1               0x0800028b   Thumb Code     0  libinit2.o(.ARM.Collect$$libinit$$0000000C)
    __rt_lib_shutdown                        0x0800028d   Thumb Code     0  libshutdown.o(.ARM.Collect$$libshutdown$$00000000)
    __rt_lib_shutdown_cpp_1                  0x0800028f   Thumb Code     0  libshutdown2.o(.ARM.Collect$$libshutdown$$00000002)
    __rt_lib_shutdown_fp_trap_1              0x0800028f   Thumb Code     0  libshutdown2.o(.ARM.Collect$$libshutdown$$00000007)
    __rt_lib_shutdown_heap_2                 0x0800028f   Thumb Code     0  libshutdown2.o(.ARM.Collect$$libshutdown$$0000000D)
    __rt_lib_shutdown_signal_1               0x0800028f   Thumb Code     0  libshutdown2.o(.ARM.Collect$$libshutdown$$0000000A)
    __rt_lib_shutdown_stdio_1                0x0800028f   Thumb Code     0  libshutdown2.o(.ARM.Collect$$libshutdown$$00000004)
    __rt_lib_shutdown_user_alloc_1           0x0800028f   Thumb Code     0  libshutdown2.o(.ARM.Collect$$libshutdown$$0000000C)
    __rt_lib_shutdown_heap_1                 0x08000293   Thumb Code     0  libshutdown2.o(.ARM.Collect$$libshutdown$$0000000F)
    __rt_lib_shutdown_return                 0x08000293   Thumb Code     0  libshutdown2.o(.ARM.Collect$$libshutdown$$00000010)
    __rt_entry                               0x08000295   Thumb Code     0  __rtentry.o(.ARM.Collect$$rtentry$$00000000)
    __rt_entry_presh_1                       0x08000295   Thumb Code     0  __rtentry2.o(.ARM.Collect$$rtentry$$00000002)
    __rt_entry_sh                            0x08000295   Thumb Code     0  __rtentry4.o(.ARM.Collect$$rtentry$$00000004)
    __rt_entry_postsh_1                      0x0800029b   Thumb Code     0  __rtentry2.o(.ARM.Collect$$rtentry$$00000008)
    __rt_entry_li                            0x080002a3   Thumb Code     0  __rtentry2.o(.ARM.Collect$$rtentry$$0000000A)
    __rt_entry_main                          0x080002a7   Thumb Code     0  __rtentry2.o(.ARM.Collect$$rtentry$$0000000D)
    __rt_entry_postli_1                      0x080002a7   Thumb Code     0  __rtentry2.o(.ARM.Collect$$rtentry$$0000000C)
    __rt_exit                                0x080002af   Thumb Code     0  rtexit.o(.ARM.Collect$$rtexit$$00000000)
    __rt_exit_ls                             0x080002b1   Thumb Code     0  rtexit2.o(.ARM.Collect$$rtexit$$00000003)
    __rt_exit_prels_1                        0x080002b1   Thumb Code     0  rtexit2.o(.ARM.Collect$$rtexit$$00000002)
    __rt_exit_exit                           0x080002b5   Thumb Code     0  rtexit2.o(.ARM.Collect$$rtexit$$00000004)
    __asm___13_rtx_mempool_c_7914b4c7__atomic_wr8 0x080002bd   Thumb Code    16  rtx_mempool.o(.emb_text)
    __asm___13_rtx_mempool_c_7914b4c7__atomic_set32 0x080002cd   Thumb Code    20  rtx_mempool.o(.emb_text)
    __asm___13_rtx_mempool_c_7914b4c7__atomic_clr32 0x080002e1   Thumb Code    22  rtx_mempool.o(.emb_text)
    __asm___13_rtx_mempool_c_7914b4c7__atomic_chk32_all 0x080002f7   Thumb Code    38  rtx_mempool.o(.emb_text)
    __asm___13_rtx_mempool_c_7914b4c7__atomic_chk32_any 0x0800031d   Thumb Code    34  rtx_mempool.o(.emb_text)
    __asm___13_rtx_mempool_c_7914b4c7__atomic_inc32 0x0800033f   Thumb Code    18  rtx_mempool.o(.emb_text)
    __asm___13_rtx_mempool_c_7914b4c7__atomic_inc16_lt 0x08000351   Thumb Code    30  rtx_mempool.o(.emb_text)
    __asm___13_rtx_mempool_c_7914b4c7__atomic_inc16_lim 0x0800036f   Thumb Code    26  rtx_mempool.o(.emb_text)
    __asm___13_rtx_mempool_c_7914b4c7__atomic_dec32 0x08000389   Thumb Code    18  rtx_mempool.o(.emb_text)
    __asm___13_rtx_mempool_c_7914b4c7__atomic_dec32_nz 0x0800039b   Thumb Code    26  rtx_mempool.o(.emb_text)
    __asm___13_rtx_mempool_c_7914b4c7__atomic_dec16_nz 0x080003b5   Thumb Code    26  rtx_mempool.o(.emb_text)
    __asm___13_rtx_mempool_c_7914b4c7__atomic_link_get 0x080003cf   Thumb Code    26  rtx_mempool.o(.emb_text)
    __asm___13_rtx_mempool_c_7914b4c7__atomic_link_put 0x080003e9   Thumb Code    28  rtx_mempool.o(.emb_text)
    __asm___14_rtx_msgqueue_c_ba128ae8__atomic_wr8 0x08000405   Thumb Code    16  rtx_msgqueue.o(.emb_text)
    __asm___14_rtx_msgqueue_c_ba128ae8__atomic_set32 0x08000415   Thumb Code    20  rtx_msgqueue.o(.emb_text)
    __asm___14_rtx_msgqueue_c_ba128ae8__atomic_clr32 0x08000429   Thumb Code    22  rtx_msgqueue.o(.emb_text)
    __asm___14_rtx_msgqueue_c_ba128ae8__atomic_chk32_all 0x0800043f   Thumb Code    38  rtx_msgqueue.o(.emb_text)
    __asm___14_rtx_msgqueue_c_ba128ae8__atomic_chk32_any 0x08000465   Thumb Code    34  rtx_msgqueue.o(.emb_text)
    __asm___14_rtx_msgqueue_c_ba128ae8__atomic_inc32 0x08000487   Thumb Code    18  rtx_msgqueue.o(.emb_text)
    __asm___14_rtx_msgqueue_c_ba128ae8__atomic_inc16_lt 0x08000499   Thumb Code    30  rtx_msgqueue.o(.emb_text)
    __asm___14_rtx_msgqueue_c_ba128ae8__atomic_inc16_lim 0x080004b7   Thumb Code    26  rtx_msgqueue.o(.emb_text)
    __asm___14_rtx_msgqueue_c_ba128ae8__atomic_dec32 0x080004d1   Thumb Code    18  rtx_msgqueue.o(.emb_text)
    __asm___14_rtx_msgqueue_c_ba128ae8__atomic_dec32_nz 0x080004e3   Thumb Code    26  rtx_msgqueue.o(.emb_text)
    __asm___14_rtx_msgqueue_c_ba128ae8__atomic_dec16_nz 0x080004fd   Thumb Code    26  rtx_msgqueue.o(.emb_text)
    __asm___14_rtx_msgqueue_c_ba128ae8__atomic_link_get 0x08000517   Thumb Code    26  rtx_msgqueue.o(.emb_text)
    __asm___14_rtx_msgqueue_c_ba128ae8__atomic_link_put 0x08000531   Thumb Code    28  rtx_msgqueue.o(.emb_text)
    __asm___12_rtx_system_c_024f2f18__atomic_wr8 0x0800054d   Thumb Code    16  rtx_system.o(.emb_text)
    __asm___12_rtx_system_c_024f2f18__atomic_set32 0x0800055d   Thumb Code    20  rtx_system.o(.emb_text)
    __asm___12_rtx_system_c_024f2f18__atomic_clr32 0x08000571   Thumb Code    22  rtx_system.o(.emb_text)
    __asm___12_rtx_system_c_024f2f18__atomic_chk32_all 0x08000587   Thumb Code    38  rtx_system.o(.emb_text)
    __asm___12_rtx_system_c_024f2f18__atomic_chk32_any 0x080005ad   Thumb Code    34  rtx_system.o(.emb_text)
    __asm___12_rtx_system_c_024f2f18__atomic_inc32 0x080005cf   Thumb Code    18  rtx_system.o(.emb_text)
    __asm___12_rtx_system_c_024f2f18__atomic_inc16_lt 0x080005e1   Thumb Code    30  rtx_system.o(.emb_text)
    __asm___12_rtx_system_c_024f2f18__atomic_inc16_lim 0x080005ff   Thumb Code    26  rtx_system.o(.emb_text)
    __asm___12_rtx_system_c_024f2f18__atomic_dec32 0x08000619   Thumb Code    18  rtx_system.o(.emb_text)
    __asm___12_rtx_system_c_024f2f18__atomic_dec32_nz 0x0800062b   Thumb Code    26  rtx_system.o(.emb_text)
    __asm___12_rtx_system_c_024f2f18__atomic_dec16_nz 0x08000645   Thumb Code    26  rtx_system.o(.emb_text)
    __asm___12_rtx_system_c_024f2f18__atomic_link_get 0x0800065f   Thumb Code    26  rtx_system.o(.emb_text)
    __asm___12_rtx_system_c_024f2f18__atomic_link_put 0x08000679   Thumb Code    28  rtx_system.o(.emb_text)
    __asm___12_rtx_thread_c_add96be5__atomic_wr8 0x08000695   Thumb Code    16  rtx_thread.o(.emb_text)
    __asm___12_rtx_thread_c_add96be5__atomic_set32 0x080006a5   Thumb Code    20  rtx_thread.o(.emb_text)
    __asm___12_rtx_thread_c_add96be5__atomic_clr32 0x080006b9   Thumb Code    22  rtx_thread.o(.emb_text)
    __asm___12_rtx_thread_c_add96be5__atomic_chk32_all 0x080006cf   Thumb Code    38  rtx_thread.o(.emb_text)
    __asm___12_rtx_thread_c_add96be5__atomic_chk32_any 0x080006f5   Thumb Code    34  rtx_thread.o(.emb_text)
    __asm___12_rtx_thread_c_add96be5__atomic_inc32 0x08000717   Thumb Code    18  rtx_thread.o(.emb_text)
    __asm___12_rtx_thread_c_add96be5__atomic_inc16_lt 0x08000729   Thumb Code    30  rtx_thread.o(.emb_text)
    __asm___12_rtx_thread_c_add96be5__atomic_inc16_lim 0x08000747   Thumb Code    26  rtx_thread.o(.emb_text)
    __asm___12_rtx_thread_c_add96be5__atomic_dec32 0x08000761   Thumb Code    18  rtx_thread.o(.emb_text)
    __asm___12_rtx_thread_c_add96be5__atomic_dec32_nz 0x08000773   Thumb Code    26  rtx_thread.o(.emb_text)
    __asm___12_rtx_thread_c_add96be5__atomic_dec16_nz 0x0800078d   Thumb Code    26  rtx_thread.o(.emb_text)
    __asm___12_rtx_thread_c_add96be5__atomic_link_get 0x080007a7   Thumb Code    26  rtx_thread.o(.emb_text)
    __asm___12_rtx_thread_c_add96be5__atomic_link_put 0x080007c1   Thumb Code    28  rtx_thread.o(.emb_text)
    __asm___15_EventRecorder_c_e8d3082c__atomic_inc8 0x080007dd   Thumb Code    18  eventrecorder.o(.emb_text)
    __asm___15_EventRecorder_c_e8d3082c__atomic_inc32 0x080007ef   Thumb Code    18  eventrecorder.o(.emb_text)
    __asm___15_EventRecorder_c_e8d3082c__atomic_xch32 0x08000801   Thumb Code    16  eventrecorder.o(.emb_text)
    __asm___15_EventRecorder_c_e8d3082c__LockRecord 0x08000811   Thumb Code    34  eventrecorder.o(.emb_text)
    __asm___15_EventRecorder_c_e8d3082c__UnlockRecord 0x08000833   Thumb Code    30  eventrecorder.o(.emb_text)
    SVC_Handler                              0x08000851   Thumb Code   152  irq_cm4f.o(.text)
    _maybe_terminate_alloc                   0x08000851   Thumb Code     0  maybetermalloc2.o(.emb_text)
    PendSV_Handler                           0x080008e9   Thumb Code    16  irq_cm4f.o(.text)
    SysTick_Handler                          0x080008f9   Thumb Code    16  irq_cm4f.o(.text)
    Reset_Handler                            0x08000915   Thumb Code     8  startup_stm32f756xx.o(.text)
    NMI_Handler                              0x0800091d   Thumb Code     2  startup_stm32f756xx.o(.text)
    HardFault_Handler                        0x0800091f   Thumb Code     2  startup_stm32f756xx.o(.text)
    MemManage_Handler                        0x08000921   Thumb Code     2  startup_stm32f756xx.o(.text)
    BusFault_Handler                         0x08000923   Thumb Code     2  startup_stm32f756xx.o(.text)
    UsageFault_Handler                       0x08000925   Thumb Code     2  startup_stm32f756xx.o(.text)
    DebugMon_Handler                         0x08000929   Thumb Code     2  startup_stm32f756xx.o(.text)
    ADC_IRQHandler                           0x0800092f   Thumb Code     0  startup_stm32f756xx.o(.text)
    CAN1_RX0_IRQHandler                      0x0800092f   Thumb Code     0  startup_stm32f756xx.o(.text)
    CAN1_RX1_IRQHandler                      0x0800092f   Thumb Code     0  startup_stm32f756xx.o(.text)
    CAN1_SCE_IRQHandler                      0x0800092f   Thumb Code     0  startup_stm32f756xx.o(.text)
    CAN1_TX_IRQHandler                       0x0800092f   Thumb Code     0  startup_stm32f756xx.o(.text)
    CAN2_RX0_IRQHandler                      0x0800092f   Thumb Code     0  startup_stm32f756xx.o(.text)
    CAN2_RX1_IRQHandler                      0x0800092f   Thumb Code     0  startup_stm32f756xx.o(.text)
    CAN2_SCE_IRQHandler                      0x0800092f   Thumb Code     0  startup_stm32f756xx.o(.text)
    CAN2_TX_IRQHandler                       0x0800092f   Thumb Code     0  startup_stm32f756xx.o(.text)
    CEC_IRQHandler                           0x0800092f   Thumb Code     0  startup_stm32f756xx.o(.text)
    CRYP_IRQHandler                          0x0800092f   Thumb Code     0  startup_stm32f756xx.o(.text)
    DCMI_IRQHandler                          0x0800092f   Thumb Code     0  startup_stm32f756xx.o(.text)
    DMA1_Stream0_IRQHandler                  0x0800092f   Thumb Code     0  startup_stm32f756xx.o(.text)
    DMA1_Stream1_IRQHandler                  0x0800092f   Thumb Code     0  startup_stm32f756xx.o(.text)
    DMA1_Stream2_IRQHandler                  0x0800092f   Thumb Code     0  startup_stm32f756xx.o(.text)
    DMA1_Stream3_IRQHandler                  0x0800092f   Thumb Code     0  startup_stm32f756xx.o(.text)
    DMA1_Stream4_IRQHandler                  0x0800092f   Thumb Code     0  startup_stm32f756xx.o(.text)
    DMA1_Stream5_IRQHandler                  0x0800092f   Thumb Code     0  startup_stm32f756xx.o(.text)
    DMA1_Stream6_IRQHandler                  0x0800092f   Thumb Code     0  startup_stm32f756xx.o(.text)
    DMA1_Stream7_IRQHandler                  0x0800092f   Thumb Code     0  startup_stm32f756xx.o(.text)
    DMA2D_IRQHandler                         0x0800092f   Thumb Code     0  startup_stm32f756xx.o(.text)
    DMA2_Stream0_IRQHandler                  0x0800092f   Thumb Code     0  startup_stm32f756xx.o(.text)
    DMA2_Stream1_IRQHandler                  0x0800092f   Thumb Code     0  startup_stm32f756xx.o(.text)
    DMA2_Stream2_IRQHandler                  0x0800092f   Thumb Code     0  startup_stm32f756xx.o(.text)
    DMA2_Stream3_IRQHandler                  0x0800092f   Thumb Code     0  startup_stm32f756xx.o(.text)
    DMA2_Stream4_IRQHandler                  0x0800092f   Thumb Code     0  startup_stm32f756xx.o(.text)
    DMA2_Stream5_IRQHandler                  0x0800092f   Thumb Code     0  startup_stm32f756xx.o(.text)
    DMA2_Stream6_IRQHandler                  0x0800092f   Thumb Code     0  startup_stm32f756xx.o(.text)
    DMA2_Stream7_IRQHandler                  0x0800092f   Thumb Code     0  startup_stm32f756xx.o(.text)
    ETH_IRQHandler                           0x0800092f   Thumb Code     0  startup_stm32f756xx.o(.text)
    ETH_WKUP_IRQHandler                      0x0800092f   Thumb Code     0  startup_stm32f756xx.o(.text)
    EXTI0_IRQHandler                         0x0800092f   Thumb Code     0  startup_stm32f756xx.o(.text)
    EXTI15_10_IRQHandler                     0x0800092f   Thumb Code     0  startup_stm32f756xx.o(.text)
    EXTI1_IRQHandler                         0x0800092f   Thumb Code     0  startup_stm32f756xx.o(.text)
    EXTI2_IRQHandler                         0x0800092f   Thumb Code     0  startup_stm32f756xx.o(.text)
    EXTI3_IRQHandler                         0x0800092f   Thumb Code     0  startup_stm32f756xx.o(.text)
    EXTI4_IRQHandler                         0x0800092f   Thumb Code     0  startup_stm32f756xx.o(.text)
    EXTI9_5_IRQHandler                       0x0800092f   Thumb Code     0  startup_stm32f756xx.o(.text)
    FLASH_IRQHandler                         0x0800092f   Thumb Code     0  startup_stm32f756xx.o(.text)
    FMC_IRQHandler                           0x0800092f   Thumb Code     0  startup_stm32f756xx.o(.text)
    FPU_IRQHandler                           0x0800092f   Thumb Code     0  startup_stm32f756xx.o(.text)
    HASH_RNG_IRQHandler                      0x0800092f   Thumb Code     0  startup_stm32f756xx.o(.text)
    I2C1_ER_IRQHandler                       0x0800092f   Thumb Code     0  startup_stm32f756xx.o(.text)
    I2C1_EV_IRQHandler                       0x0800092f   Thumb Code     0  startup_stm32f756xx.o(.text)
    I2C2_ER_IRQHandler                       0x0800092f   Thumb Code     0  startup_stm32f756xx.o(.text)
    I2C2_EV_IRQHandler                       0x0800092f   Thumb Code     0  startup_stm32f756xx.o(.text)
    I2C3_ER_IRQHandler                       0x0800092f   Thumb Code     0  startup_stm32f756xx.o(.text)
    I2C3_EV_IRQHandler                       0x0800092f   Thumb Code     0  startup_stm32f756xx.o(.text)
    I2C4_ER_IRQHandler                       0x0800092f   Thumb Code     0  startup_stm32f756xx.o(.text)
    I2C4_EV_IRQHandler                       0x0800092f   Thumb Code     0  startup_stm32f756xx.o(.text)
    LPTIM1_IRQHandler                        0x0800092f   Thumb Code     0  startup_stm32f756xx.o(.text)
    LTDC_ER_IRQHandler                       0x0800092f   Thumb Code     0  startup_stm32f756xx.o(.text)
    LTDC_IRQHandler                          0x0800092f   Thumb Code     0  startup_stm32f756xx.o(.text)
    OTG_FS_IRQHandler                        0x0800092f   Thumb Code     0  startup_stm32f756xx.o(.text)
    OTG_FS_WKUP_IRQHandler                   0x0800092f   Thumb Code     0  startup_stm32f756xx.o(.text)
    OTG_HS_EP1_IN_IRQHandler                 0x0800092f   Thumb Code     0  startup_stm32f756xx.o(.text)
    OTG_HS_EP1_OUT_IRQHandler                0x0800092f   Thumb Code     0  startup_stm32f756xx.o(.text)
    OTG_HS_IRQHandler                        0x0800092f   Thumb Code     0  startup_stm32f756xx.o(.text)
    OTG_HS_WKUP_IRQHandler                   0x0800092f   Thumb Code     0  startup_stm32f756xx.o(.text)
    PVD_IRQHandler                           0x0800092f   Thumb Code     0  startup_stm32f756xx.o(.text)
    QUADSPI_IRQHandler                       0x0800092f   Thumb Code     0  startup_stm32f756xx.o(.text)
    RCC_IRQHandler                           0x0800092f   Thumb Code     0  startup_stm32f756xx.o(.text)
    RTC_Alarm_IRQHandler                     0x0800092f   Thumb Code     0  startup_stm32f756xx.o(.text)
    RTC_WKUP_IRQHandler                      0x0800092f   Thumb Code     0  startup_stm32f756xx.o(.text)
    SAI1_IRQHandler                          0x0800092f   Thumb Code     0  startup_stm32f756xx.o(.text)
    SAI2_IRQHandler                          0x0800092f   Thumb Code     0  startup_stm32f756xx.o(.text)
    SDMMC1_IRQHandler                        0x0800092f   Thumb Code     0  startup_stm32f756xx.o(.text)
    SPDIF_RX_IRQHandler                      0x0800092f   Thumb Code     0  startup_stm32f756xx.o(.text)
    SPI1_IRQHandler                          0x0800092f   Thumb Code     0  startup_stm32f756xx.o(.text)
    SPI2_IRQHandler                          0x0800092f   Thumb Code     0  startup_stm32f756xx.o(.text)
    SPI3_IRQHandler                          0x0800092f   Thumb Code     0  startup_stm32f756xx.o(.text)
    SPI4_IRQHandler                          0x0800092f   Thumb Code     0  startup_stm32f756xx.o(.text)
    SPI5_IRQHandler                          0x0800092f   Thumb Code     0  startup_stm32f756xx.o(.text)
    SPI6_IRQHandler                          0x0800092f   Thumb Code     0  startup_stm32f756xx.o(.text)
    TAMP_STAMP_IRQHandler                    0x0800092f   Thumb Code     0  startup_stm32f756xx.o(.text)
    TIM1_BRK_TIM9_IRQHandler                 0x0800092f   Thumb Code     0  startup_stm32f756xx.o(.text)
    TIM1_CC_IRQHandler                       0x0800092f   Thumb Code     0  startup_stm32f756xx.o(.text)
    TIM1_TRG_COM_TIM11_IRQHandler            0x0800092f   Thumb Code     0  startup_stm32f756xx.o(.text)
    TIM1_UP_TIM10_IRQHandler                 0x0800092f   Thumb Code     0  startup_stm32f756xx.o(.text)
    TIM2_IRQHandler                          0x0800092f   Thumb Code     0  startup_stm32f756xx.o(.text)
    TIM3_IRQHandler                          0x0800092f   Thumb Code     0  startup_stm32f756xx.o(.text)
    TIM4_IRQHandler                          0x0800092f   Thumb Code     0  startup_stm32f756xx.o(.text)
    TIM5_IRQHandler                          0x0800092f   Thumb Code     0  startup_stm32f756xx.o(.text)
    TIM6_DAC_IRQHandler                      0x0800092f   Thumb Code     0  startup_stm32f756xx.o(.text)
    TIM7_IRQHandler                          0x0800092f   Thumb Code     0  startup_stm32f756xx.o(.text)
    TIM8_BRK_TIM12_IRQHandler                0x0800092f   Thumb Code     0  startup_stm32f756xx.o(.text)
    TIM8_CC_IRQHandler                       0x0800092f   Thumb Code     0  startup_stm32f756xx.o(.text)
    TIM8_TRG_COM_TIM14_IRQHandler            0x0800092f   Thumb Code     0  startup_stm32f756xx.o(.text)
    TIM8_UP_TIM13_IRQHandler                 0x0800092f   Thumb Code     0  startup_stm32f756xx.o(.text)
    UART4_IRQHandler                         0x0800092f   Thumb Code     0  startup_stm32f756xx.o(.text)
    UART5_IRQHandler                         0x0800092f   Thumb Code     0  startup_stm32f756xx.o(.text)
    UART7_IRQHandler                         0x0800092f   Thumb Code     0  startup_stm32f756xx.o(.text)
    UART8_IRQHandler                         0x0800092f   Thumb Code     0  startup_stm32f756xx.o(.text)
    USART1_IRQHandler                        0x0800092f   Thumb Code     0  startup_stm32f756xx.o(.text)
    USART2_IRQHandler                        0x0800092f   Thumb Code     0  startup_stm32f756xx.o(.text)
    USART3_IRQHandler                        0x0800092f   Thumb Code     0  startup_stm32f756xx.o(.text)
    USART6_IRQHandler                        0x0800092f   Thumb Code     0  startup_stm32f756xx.o(.text)
    WWDG_IRQHandler                          0x0800092f   Thumb Code     0  startup_stm32f756xx.o(.text)
    __user_initial_stackheap                 0x08000931   Thumb Code     0  startup_stm32f756xx.o(.text)
    _malloc_internal                         0x0800095d   Thumb Code   130  h1_alloc_mt.o(.text)
    malloc                                   0x080009df   Thumb Code    20  h1_alloc_mt.o(.text)
    _free_internal                           0x080009f3   Thumb Code    98  h1_free_mt.o(.text)
    free                                     0x08000a55   Thumb Code    20  h1_free_mt.o(.text)
    __aeabi_uldivmod                         0x08000a69   Thumb Code     0  lludivv7m.o(.text)
    _ll_udiv                                 0x08000a69   Thumb Code   238  lludivv7m.o(.text)
    __aeabi_memcpy                           0x08000b57   Thumb Code     0  rt_memcpy_v6.o(.text)
    __rt_memcpy                              0x08000b57   Thumb Code   138  rt_memcpy_v6.o(.text)
    _memcpy_lastbytes                        0x08000bbd   Thumb Code     0  rt_memcpy_v6.o(.text)
    __aeabi_memcpy4                          0x08000be1   Thumb Code     0  rt_memcpy_w.o(.text)
    __aeabi_memcpy8                          0x08000be1   Thumb Code     0  rt_memcpy_w.o(.text)
    __rt_memcpy_w                            0x08000be1   Thumb Code   100  rt_memcpy_w.o(.text)
    _memcpy_lastbytes_aligned                0x08000c29   Thumb Code     0  rt_memcpy_w.o(.text)
    __aeabi_memclr                           0x08000c45   Thumb Code     0  rt_memclr.o(.text)
    __rt_memclr                              0x08000c45   Thumb Code    68  rt_memclr.o(.text)
    _memset                                  0x08000c49   Thumb Code     0  rt_memclr.o(.text)
    __aeabi_memclr4                          0x08000c89   Thumb Code     0  rt_memclr_w.o(.text)
    __aeabi_memclr8                          0x08000c89   Thumb Code     0  rt_memclr_w.o(.text)
    __rt_memclr_w                            0x08000c89   Thumb Code    78  rt_memclr_w.o(.text)
    _memset_w                                0x08000c8d   Thumb Code     0  rt_memclr_w.o(.text)
    __use_two_region_memory                  0x08000cd7   Thumb Code     2  heapauxi.o(.text)
    __rt_heap_escrow                         0x08000cd9   Thumb Code     2  heapauxi.o(.text)
    __rt_heap_expand                         0x08000cdb   Thumb Code     2  heapauxi.o(.text)
    __rt_heap_descriptor                     0x08000cdd   Thumb Code    10  rt_heap_descriptor_twolibspace.o(.text)
    __use_no_heap                            0x08000ce7   Thumb Code     2  hguard.o(.text)
    __heap$guard                             0x08000ce9   Thumb Code     2  hguard.o(.text)
    _terminate_user_alloc                    0x08000ceb   Thumb Code     2  init_alloc.o(.text)
    _init_user_alloc                         0x08000ced   Thumb Code     2  init_alloc.o(.text)
    __Heap_Full                              0x08000cef   Thumb Code    34  init_alloc.o(.text)
    __Heap_Broken                            0x08000d11   Thumb Code     6  init_alloc.o(.text)
    _init_alloc                              0x08000d17   Thumb Code    94  init_alloc.o(.text)
    __Heap_Initialize                        0x08000d75   Thumb Code    14  h1_init_mt.o(.text)
    __Heap_DescSize                          0x08000d83   Thumb Code     4  h1_init_mt.o(.text)
    __read_errno                             0x08000d87   Thumb Code    10  _rserrno.o(.text)
    __set_errno                              0x08000d91   Thumb Code    12  _rserrno.o(.text)
    __user_libspace                          0x08000d9d   Thumb Code     8  libspace.o(.text)
    __user_perproc_libspace                  0x08000d9d   Thumb Code     0  libspace.o(.text)
    __aeabi_errno_addr                       0x08000da5   Thumb Code     4  rt_errno_addr_twolibspace.o(.text)
    __errno$twolibspace                      0x08000da5   Thumb Code     0  rt_errno_addr_twolibspace.o(.text)
    __rt_errno_addr$twolibspace              0x08000da5   Thumb Code     0  rt_errno_addr_twolibspace.o(.text)
    __Heap_ProvideMemory                     0x08000da9   Thumb Code    62  h1_extend_mt.o(.text)
    __rt_SIGRTMEM                            0x08000de7   Thumb Code    14  defsig_rtmem_outer.o(.text)
    __I$use$semihosting                      0x08000df5   Thumb Code     0  use_no_semi.o(.text)
    __use_no_semihosting_swi                 0x08000df5   Thumb Code     2  use_no_semi.o(.text)
    __semihosting_library_function           0x08000df7   Thumb Code     0  indicate_semi.o(.text)
    __user_setup_stackheap                   0x08000df7   Thumb Code    74  sys_stackheap_outer.o(.text)
    _terminate_alloc                         0x08000e41   Thumb Code    16  term_alloc.o(.text)
    exit                                     0x08000e51   Thumb Code    18  exit.o(.text)
    __sig_exit                               0x08000e63   Thumb Code    10  defsig_exit.o(.text)
    __rt_SIGRTMEM_inner                      0x08000e6d   Thumb Code    22  defsig_rtmem_inner.o(.text)
    _sys_exit                                0x08000ebd   Thumb Code     8  sys_exit.o(.text)
    __Heap_Finalize                          0x08000ec9   Thumb Code    10  h1_final_mt.o(.text)
    __default_signal_display                 0x08000ed3   Thumb Code    50  defsig_general.o(.text)
    _ttywrch                                 0x08000f05   Thumb Code    14  sys_wrch.o(.text)
    ADC_ConversionDone                       0x08000f15   Thumb Code    34  adc_756g_eval.o(i.ADC_ConversionDone)
    ADC_GetValue                             0x08000f41   Thumb Code    40  adc_756g_eval.o(i.ADC_GetValue)
    ADC_Initialize                           0x080010dd   Thumb Code   164  adc_756g_eval.o(i.ADC_Initialize)
    ADC_StartConversion                      0x08001195   Thumb Code    26  adc_756g_eval.o(i.ADC_StartConversion)
    BigSmall                                 0x080011b9   Thumb Code    62  nohau_demo.o(i.BigSmall)
    BlancStructHandler                       0x080011f9   Thumb Code   190  nohau_demo.o(i.BlancStructHandler)
    BlankFractMem                            0x080012bd   Thumb Code    22  nohau_demo.o(i.BlankFractMem)
    Buttons_GetCount                         0x080012d9   Thumb Code     4  buttons_756g_eval.o(i.Buttons_GetCount)
    Buttons_GetState                         0x080012dd   Thumb Code    26  buttons_756g_eval.o(i.Buttons_GetState)
    Buttons_Initialize                       0x080012fd   Thumb Code    58  buttons_756g_eval.o(i.Buttons_Initialize)
    Common                                   0x0800134d   Thumb Code    42  nohau_demo.o(i.Common)
    DataMotionWaveFormer                     0x0800137d   Thumb Code   186  nohau_demo.o(i.DataMotionWaveFormer)
    Echoes00                                 0x0800144d   Thumb Code    30  nohau_demo.o(i.Echoes00)
    Echoes01                                 0x08001471   Thumb Code    58  nohau_demo.o(i.Echoes01)
    Echoes02                                 0x080014b5   Thumb Code    58  nohau_demo.o(i.Echoes02)
    Echoes03                                 0x080014f9   Thumb Code    58  nohau_demo.o(i.Echoes03)
    Echoes04                                 0x0800153d   Thumb Code    58  nohau_demo.o(i.Echoes04)
    Echoes05                                 0x08001581   Thumb Code    58  nohau_demo.o(i.Echoes05)
    Echoes06                                 0x080015c5   Thumb Code    58  nohau_demo.o(i.Echoes06)
    Echoes07                                 0x08001609   Thumb Code    58  nohau_demo.o(i.Echoes07)
    Echoes08                                 0x0800164d   Thumb Code    58  nohau_demo.o(i.Echoes08)
    Echoes09                                 0x08001691   Thumb Code    58  nohau_demo.o(i.Echoes09)
    Echoes10                                 0x080016d5   Thumb Code    58  nohau_demo.o(i.Echoes10)
    Echoes11                                 0x08001719   Thumb Code    58  nohau_demo.o(i.Echoes11)
    Echoes12                                 0x0800175d   Thumb Code    50  nohau_demo.o(i.Echoes12)
    EchoesOfOsirian                          0x08001799   Thumb Code    44  nohau_demo.o(i.EchoesOfOsirian)
    EventRecord2                             0x08001831   Thumb Code    70  eventrecorder.o(i.EventRecord2)
    EventRecord4                             0x08001877   Thumb Code   118  eventrecorder.o(i.EventRecord4)
    EventRecordData                          0x080018ed   Thumb Code   278  eventrecorder.o(i.EventRecordData)
    EventRecorderEnable                      0x08001add   Thumb Code    88  eventrecorder.o(i.EventRecorderEnable)
    EventRecorderInitialize                  0x08001b39   Thumb Code   270  eventrecorder.o(i.EventRecorderInitialize)
    EventRecorderStart                       0x08001c61   Thumb Code    40  eventrecorder.o(i.EventRecorderStart)
    EventRecorderTimerGetCount               0x08001c91   Thumb Code     6  eventrecorder.o(i.EventRecorderTimerGetCount)
    EventRecorderTimerGetFreq                0x08001c9d   Thumb Code     6  eventrecorder.o(i.EventRecorderTimerGetFreq)
    EventRecorderTimerSetup                  0x08001ca9   Thumb Code    28  eventrecorder.o(i.EventRecorderTimerSetup)
    EvrRtxEventFlagsWaitTimeout              0x08001ccd   Thumb Code    16  rtx_evr.o(i.EvrRtxEventFlagsWaitTimeout)
    EvrRtxKernelError                        0x08001ce1   Thumb Code    18  rtx_evr.o(i.EvrRtxKernelError)
    EvrRtxKernelGetState                     0x08001cf5   Thumb Code    16  rtx_evr.o(i.EvrRtxKernelGetState)
    EvrRtxKernelGetTickCount                 0x08001d09   Thumb Code    16  rtx_evr.o(i.EvrRtxKernelGetTickCount)
    EvrRtxKernelInitialize                   0x08001d1d   Thumb Code    14  rtx_evr.o(i.EvrRtxKernelInitialize)
    EvrRtxKernelInitialized                  0x08001d31   Thumb Code    14  rtx_evr.o(i.EvrRtxKernelInitialized)
    EvrRtxKernelStart                        0x08001d45   Thumb Code    14  rtx_evr.o(i.EvrRtxKernelStart)
    EvrRtxKernelStarted                      0x08001d59   Thumb Code    14  rtx_evr.o(i.EvrRtxKernelStarted)
    EvrRtxMemoryAlloc                        0x08001d6d   Thumb Code    26  rtx_evr.o(i.EvrRtxMemoryAlloc)
    EvrRtxMemoryBlockAlloc                   0x08001d8d   Thumb Code    18  rtx_evr.o(i.EvrRtxMemoryBlockAlloc)
    EvrRtxMemoryBlockFree                    0x08001da5   Thumb Code    26  rtx_evr.o(i.EvrRtxMemoryBlockFree)
    EvrRtxMemoryBlockInit                    0x08001dc5   Thumb Code    26  rtx_evr.o(i.EvrRtxMemoryBlockInit)
    EvrRtxMemoryFree                         0x08001de5   Thumb Code    26  rtx_evr.o(i.EvrRtxMemoryFree)
    EvrRtxMemoryInit                         0x08001e05   Thumb Code    28  rtx_evr.o(i.EvrRtxMemoryInit)
    EvrRtxMemoryPoolAllocTimeout             0x08001e21   Thumb Code    16  rtx_evr.o(i.EvrRtxMemoryPoolAllocTimeout)
    EvrRtxMessageQueueCreated                0x08001e35   Thumb Code    18  rtx_evr.o(i.EvrRtxMessageQueueCreated)
    EvrRtxMessageQueueError                  0x08001e4d   Thumb Code    20  rtx_evr.o(i.EvrRtxMessageQueueError)
    EvrRtxMessageQueueGet                    0x08001e61   Thumb Code    26  rtx_evr.o(i.EvrRtxMessageQueueGet)
    EvrRtxMessageQueueGetPending             0x08001e81   Thumb Code    26  rtx_evr.o(i.EvrRtxMessageQueueGetPending)
    EvrRtxMessageQueueGetTimeout             0x08001ea1   Thumb Code    16  rtx_evr.o(i.EvrRtxMessageQueueGetTimeout)
    EvrRtxMessageQueueInsertPending          0x08001eb5   Thumb Code    18  rtx_evr.o(i.EvrRtxMessageQueueInsertPending)
    EvrRtxMessageQueueInserted               0x08001ecd   Thumb Code    18  rtx_evr.o(i.EvrRtxMessageQueueInserted)
    EvrRtxMessageQueueNew                    0x08001ee5   Thumb Code    38  rtx_evr.o(i.EvrRtxMessageQueueNew)
    EvrRtxMessageQueueNotInserted            0x08001f15   Thumb Code    18  rtx_evr.o(i.EvrRtxMessageQueueNotInserted)
    EvrRtxMessageQueueNotRetrieved           0x08001f2d   Thumb Code    18  rtx_evr.o(i.EvrRtxMessageQueueNotRetrieved)
    EvrRtxMessageQueuePut                    0x08001f45   Thumb Code    26  rtx_evr.o(i.EvrRtxMessageQueuePut)
    EvrRtxMessageQueuePutPending             0x08001f65   Thumb Code    26  rtx_evr.o(i.EvrRtxMessageQueuePutPending)
    EvrRtxMessageQueuePutTimeout             0x08001f85   Thumb Code    16  rtx_evr.o(i.EvrRtxMessageQueuePutTimeout)
    EvrRtxMessageQueueRetrieved              0x08001f99   Thumb Code    18  rtx_evr.o(i.EvrRtxMessageQueueRetrieved)
    EvrRtxMutexAcquire                       0x08001fb1   Thumb Code    18  rtx_evr.o(i.EvrRtxMutexAcquire)
    EvrRtxMutexAcquirePending                0x08001fc9   Thumb Code    18  rtx_evr.o(i.EvrRtxMutexAcquirePending)
    EvrRtxMutexAcquireTimeout                0x08001fe1   Thumb Code    16  rtx_evr.o(i.EvrRtxMutexAcquireTimeout)
    EvrRtxMutexAcquired                      0x08001ff5   Thumb Code    18  rtx_evr.o(i.EvrRtxMutexAcquired)
    EvrRtxMutexCreated                       0x0800200d   Thumb Code    18  rtx_evr.o(i.EvrRtxMutexCreated)
    EvrRtxMutexDelete                        0x08002025   Thumb Code    16  rtx_evr.o(i.EvrRtxMutexDelete)
    EvrRtxMutexDestroyed                     0x08002039   Thumb Code    16  rtx_evr.o(i.EvrRtxMutexDestroyed)
    EvrRtxMutexError                         0x0800204d   Thumb Code    20  rtx_evr.o(i.EvrRtxMutexError)
    EvrRtxMutexNew                           0x08002061   Thumb Code    28  rtx_evr.o(i.EvrRtxMutexNew)
    EvrRtxMutexNotAcquired                   0x08002085   Thumb Code    16  rtx_evr.o(i.EvrRtxMutexNotAcquired)
    EvrRtxMutexRelease                       0x08002099   Thumb Code    16  rtx_evr.o(i.EvrRtxMutexRelease)
    EvrRtxMutexReleased                      0x080020ad   Thumb Code    18  rtx_evr.o(i.EvrRtxMutexReleased)
    EvrRtxSemaphoreAcquireTimeout            0x080020c5   Thumb Code    16  rtx_evr.o(i.EvrRtxSemaphoreAcquireTimeout)
    EvrRtxThreadBlocked                      0x080020d9   Thumb Code    18  rtx_evr.o(i.EvrRtxThreadBlocked)
    EvrRtxThreadCreated                      0x080020f1   Thumb Code    36  rtx_evr.o(i.EvrRtxThreadCreated)
    EvrRtxThreadDelay                        0x08002119   Thumb Code    16  rtx_evr.o(i.EvrRtxThreadDelay)
    EvrRtxThreadDelayCompleted               0x0800212d   Thumb Code    14  rtx_evr.o(i.EvrRtxThreadDelayCompleted)
    EvrRtxThreadDestroyed                    0x08002141   Thumb Code    16  rtx_evr.o(i.EvrRtxThreadDestroyed)
    EvrRtxThreadError                        0x08002155   Thumb Code    20  rtx_evr.o(i.EvrRtxThreadError)
    EvrRtxThreadExit                         0x08002169   Thumb Code    14  rtx_evr.o(i.EvrRtxThreadExit)
    EvrRtxThreadFlagsSet                     0x0800217d   Thumb Code    18  rtx_evr.o(i.EvrRtxThreadFlagsSet)
    EvrRtxThreadFlagsSetDone                 0x08002195   Thumb Code    18  rtx_evr.o(i.EvrRtxThreadFlagsSetDone)
    EvrRtxThreadFlagsWait                    0x080021ad   Thumb Code    26  rtx_evr.o(i.EvrRtxThreadFlagsWait)
    EvrRtxThreadFlagsWaitCompleted           0x080021cd   Thumb Code    26  rtx_evr.o(i.EvrRtxThreadFlagsWaitCompleted)
    EvrRtxThreadFlagsWaitNotCompleted        0x080021ed   Thumb Code    18  rtx_evr.o(i.EvrRtxThreadFlagsWaitNotCompleted)
    EvrRtxThreadFlagsWaitPending             0x08002205   Thumb Code    26  rtx_evr.o(i.EvrRtxThreadFlagsWaitPending)
    EvrRtxThreadFlagsWaitTimeout             0x08002225   Thumb Code    14  rtx_evr.o(i.EvrRtxThreadFlagsWaitTimeout)
    EvrRtxThreadGetId                        0x08002239   Thumb Code    16  rtx_evr.o(i.EvrRtxThreadGetId)
    EvrRtxThreadJoined                       0x0800224d   Thumb Code    16  rtx_evr.o(i.EvrRtxThreadJoined)
    EvrRtxThreadNew                          0x08002261   Thumb Code    38  rtx_evr.o(i.EvrRtxThreadNew)
    EvrRtxThreadPreempted                    0x08002291   Thumb Code    16  rtx_evr.o(i.EvrRtxThreadPreempted)
    EvrRtxThreadSwitched                     0x080022a5   Thumb Code    16  rtx_evr.o(i.EvrRtxThreadSwitched)
    EvrRtxThreadUnblocked                    0x080022b9   Thumb Code    18  rtx_evr.o(i.EvrRtxThreadUnblocked)
    EvrRtxTimerCallback                      0x080022d1   Thumb Code    18  rtx_evr.o(i.EvrRtxTimerCallback)
    GetPrimerBack                            0x080022f9   Thumb Code    80  nohau_demo.o(i.GetPrimerBack)
    HAL_ADC_ConfigChannel                    0x08002351   Thumb Code   414  stm32f7xx_hal_adc.o(i.HAL_ADC_ConfigChannel)
    HAL_ADC_GetValue                         0x08002505   Thumb Code     8  stm32f7xx_hal_adc.o(i.HAL_ADC_GetValue)
    HAL_ADC_Init                             0x0800250d   Thumb Code   100  stm32f7xx_hal_adc.o(i.HAL_ADC_Init)
    HAL_ADC_MspInit                          0x08002575   Thumb Code     2  stm32f7xx_hal_adc.o(i.HAL_ADC_MspInit)
    HAL_ADC_PollForConversion                0x08002577   Thumb Code   186  stm32f7xx_hal_adc.o(i.HAL_ADC_PollForConversion)
    HAL_ADC_Start                            0x08002631   Thumb Code   238  stm32f7xx_hal_adc.o(i.HAL_ADC_Start)
    HAL_GPIO_Init                            0x08002731   Thumb Code   484  stm32f7xx_hal_gpio.o(i.HAL_GPIO_Init)
    HAL_GPIO_ReadPin                         0x08002949   Thumb Code    16  stm32f7xx_hal_gpio.o(i.HAL_GPIO_ReadPin)
    HAL_GPIO_WritePin                        0x08002959   Thumb Code    12  stm32f7xx_hal_gpio.o(i.HAL_GPIO_WritePin)
    HAL_GetTick                              0x08002965   Thumb Code    66  main.o(i.HAL_GetTick)
    HAL_Init                                 0x080029b1   Thumb Code    44  stm32f7xx_hal.o(i.HAL_Init)
    HAL_InitTick                             0x080029e1   Thumb Code    64  stm32f7xx_hal.o(i.HAL_InitTick)
    HAL_MspInit                              0x08002a2d   Thumb Code     2  stm32f7xx_hal.o(i.HAL_MspInit)
    HAL_NVIC_SetPriority                     0x08002a2f   Thumb Code   124  stm32f7xx_hal_cortex.o(i.HAL_NVIC_SetPriority)
    HAL_NVIC_SetPriorityGrouping             0x08002aad   Thumb Code    32  stm32f7xx_hal_cortex.o(i.HAL_NVIC_SetPriorityGrouping)
    HAL_PWREx_EnableOverDrive                0x08002ad5   Thumb Code   136  stm32f7xx_hal_pwr_ex.o(i.HAL_PWREx_EnableOverDrive)
    HAL_RCC_ClockConfig                      0x08002b65   Thumb Code   382  stm32f7xx_hal_rcc.o(i.HAL_RCC_ClockConfig)
    HAL_RCC_GetSysClockFreq                  0x08002cf5   Thumb Code   162  stm32f7xx_hal_rcc.o(i.HAL_RCC_GetSysClockFreq)
    HAL_RCC_OscConfig                        0x08002da5   Thumb Code  1200  stm32f7xx_hal_rcc.o(i.HAL_RCC_OscConfig)
    HAL_SYSTICK_Config                       0x08003259   Thumb Code    52  stm32f7xx_hal_cortex.o(i.HAL_SYSTICK_Config)
    HexSwap                                  0x0800328d   Thumb Code    56  nohau_demo.o(i.HexSwap)
    ITM_printf                               0x080032c5   Thumb Code    88  nohau_demo.o(i.ITM_printf)
    InitArr                                  0x08003321   Thumb Code   682  nohau_demo.o(i.InitArr)
    InitMatrix                               0x0800363d   Thumb Code   160  nohau_demo.o(i.InitMatrix)
    IntToFloat                               0x080036ed   Thumb Code    54  nohau_demo.o(i.IntToFloat)
    Kain                                     0x08003805   Thumb Code    46  nohau_demo.o(i.Kain)
    LED_GetCount                             0x08003833   Thumb Code     4  led_756g_eval.o(i.LED_GetCount)
    LED_Initialize                           0x08003839   Thumb Code   110  led_756g_eval.o(i.LED_Initialize)
    LED_Off                                  0x080038b5   Thumb Code    40  led_756g_eval.o(i.LED_Off)
    LED_On                                   0x080038e1   Thumb Code    40  led_756g_eval.o(i.LED_On)
    LeafOfJulia                              0x0800390d   Thumb Code   562  nohau_demo.o(i.LeafOfJulia)
    LinkedListBlancFunction                  0x08003b7d   Thumb Code    66  nohau_demo.o(i.LinkedListBlancFunction)
    LinkedListInitFunction                   0x08003bbf   Thumb Code    66  nohau_demo.o(i.LinkedListInitFunction)
    Linker                                   0x08003c01   Thumb Code   100  nohau_demo.o(i.Linker)
    LoadFractMem                             0x08003c81   Thumb Code   520  nohau_demo.o(i.LoadFractMem)
    Morgoth                                  0x08004081   Thumb Code   198  nohau_demo.o(i.Morgoth)
    OS_Tick_AcknowledgeIRQ                   0x0800415d   Thumb Code     8  os_systick.o(i.OS_Tick_AcknowledgeIRQ)
    OS_Tick_Enable                           0x08004165   Thumb Code    38  os_systick.o(i.OS_Tick_Enable)
    OS_Tick_GetIRQn                          0x08004195   Thumb Code     6  os_systick.o(i.OS_Tick_GetIRQn)
    OS_Tick_Setup                            0x0800419d   Thumb Code    66  os_systick.o(i.OS_Tick_Setup)
    Partition                                0x080041ed   Thumb Code    72  nohau_demo.o(i.Partition)
    RecurcePower                             0x08004235   Thumb Code    78  nohau_demo.o(i.RecurcePower)
    Sorter                                   0x080043a9   Thumb Code    48  nohau_demo.o(i.Sorter)
    SpeedTrouble                             0x080043d9   Thumb Code   138  nohau_demo.o(i.SpeedTrouble)
    StructHandler                            0x08004469   Thumb Code   288  nohau_demo.o(i.StructHandler)
    StructHandlerAnotherMem                  0x08004599   Thumb Code   286  nohau_demo.o(i.StructHandlerAnotherMem)
    SwapStructNameFault                      0x080046c9   Thumb Code    36  nohau_demo.o(i.SwapStructNameFault)
    SystemCoreClockUpdate                    0x0800475d   Thumb Code   170  system_stm32f7xx.o(i.SystemCoreClockUpdate)
    SystemInit                               0x0800481d   Thumb Code    82  system_stm32f7xx.o(i.SystemInit)
    Trigo                                    0x0800496d   Thumb Code   802  nohau_demo.o(i.Trigo)
    Virtual                                  0x08004cc5   Thumb Code    22  nohau_demo.o(i.Virtual)
    WaveFormer                               0x08004cdd   Thumb Code   456  nohau_demo.o(i.WaveFormer)
    Wotan                                    0x08004ecd   Thumb Code   374  nohau_demo.o(i.Wotan)
    WriteMemDest                             0x0800506d   Thumb Code    80  nohau_demo.o(i.WriteMemDest)
    WriteMemWrite                            0x080050e1   Thumb Code    80  nohau_demo.o(i.WriteMemWrite)
    __ARM_fpclassify                         0x08005199   Thumb Code    48  fpclassify.o(i.__ARM_fpclassify)
    __hardfp_atan                            0x08005201   Thumb Code   622  atan.o(i.__hardfp_atan)
    __hardfp_cos                             0x080054d9   Thumb Code   180  cos.o(i.__hardfp_cos)
    __hardfp_sin                             0x080055a1   Thumb Code   180  sin.o(i.__hardfp_sin)
    __hardfp_tan                             0x08005669   Thumb Code   108  tan.o(i.__hardfp_tan)
    __ieee754_rem_pio2                       0x080056e9   Thumb Code   938  rred.o(i.__ieee754_rem_pio2)
    __kernel_cos                             0x08005b21   Thumb Code   322  cos_i.o(i.__kernel_cos)
    __kernel_poly                            0x08005c91   Thumb Code   248  poly.o(i.__kernel_poly)
    __kernel_sin                             0x08005d89   Thumb Code   280  sin_i.o(i.__kernel_sin)
    __kernel_tan                             0x08005eb9   Thumb Code   764  tan_i.o(i.__kernel_tan)
    __mathlib_dbl_infnan                     0x08006209   Thumb Code    20  dunder.o(i.__mathlib_dbl_infnan)
    __mathlib_dbl_invalid                    0x08006221   Thumb Code    24  dunder.o(i.__mathlib_dbl_invalid)
    __mathlib_dbl_underflow                  0x08006241   Thumb Code    24  dunder.o(i.__mathlib_dbl_underflow)
    __user_perthread_libspace                0x08006261   Thumb Code    80  rtx_lib.o(i.__user_perthread_libspace)
    _mutex_acquire                           0x080062b9   Thumb Code    22  rtx_lib.o(i._mutex_acquire)
    _mutex_free                              0x080062cf   Thumb Code    12  rtx_lib.o(i._mutex_free)
    _mutex_initialize                        0x080062db   Thumb Code    34  rtx_lib.o(i._mutex_initialize)
    _mutex_release                           0x080062fd   Thumb Code    18  rtx_lib.o(i._mutex_release)
    _platform_post_stackheap_init            0x0800630f   Thumb Code     8  rtx_lib.o(i._platform_post_stackheap_init)
    app_main                                 0x08006319   Thumb Code   100  blinky.o(i.app_main)
    fabs                                     0x080064a1   Thumb Code    24  fabs.o(i.fabs)
    itm_enable                               0x080067b9   Thumb Code    18  nohau_demo.o(i.itm_enable)
    main                                     0x080067d1   Thumb Code    46  main.o(i.main)
    nohau_demo                               0x08006809   Thumb Code   484  nohau_demo.o(i.nohau_demo)
    osDelay                                  0x08006b89   Thumb Code    56  rtx_delay.o(i.osDelay)
    osKernelGetState                         0x08006bc5   Thumb Code    44  rtx_kernel.o(i.osKernelGetState)
    osKernelGetTickCount                     0x08006bf5   Thumb Code    38  rtx_kernel.o(i.osKernelGetTickCount)
    osKernelInitialize                       0x08006c21   Thumb Code    52  rtx_kernel.o(i.osKernelInitialize)
    osKernelStart                            0x08006c59   Thumb Code    48  rtx_kernel.o(i.osKernelStart)
    osMessageQueueGet                        0x08006c8d   Thumb Code    78  rtx_msgqueue.o(i.osMessageQueueGet)
    osMessageQueueNew                        0x08006ce1   Thumb Code    70  rtx_msgqueue.o(i.osMessageQueueNew)
    osMessageQueuePut                        0x08006d2d   Thumb Code    78  rtx_msgqueue.o(i.osMessageQueuePut)
    osMutexAcquire                           0x08006d81   Thumb Code    62  rtx_mutex.o(i.osMutexAcquire)
    osMutexDelete                            0x08006dc5   Thumb Code    56  rtx_mutex.o(i.osMutexDelete)
    osMutexNew                               0x08006e01   Thumb Code    54  rtx_mutex.o(i.osMutexNew)
    osMutexRelease                           0x08006e3d   Thumb Code    56  rtx_mutex.o(i.osMutexRelease)
    osRtxErrorNotify                         0x08006e79   Thumb Code    32  rtx_config.o(i.osRtxErrorNotify)
    osRtxIdleThread                          0x08006e99   Thumb Code     6  rtx_config.o(i.osRtxIdleThread)
    osRtxKernelPreInit                       0x08006ead   Thumb Code     2  rtx_lib.o(i.osRtxKernelPreInit)
    osRtxMemoryAlloc                         0x08006eaf   Thumb Code   238  rtx_memory.o(i.osRtxMemoryAlloc)
    osRtxMemoryFree                          0x08006f9d   Thumb Code   124  rtx_memory.o(i.osRtxMemoryFree)
    osRtxMemoryInit                          0x08007019   Thumb Code   106  rtx_memory.o(i.osRtxMemoryInit)
    osRtxMemoryPoolAlloc                     0x08007083   Thumb Code    48  rtx_mempool.o(i.osRtxMemoryPoolAlloc)
    osRtxMemoryPoolFree                      0x080070b3   Thumb Code    68  rtx_mempool.o(i.osRtxMemoryPoolFree)
    osRtxMemoryPoolInit                      0x080070f7   Thumb Code    88  rtx_mempool.o(i.osRtxMemoryPoolInit)
    osRtxMutexOwnerRelease                   0x0800725f   Thumb Code    94  rtx_mutex.o(i.osRtxMutexOwnerRelease)
    osRtxPendSV_Handler                      0x080072bd   Thumb Code   126  rtx_system.o(i.osRtxPendSV_Handler)
    osRtxPostProcess                         0x08007341   Thumb Code    50  rtx_system.o(i.osRtxPostProcess)
    osRtxThreadDelayTick                     0x08007499   Thumb Code   216  rtx_thread.o(i.osRtxThreadDelayTick)
    osRtxThreadDispatch                      0x08007575   Thumb Code   106  rtx_thread.o(i.osRtxThreadDispatch)
    osRtxThreadListGet                       0x08007655   Thumb Code    28  rtx_thread.o(i.osRtxThreadListGet)
    osRtxThreadListPut                       0x08007671   Thumb Code    50  rtx_thread.o(i.osRtxThreadListPut)
    osRtxThreadListRemove                    0x080076a3   Thumb Code    26  rtx_thread.o(i.osRtxThreadListRemove)
    osRtxThreadListSort                      0x080076cf   Thumb Code    42  rtx_thread.o(i.osRtxThreadListSort)
    osRtxThreadReadyPut                      0x0800772d   Thumb Code    18  rtx_thread.o(i.osRtxThreadReadyPut)
    osRtxThreadRegPtr                        0x08007745   Thumb Code    24  rtx_thread.o(i.osRtxThreadRegPtr)
    osRtxThreadStackCheck                    0x08007769   Thumb Code    38  rtx_thread.o(i.osRtxThreadStackCheck)
    osRtxThreadStartup                       0x08007795   Thumb Code    78  rtx_thread.o(i.osRtxThreadStartup)
    osRtxThreadSwitch                        0x080077f5   Thumb Code    24  rtx_thread.o(i.osRtxThreadSwitch)
    osRtxThreadWaitEnter                     0x08007811   Thumb Code    78  rtx_thread.o(i.osRtxThreadWaitEnter)
    osRtxThreadWaitExit                      0x08007865   Thumb Code    54  rtx_thread.o(i.osRtxThreadWaitExit)
    osRtxTick_Handler                        0x0800789d   Thumb Code   154  rtx_system.o(i.osRtxTick_Handler)
    osRtxTimerThread                         0x0800793d   Thumb Code    76  rtx_timer.o(i.osRtxTimerThread)
    osThreadExit                             0x080079f1   Thumb Code    28  rtx_thread.o(i.osThreadExit)
    osThreadFlagsSet                         0x08007a11   Thumb Code    58  rtx_thread.o(i.osThreadFlagsSet)
    osThreadFlagsWait                        0x08007a51   Thumb Code    72  rtx_thread.o(i.osThreadFlagsWait)
    osThreadGetId                            0x08007a9d   Thumb Code    38  rtx_thread.o(i.osThreadGetId)
    osThreadNew                              0x08007ac9   Thumb Code    70  rtx_thread.o(i.osThreadNew)
    vsprintf                                 0x08008b6d   Thumb Code   830  vsprintf.o(i.vsprintf)
    __aeabi_dneg                             0x08008eb5   Thumb Code     0  basic.o(x$fpl$basic)
    _dneg                                    0x08008eb5   Thumb Code     6  basic.o(x$fpl$basic)
    __aeabi_fneg                             0x08008ebb   Thumb Code     0  basic.o(x$fpl$basic)
    _fneg                                    0x08008ebb   Thumb Code     6  basic.o(x$fpl$basic)
    _dabs                                    0x08008ec1   Thumb Code     6  basic.o(x$fpl$basic)
    _fabs                                    0x08008ec7   Thumb Code     6  basic.o(x$fpl$basic)
    __aeabi_d2f                              0x08008ecd   Thumb Code     0  d2f.o(x$fpl$d2f)
    _d2f                                     0x08008ecd   Thumb Code    98  d2f.o(x$fpl$d2f)
    __aeabi_dadd                             0x08008f31   Thumb Code     0  daddsub_clz.o(x$fpl$dadd)
    _dadd                                    0x08008f31   Thumb Code   332  daddsub_clz.o(x$fpl$dadd)
    __fpl_dcmp_Inf                           0x08009081   Thumb Code    24  dcmpi.o(x$fpl$dcmpinf)
    __aeabi_ddiv                             0x08009099   Thumb Code     0  ddiv.o(x$fpl$ddiv)
    _ddiv                                    0x08009099   Thumb Code   552  ddiv.o(x$fpl$ddiv)
    __aeabi_d2iz                             0x08009349   Thumb Code     0  dfix.o(x$fpl$dfix)
    _dfix                                    0x08009349   Thumb Code    94  dfix.o(x$fpl$dfix)
    __aeabi_i2d                              0x080093a7   Thumb Code     0  dflt_clz.o(x$fpl$dflt)
    _dflt                                    0x080093a7   Thumb Code    46  dflt_clz.o(x$fpl$dflt)
    __aeabi_ui2d                             0x080093d5   Thumb Code     0  dflt_clz.o(x$fpl$dfltu)
    _dfltu                                   0x080093d5   Thumb Code    38  dflt_clz.o(x$fpl$dfltu)
    __aeabi_cdcmple                          0x080093fd   Thumb Code     0  dleqf.o(x$fpl$dleqf)
    _dcmple                                  0x080093fd   Thumb Code   120  dleqf.o(x$fpl$dleqf)
    __fpl_dcmple_InfNaN                      0x0800945f   Thumb Code     0  dleqf.o(x$fpl$dleqf)
    __aeabi_dmul                             0x08009475   Thumb Code     0  dmul.o(x$fpl$dmul)
    _dmul                                    0x08009475   Thumb Code   332  dmul.o(x$fpl$dmul)
    __fpl_dnaninf                            0x080095c9   Thumb Code   156  dnaninf.o(x$fpl$dnaninf)
    __fpl_dretinf                            0x08009665   Thumb Code    12  dretinf.o(x$fpl$dretinf)
    __aeabi_cdrcmple                         0x08009671   Thumb Code     0  drleqf.o(x$fpl$drleqf)
    _drcmple                                 0x08009671   Thumb Code   108  drleqf.o(x$fpl$drleqf)
    __aeabi_drsub                            0x080096dd   Thumb Code     0  daddsub_clz.o(x$fpl$drsb)
    _drsb                                    0x080096dd   Thumb Code    22  daddsub_clz.o(x$fpl$drsb)
    __aeabi_dsub                             0x080096f5   Thumb Code     0  daddsub_clz.o(x$fpl$dsub)
    _dsub                                    0x080096f5   Thumb Code   464  daddsub_clz.o(x$fpl$dsub)
    __aeabi_f2d                              0x080098c9   Thumb Code     0  f2d.o(x$fpl$f2d)
    _f2d                                     0x080098c9   Thumb Code    86  f2d.o(x$fpl$f2d)
    __fpl_fnaninf                            0x0800991f   Thumb Code   140  fnaninf.o(x$fpl$fnaninf)
    _fp_init                                 0x080099ab   Thumb Code    10  fpinit.o(x$fpl$fpinit)
    __fplib_config_fpu_vfp                   0x080099b3   Thumb Code     0  fpinit.o(x$fpl$fpinit)
    __fplib_config_pureend_doubles           0x080099b3   Thumb Code     0  fpinit.o(x$fpl$fpinit)
    __fpl_fretinf                            0x080099b5   Thumb Code    10  fretinf.o(x$fpl$fretinf)
    __I$use$fp                               0x080099be   Number         0  usenofp.o(x$fpl$usenofp)
    app_main_attr                            0x080099c0   Data          36  blinky.o(.constdata)
    led_attr                                 0x080099e4   Data          36  blinky.o(.constdata)
    but_attr                                 0x08009a08   Data          36  blinky.o(.constdata)
    adc_attr                                 0x08009a2c   Data          36  blinky.o(.constdata)
    nohau_demo_attr                          0x08009a50   Data          36  blinky.o(.constdata)
    irqRtxLib                                0x08009a84   Data           1  irq_cm4f.o(.constdata)
    osRtxUserSVC                             0x08009ae8   Data           4  rtx_lib.o(.constdata)
    EventRecorderInfo                        0x08009aec   Data          24  eventrecorder.o(.constdata)
    AHBPrescTable                            0x08009b04   Data          16  system_stm32f7xx.o(.constdata)
    APBPrescTable                            0x08009b14   Data           8  system_stm32f7xx.o(.constdata)
    osRtxConfig                              0x08009dcc   Data         104  rtx_lib.o(.rodata)
    Region$$Table$$Base                      0x08009e34   Number         0  anon$$obj.o(Region$$Table)
    Region$$Table$$Limit                     0x08009e54   Number         0  anon$$obj.o(Region$$Table)
    .bss.os.msgqueue.cb$$Base                0x20012230   Number         0  rtx_lib.o(.bss.os.msgqueue.cb)
    .bss.os.msgqueue.cb$$Limit               0x20012264   Number         0  rtx_lib.o(.bss.os.msgqueue.cb)
    .bss.os.thread.cb$$Base                  0x200122b4   Number         0  rtx_lib.o(.bss.os.thread.cb)
    .bss.os.thread.cb$$Limit                 0x2001233c   Number         0  rtx_lib.o(.bss.os.thread.cb)
    delay_val                                0x20012544   Data           4  blinky.o(.data)
    Checker                                  0x20012550   Data           4  nohau_demo.o(.data)
    NumberOfStackCalls                       0x20012554   Data           4  nohau_demo.o(.data)
    lecter                                   0x20012558   Data           4  nohau_demo.o(.data)
    GlobalEcho                               0x2001255c   Data           4  nohau_demo.o(.data)
    ResPow                                   0x20012560   Data           8  nohau_demo.o(.data)
    IdentifyMeNowClean                       0x200125e0   Data           4  nohau_demo.o(.data)
    NumBItter                                0x200125e4   Data           4  nohau_demo.o(.data)
    NumbPower                                0x200125e8   Data           4  nohau_demo.o(.data)
    PointerToRefMem                          0x200125ec   Data           4  nohau_demo.o(.data)
    PointerToOrgMem                          0x200125f0   Data           4  nohau_demo.o(.data)
    irqRtxLibRef                             0x20012618   Data           4  rtx_lib.o(.data)
    uwTick                                   0x20012620   Data           4  stm32f7xx_hal.o(.data)
    uwTickPrio                               0x20012624   Data           4  stm32f7xx_hal.o(.data)
    uwTickFreq                               0x20012628   Data           1  stm32f7xx_hal.o(.data)
    SystemCoreClock                          0x2001262c   Data           4  system_stm32f7xx.o(.data)
    osRtxInfo                                0x20012630   Data         164  rtx_kernel.o(.data.os)
    app_main_stk                             0x200126d8   Data        1024  blinky.o(.bss)
    led_stk                                  0x20012ad8   Data        1024  blinky.o(.bss)
    but_stk                                  0x20012ed8   Data        1024  blinky.o(.bss)
    adc_stk                                  0x200132d8   Data        1024  blinky.o(.bss)
    nohau_demo_stk                           0x200136d8   Data        1024  blinky.o(.bss)
    DimKeeper                                0x20013c68   Data          19  nohau_demo.o(.bss)
    Sinewave                                 0x2001a308   Data         255  nohau_demo.o(.bss)
    IdentifyMeNow                            0x2001a408   Data          16  nohau_demo.o(.bss)
    SinArr                                   0x2001a418   Data         400  nohau_demo.o(.bss)
    CosArr                                   0x2001a5a8   Data         400  nohau_demo.o(.bss)
    TanArr                                   0x2001a738   Data         400  nohau_demo.o(.bss)
    __libspace_start                         0x2001c2f0   Data          96  libspace.o(.bss)
    __temporary_stack_top$libspace           0x2001c350   Data           0  libspace.o(.bss)



==============================================================================

Memory Map of the image

  Image Entry point : 0x080001c9

  Load Region LR_IROM1 (Base: 0x08000000, Size: 0x0000b528, Max: 0x00100000, ABSOLUTE, COMPRESSED[0x00009f08])

    Execution Region ER_IROM1 (Exec base: 0x08000000, Load base: 0x08000000, Size: 0x00009e54, Max: 0x00100000, ABSOLUTE)

    Exec Addr    Load Addr    Size         Type   Attr      Idx    E Section Name        Object

    0x08000000   0x08000000   0x000001c8   Data   RO         4980    RESET               startup_stm32f756xx.o
    0x080001c8   0x080001c8   0x00000008   Code   RO         5135  * !!!main             c_w.l(__main.o)
    0x080001d0   0x080001d0   0x00000034   Code   RO         5569    !!!scatter          c_w.l(__scatter.o)
    0x08000204   0x08000204   0x0000005a   Code   RO         5567    !!dczerorl2         c_w.l(__dczerorl2.o)
    0x0800025e   0x0800025e   0x00000002   PAD
    0x08000260   0x08000260   0x0000001c   Code   RO         5571    !!handler_zi        c_w.l(__scatter_zi.o)
    0x0800027c   0x0800027c   0x00000002   Code   RO         5480    .ARM.Collect$$libinit$$00000000  c_w.l(libinit.o)
    0x0800027e   0x0800027e   0x00000004   Code   RO         5260    .ARM.Collect$$libinit$$00000001  c_w.l(libinit2.o)
    0x08000282   0x08000282   0x00000000   Code   RO         5263    .ARM.Collect$$libinit$$00000004  c_w.l(libinit2.o)
    0x08000282   0x08000282   0x00000008   Code   RO         5264    .ARM.Collect$$libinit$$00000005  c_w.l(libinit2.o)
    0x0800028a   0x0800028a   0x00000000   Code   RO         5266    .ARM.Collect$$libinit$$0000000A  c_w.l(libinit2.o)
    0x0800028a   0x0800028a   0x00000000   Code   RO         5268    .ARM.Collect$$libinit$$0000000C  c_w.l(libinit2.o)
    0x0800028a   0x0800028a   0x00000000   Code   RO         5270    .ARM.Collect$$libinit$$0000000E  c_w.l(libinit2.o)
    0x0800028a   0x0800028a   0x00000000   Code   RO         5273    .ARM.Collect$$libinit$$00000011  c_w.l(libinit2.o)
    0x0800028a   0x0800028a   0x00000000   Code   RO         5275    .ARM.Collect$$libinit$$00000013  c_w.l(libinit2.o)
    0x0800028a   0x0800028a   0x00000000   Code   RO         5277    .ARM.Collect$$libinit$$00000015  c_w.l(libinit2.o)
    0x0800028a   0x0800028a   0x00000000   Code   RO         5279    .ARM.Collect$$libinit$$00000017  c_w.l(libinit2.o)
    0x0800028a   0x0800028a   0x00000000   Code   RO         5281    .ARM.Collect$$libinit$$00000019  c_w.l(libinit2.o)
    0x0800028a   0x0800028a   0x00000000   Code   RO         5283    .ARM.Collect$$libinit$$0000001B  c_w.l(libinit2.o)
    0x0800028a   0x0800028a   0x00000000   Code   RO         5285    .ARM.Collect$$libinit$$0000001D  c_w.l(libinit2.o)
    0x0800028a   0x0800028a   0x00000000   Code   RO         5287    .ARM.Collect$$libinit$$0000001F  c_w.l(libinit2.o)
    0x0800028a   0x0800028a   0x00000000   Code   RO         5289    .ARM.Collect$$libinit$$00000021  c_w.l(libinit2.o)
    0x0800028a   0x0800028a   0x00000000   Code   RO         5291    .ARM.Collect$$libinit$$00000023  c_w.l(libinit2.o)
    0x0800028a   0x0800028a   0x00000000   Code   RO         5293    .ARM.Collect$$libinit$$00000025  c_w.l(libinit2.o)
    0x0800028a   0x0800028a   0x00000000   Code   RO         5297    .ARM.Collect$$libinit$$0000002C  c_w.l(libinit2.o)
    0x0800028a   0x0800028a   0x00000000   Code   RO         5299    .ARM.Collect$$libinit$$0000002E  c_w.l(libinit2.o)
    0x0800028a   0x0800028a   0x00000000   Code   RO         5301    .ARM.Collect$$libinit$$00000030  c_w.l(libinit2.o)
    0x0800028a   0x0800028a   0x00000000   Code   RO         5303    .ARM.Collect$$libinit$$00000032  c_w.l(libinit2.o)
    0x0800028a   0x0800028a   0x00000002   Code   RO         5304    .ARM.Collect$$libinit$$00000033  c_w.l(libinit2.o)
    0x0800028c   0x0800028c   0x00000002   Code   RO         5564    .ARM.Collect$$libshutdown$$00000000  c_w.l(libshutdown.o)
    0x0800028e   0x0800028e   0x00000000   Code   RO         5482    .ARM.Collect$$libshutdown$$00000002  c_w.l(libshutdown2.o)
    0x0800028e   0x0800028e   0x00000000   Code   RO         5484    .ARM.Collect$$libshutdown$$00000004  c_w.l(libshutdown2.o)
    0x0800028e   0x0800028e   0x00000000   Code   RO         5487    .ARM.Collect$$libshutdown$$00000007  c_w.l(libshutdown2.o)
    0x0800028e   0x0800028e   0x00000000   Code   RO         5490    .ARM.Collect$$libshutdown$$0000000A  c_w.l(libshutdown2.o)
    0x0800028e   0x0800028e   0x00000000   Code   RO         5492    .ARM.Collect$$libshutdown$$0000000C  c_w.l(libshutdown2.o)
    0x0800028e   0x0800028e   0x00000004   Code   RO         5493    .ARM.Collect$$libshutdown$$0000000D  c_w.l(libshutdown2.o)
    0x08000292   0x08000292   0x00000000   Code   RO         5495    .ARM.Collect$$libshutdown$$0000000F  c_w.l(libshutdown2.o)
    0x08000292   0x08000292   0x00000002   Code   RO         5496    .ARM.Collect$$libshutdown$$00000010  c_w.l(libshutdown2.o)
    0x08000294   0x08000294   0x00000000   Code   RO         5213    .ARM.Collect$$rtentry$$00000000  c_w.l(__rtentry.o)
    0x08000294   0x08000294   0x00000000   Code   RO         5366    .ARM.Collect$$rtentry$$00000002  c_w.l(__rtentry2.o)
    0x08000294   0x08000294   0x00000006   Code   RO         5378    .ARM.Collect$$rtentry$$00000004  c_w.l(__rtentry4.o)
    0x0800029a   0x0800029a   0x00000008   Code   RO         5367    .ARM.Collect$$rtentry$$00000008  c_w.l(__rtentry2.o)
    0x080002a2   0x080002a2   0x00000004   Code   RO         5369    .ARM.Collect$$rtentry$$0000000A  c_w.l(__rtentry2.o)
    0x080002a6   0x080002a6   0x00000000   Code   RO         5371    .ARM.Collect$$rtentry$$0000000C  c_w.l(__rtentry2.o)
    0x080002a6   0x080002a6   0x00000008   Code   RO         5372    .ARM.Collect$$rtentry$$0000000D  c_w.l(__rtentry2.o)
    0x080002ae   0x080002ae   0x00000002   Code   RO         5501    .ARM.Collect$$rtexit$$00000000  c_w.l(rtexit.o)
    0x080002b0   0x080002b0   0x00000000   Code   RO         5532    .ARM.Collect$$rtexit$$00000002  c_w.l(rtexit2.o)
    0x080002b0   0x080002b0   0x00000004   Code   RO         5533    .ARM.Collect$$rtexit$$00000003  c_w.l(rtexit2.o)
    0x080002b4   0x080002b4   0x00000006   Code   RO         5534    .ARM.Collect$$rtexit$$00000004  c_w.l(rtexit2.o)
    0x080002ba   0x080002ba   0x00000002   PAD
    0x080002bc   0x080002bc   0x00000148   Code   RO         2382    .emb_text           rtx_mempool.o
    0x08000404   0x08000404   0x00000148   Code   RO         2544    .emb_text           rtx_msgqueue.o
    0x0800054c   0x0800054c   0x00000148   Code   RO         2950    .emb_text           rtx_system.o
    0x08000694   0x08000694   0x00000148   Code   RO         3006    .emb_text           rtx_thread.o
    0x080007dc   0x080007dc   0x00000074   Code   RO         3654    .emb_text           eventrecorder.o
    0x08000850   0x08000850   0x00000000   Code   RO         5392    .emb_text           c_w.l(maybetermalloc2.o)
    0x08000850   0x08000850   0x000000c4   Code   RO          769    .text               irq_cm4f.o
    0x08000914   0x08000914   0x00000040   Code   RO         4981    .text               startup_stm32f756xx.o
    0x08000954   0x08000954   0x0000009e   Code   RO         5034    .text               c_w.l(h1_alloc_mt.o)
    0x080009f2   0x080009f2   0x00000076   Code   RO         5036    .text               c_w.l(h1_free_mt.o)
    0x08000a68   0x08000a68   0x000000ee   Code   RO         5088    .text               c_w.l(lludivv7m.o)
    0x08000b56   0x08000b56   0x0000008a   Code   RO         5125    .text               c_w.l(rt_memcpy_v6.o)
    0x08000be0   0x08000be0   0x00000064   Code   RO         5127    .text               c_w.l(rt_memcpy_w.o)
    0x08000c44   0x08000c44   0x00000044   Code   RO         5129    .text               c_w.l(rt_memclr.o)
    0x08000c88   0x08000c88   0x0000004e   Code   RO         5131    .text               c_w.l(rt_memclr_w.o)
    0x08000cd6   0x08000cd6   0x00000006   Code   RO         5133    .text               c_w.l(heapauxi.o)
    0x08000cdc   0x08000cdc   0x0000000a   Code   RO         5223    .text               c_w.l(rt_heap_descriptor_twolibspace.o)
    0x08000ce6   0x08000ce6   0x00000004   Code   RO         5225    .text               c_w.l(hguard.o)
    0x08000cea   0x08000cea   0x0000008a   Code   RO         5227    .text               c_w.l(init_alloc.o)
    0x08000d74   0x08000d74   0x00000012   Code   RO         5233    .text               c_w.l(h1_init_mt.o)
    0x08000d86   0x08000d86   0x00000016   Code   RO         5245    .text               c_w.l(_rserrno.o)
    0x08000d9c   0x08000d9c   0x00000008   Code   RO         5362    .text               c_w.l(libspace.o)
    0x08000da4   0x08000da4   0x00000004   Code   RO         5387    .text               c_w.l(rt_errno_addr_twolibspace.o)
    0x08000da8   0x08000da8   0x0000003e   Code   RO         5395    .text               c_w.l(h1_extend_mt.o)
    0x08000de6   0x08000de6   0x0000000e   Code   RO         5413    .text               c_w.l(defsig_rtmem_outer.o)
    0x08000df4   0x08000df4   0x00000002   Code   RO         5435    .text               c_w.l(use_no_semi.o)
    0x08000df6   0x08000df6   0x00000000   Code   RO         5437    .text               c_w.l(indicate_semi.o)
    0x08000df6   0x08000df6   0x0000004a   Code   RO         5438    .text               c_w.l(sys_stackheap_outer.o)
    0x08000e40   0x08000e40   0x00000010   Code   RO         5442    .text               c_w.l(term_alloc.o)
    0x08000e50   0x08000e50   0x00000012   Code   RO         5459    .text               c_w.l(exit.o)
    0x08000e62   0x08000e62   0x0000000a   Code   RO         5461    .text               c_w.l(defsig_exit.o)
    0x08000e6c   0x08000e6c   0x00000050   Code   RO         5471    .text               c_w.l(defsig_rtmem_inner.o)
    0x08000ebc   0x08000ebc   0x0000000c   Code   RO         5499    .text               c_w.l(sys_exit.o)
    0x08000ec8   0x08000ec8   0x0000000a   Code   RO         5505    .text               c_w.l(h1_final_mt.o)
    0x08000ed2   0x08000ed2   0x00000032   Code   RO         5519    .text               c_w.l(defsig_general.o)
    0x08000f04   0x08000f04   0x0000000e   Code   RO         5529    .text               c_w.l(sys_wrch.o)
    0x08000f12   0x08000f12   0x00000002   PAD
    0x08000f14   0x08000f14   0x0000002c   Code   RO          616    i.ADC_ConversionDone  adc_756g_eval.o
    0x08000f40   0x08000f40   0x00000030   Code   RO          618    i.ADC_GetValue      adc_756g_eval.o
    0x08000f70   0x08000f70   0x0000016c   Code   RO         3978    i.ADC_Init          stm32f7xx_hal_adc.o
    0x080010dc   0x080010dc   0x000000b8   Code   RO          619    i.ADC_Initialize    adc_756g_eval.o
    0x08001194   0x08001194   0x00000024   Code   RO          620    i.ADC_StartConversion  adc_756g_eval.o
    0x080011b8   0x080011b8   0x0000003e   Code   RO          221    i.BigSmall          nohau_demo.o
    0x080011f6   0x080011f6   0x00000002   PAD
    0x080011f8   0x080011f8   0x000000c4   Code   RO          223    i.BlancStructHandler  nohau_demo.o
    0x080012bc   0x080012bc   0x0000001c   Code   RO          224    i.BlankFractMem     nohau_demo.o
    0x080012d8   0x080012d8   0x00000004   Code   RO          673    i.Buttons_GetCount  buttons_756g_eval.o
    0x080012dc   0x080012dc   0x00000020   Code   RO          674    i.Buttons_GetState  buttons_756g_eval.o
    0x080012fc   0x080012fc   0x00000044   Code   RO          675    i.Buttons_Initialize  buttons_756g_eval.o
    0x08001340   0x08001340   0x0000000c   Code   RO            4    i.CPU_CACHE_Enable  main.o
    0x0800134c   0x0800134c   0x00000030   Code   RO          225    i.Common            nohau_demo.o
    0x0800137c   0x0800137c   0x000000d0   Code   RO          226    i.DataMotionWaveFormer  nohau_demo.o
    0x0800144c   0x0800144c   0x00000024   Code   RO          227    i.Echoes00          nohau_demo.o
    0x08001470   0x08001470   0x00000044   Code   RO          228    i.Echoes01          nohau_demo.o
    0x080014b4   0x080014b4   0x00000044   Code   RO          229    i.Echoes02          nohau_demo.o
    0x080014f8   0x080014f8   0x00000044   Code   RO          230    i.Echoes03          nohau_demo.o
    0x0800153c   0x0800153c   0x00000044   Code   RO          231    i.Echoes04          nohau_demo.o
    0x08001580   0x08001580   0x00000044   Code   RO          232    i.Echoes05          nohau_demo.o
    0x080015c4   0x080015c4   0x00000044   Code   RO          233    i.Echoes06          nohau_demo.o
    0x08001608   0x08001608   0x00000044   Code   RO          234    i.Echoes07          nohau_demo.o
    0x0800164c   0x0800164c   0x00000044   Code   RO          235    i.Echoes08          nohau_demo.o
    0x08001690   0x08001690   0x00000044   Code   RO          236    i.Echoes09          nohau_demo.o
    0x080016d4   0x080016d4   0x00000044   Code   RO          237    i.Echoes10          nohau_demo.o
    0x08001718   0x08001718   0x00000044   Code   RO          238    i.Echoes11          nohau_demo.o
    0x0800175c   0x0800175c   0x0000003c   Code   RO          239    i.Echoes12          nohau_demo.o
    0x08001798   0x08001798   0x00000030   Code   RO          240    i.EchoesOfOsirian   nohau_demo.o
    0x080017c8   0x080017c8   0x00000004   Code   RO            5    i.Error_Handler     main.o
    0x080017cc   0x080017cc   0x00000028   Code   RO         3655    i.EventCheckFilter  eventrecorder.o
    0x080017f4   0x080017f4   0x0000003c   Code   RO         3656    i.EventGetTS        eventrecorder.o
    0x08001830   0x08001830   0x00000046   Code   RO         3657    i.EventRecord2      eventrecorder.o
    0x08001876   0x08001876   0x00000076   Code   RO         3658    i.EventRecord4      eventrecorder.o
    0x080018ec   0x080018ec   0x00000116   Code   RO         3659    i.EventRecordData   eventrecorder.o
    0x08001a02   0x08001a02   0x00000002   PAD
    0x08001a04   0x08001a04   0x000000d8   Code   RO         3660    i.EventRecordItem   eventrecorder.o
    0x08001adc   0x08001adc   0x0000005c   Code   RO         3663    i.EventRecorderEnable  eventrecorder.o
    0x08001b38   0x08001b38   0x00000128   Code   RO         3664    i.EventRecorderInitialize  eventrecorder.o
    0x08001c60   0x08001c60   0x00000030   Code   RO         3665    i.EventRecorderStart  eventrecorder.o
    0x08001c90   0x08001c90   0x0000000c   Code   RO         3667    i.EventRecorderTimerGetCount  eventrecorder.o
    0x08001c9c   0x08001c9c   0x0000000c   Code   RO         3668    i.EventRecorderTimerGetFreq  eventrecorder.o
    0x08001ca8   0x08001ca8   0x00000024   Code   RO         3669    i.EventRecorderTimerSetup  eventrecorder.o
    0x08001ccc   0x08001ccc   0x00000014   Code   RO         1019    i.EvrRtxEventFlagsWaitTimeout  rtx_evr.o
    0x08001ce0   0x08001ce0   0x00000012   Code   RO         1020    i.EvrRtxKernelError  rtx_evr.o
    0x08001cf2   0x08001cf2   0x00000002   PAD
    0x08001cf4   0x08001cf4   0x00000014   Code   RO         1022    i.EvrRtxKernelGetState  rtx_evr.o
    0x08001d08   0x08001d08   0x00000014   Code   RO         1025    i.EvrRtxKernelGetTickCount  rtx_evr.o
    0x08001d1c   0x08001d1c   0x00000014   Code   RO         1028    i.EvrRtxKernelInitialize  rtx_evr.o
    0x08001d30   0x08001d30   0x00000014   Code   RO         1029    i.EvrRtxKernelInitialized  rtx_evr.o
    0x08001d44   0x08001d44   0x00000014   Code   RO         1036    i.EvrRtxKernelStart  rtx_evr.o
    0x08001d58   0x08001d58   0x00000014   Code   RO         1037    i.EvrRtxKernelStarted  rtx_evr.o
    0x08001d6c   0x08001d6c   0x00000020   Code   RO         1042    i.EvrRtxMemoryAlloc  rtx_evr.o
    0x08001d8c   0x08001d8c   0x00000018   Code   RO         1043    i.EvrRtxMemoryBlockAlloc  rtx_evr.o
    0x08001da4   0x08001da4   0x00000020   Code   RO         1044    i.EvrRtxMemoryBlockFree  rtx_evr.o
    0x08001dc4   0x08001dc4   0x00000020   Code   RO         1045    i.EvrRtxMemoryBlockInit  rtx_evr.o
    0x08001de4   0x08001de4   0x00000020   Code   RO         1046    i.EvrRtxMemoryFree  rtx_evr.o
    0x08001e04   0x08001e04   0x0000001c   Code   RO         1047    i.EvrRtxMemoryInit  rtx_evr.o
    0x08001e20   0x08001e20   0x00000014   Code   RO         1051    i.EvrRtxMemoryPoolAllocTimeout  rtx_evr.o
    0x08001e34   0x08001e34   0x00000018   Code   RO         1066    i.EvrRtxMessageQueueCreated  rtx_evr.o
    0x08001e4c   0x08001e4c   0x00000014   Code   RO         1069    i.EvrRtxMessageQueueError  rtx_evr.o
    0x08001e60   0x08001e60   0x00000020   Code   RO         1070    i.EvrRtxMessageQueueGet  rtx_evr.o
    0x08001e80   0x08001e80   0x00000020   Code   RO         1075    i.EvrRtxMessageQueueGetPending  rtx_evr.o
    0x08001ea0   0x08001ea0   0x00000014   Code   RO         1077    i.EvrRtxMessageQueueGetTimeout  rtx_evr.o
    0x08001eb4   0x08001eb4   0x00000018   Code   RO         1078    i.EvrRtxMessageQueueInsertPending  rtx_evr.o
    0x08001ecc   0x08001ecc   0x00000018   Code   RO         1079    i.EvrRtxMessageQueueInserted  rtx_evr.o
    0x08001ee4   0x08001ee4   0x00000030   Code   RO         1080    i.EvrRtxMessageQueueNew  rtx_evr.o
    0x08001f14   0x08001f14   0x00000018   Code   RO         1081    i.EvrRtxMessageQueueNotInserted  rtx_evr.o
    0x08001f2c   0x08001f2c   0x00000018   Code   RO         1082    i.EvrRtxMessageQueueNotRetrieved  rtx_evr.o
    0x08001f44   0x08001f44   0x00000020   Code   RO         1083    i.EvrRtxMessageQueuePut  rtx_evr.o
    0x08001f64   0x08001f64   0x00000020   Code   RO         1084    i.EvrRtxMessageQueuePutPending  rtx_evr.o
    0x08001f84   0x08001f84   0x00000014   Code   RO         1085    i.EvrRtxMessageQueuePutTimeout  rtx_evr.o
    0x08001f98   0x08001f98   0x00000018   Code   RO         1088    i.EvrRtxMessageQueueRetrieved  rtx_evr.o
    0x08001fb0   0x08001fb0   0x00000018   Code   RO         1089    i.EvrRtxMutexAcquire  rtx_evr.o
    0x08001fc8   0x08001fc8   0x00000018   Code   RO         1090    i.EvrRtxMutexAcquirePending  rtx_evr.o
    0x08001fe0   0x08001fe0   0x00000014   Code   RO         1091    i.EvrRtxMutexAcquireTimeout  rtx_evr.o
    0x08001ff4   0x08001ff4   0x00000018   Code   RO         1092    i.EvrRtxMutexAcquired  rtx_evr.o
    0x0800200c   0x0800200c   0x00000018   Code   RO         1093    i.EvrRtxMutexCreated  rtx_evr.o
    0x08002024   0x08002024   0x00000014   Code   RO         1094    i.EvrRtxMutexDelete  rtx_evr.o
    0x08002038   0x08002038   0x00000014   Code   RO         1095    i.EvrRtxMutexDestroyed  rtx_evr.o
    0x0800204c   0x0800204c   0x00000014   Code   RO         1096    i.EvrRtxMutexError  rtx_evr.o
    0x08002060   0x08002060   0x00000024   Code   RO         1099    i.EvrRtxMutexNew    rtx_evr.o
    0x08002084   0x08002084   0x00000014   Code   RO         1100    i.EvrRtxMutexNotAcquired  rtx_evr.o
    0x08002098   0x08002098   0x00000014   Code   RO         1101    i.EvrRtxMutexRelease  rtx_evr.o
    0x080020ac   0x080020ac   0x00000018   Code   RO         1102    i.EvrRtxMutexReleased  rtx_evr.o
    0x080020c4   0x080020c4   0x00000014   Code   RO         1105    i.EvrRtxSemaphoreAcquireTimeout  rtx_evr.o
    0x080020d8   0x080020d8   0x00000018   Code   RO         1117    i.EvrRtxThreadBlocked  rtx_evr.o
    0x080020f0   0x080020f0   0x00000028   Code   RO         1118    i.EvrRtxThreadCreated  rtx_evr.o
    0x08002118   0x08002118   0x00000014   Code   RO         1119    i.EvrRtxThreadDelay  rtx_evr.o
    0x0800212c   0x0800212c   0x00000014   Code   RO         1120    i.EvrRtxThreadDelayCompleted  rtx_evr.o
    0x08002140   0x08002140   0x00000014   Code   RO         1122    i.EvrRtxThreadDestroyed  rtx_evr.o
    0x08002154   0x08002154   0x00000014   Code   RO         1126    i.EvrRtxThreadError  rtx_evr.o
    0x08002168   0x08002168   0x00000014   Code   RO         1127    i.EvrRtxThreadExit  rtx_evr.o
    0x0800217c   0x0800217c   0x00000018   Code   RO         1131    i.EvrRtxThreadFlagsSet  rtx_evr.o
    0x08002194   0x08002194   0x00000018   Code   RO         1132    i.EvrRtxThreadFlagsSetDone  rtx_evr.o
    0x080021ac   0x080021ac   0x00000020   Code   RO         1133    i.EvrRtxThreadFlagsWait  rtx_evr.o
    0x080021cc   0x080021cc   0x00000020   Code   RO         1134    i.EvrRtxThreadFlagsWaitCompleted  rtx_evr.o
    0x080021ec   0x080021ec   0x00000018   Code   RO         1135    i.EvrRtxThreadFlagsWaitNotCompleted  rtx_evr.o
    0x08002204   0x08002204   0x00000020   Code   RO         1136    i.EvrRtxThreadFlagsWaitPending  rtx_evr.o
    0x08002224   0x08002224   0x00000014   Code   RO         1137    i.EvrRtxThreadFlagsWaitTimeout  rtx_evr.o
    0x08002238   0x08002238   0x00000014   Code   RO         1139    i.EvrRtxThreadGetId  rtx_evr.o
    0x0800224c   0x0800224c   0x00000014   Code   RO         1147    i.EvrRtxThreadJoined  rtx_evr.o
    0x08002260   0x08002260   0x00000030   Code   RO         1148    i.EvrRtxThreadNew   rtx_evr.o
    0x08002290   0x08002290   0x00000014   Code   RO         1149    i.EvrRtxThreadPreempted  rtx_evr.o
    0x080022a4   0x080022a4   0x00000014   Code   RO         1155    i.EvrRtxThreadSwitched  rtx_evr.o
    0x080022b8   0x080022b8   0x00000018   Code   RO         1157    i.EvrRtxThreadUnblocked  rtx_evr.o
    0x080022d0   0x080022d0   0x00000018   Code   RO         1159    i.EvrRtxTimerCallback  rtx_evr.o
    0x080022e8   0x080022e8   0x00000010   Code   RO         3670    i.GetContext        eventrecorder.o
    0x080022f8   0x080022f8   0x00000058   Code   RO          241    i.GetPrimerBack     nohau_demo.o
    0x08002350   0x08002350   0x000001b4   Code   RO         3980    i.HAL_ADC_ConfigChannel  stm32f7xx_hal_adc.o
    0x08002504   0x08002504   0x00000008   Code   RO         3987    i.HAL_ADC_GetValue  stm32f7xx_hal_adc.o
    0x0800250c   0x0800250c   0x00000068   Code   RO         3989    i.HAL_ADC_Init      stm32f7xx_hal_adc.o
    0x08002574   0x08002574   0x00000002   Code   RO         3992    i.HAL_ADC_MspInit   stm32f7xx_hal_adc.o
    0x08002576   0x08002576   0x000000ba   Code   RO         3993    i.HAL_ADC_PollForConversion  stm32f7xx_hal_adc.o
    0x08002630   0x08002630   0x00000100   Code   RO         3995    i.HAL_ADC_Start     stm32f7xx_hal_adc.o
    0x08002730   0x08002730   0x00000218   Code   RO         4540    i.HAL_GPIO_Init     stm32f7xx_hal_gpio.o
    0x08002948   0x08002948   0x00000010   Code   RO         4542    i.HAL_GPIO_ReadPin  stm32f7xx_hal_gpio.o
    0x08002958   0x08002958   0x0000000c   Code   RO         4544    i.HAL_GPIO_WritePin  stm32f7xx_hal_gpio.o
    0x08002964   0x08002964   0x0000004c   Code   RO            6    i.HAL_GetTick       main.o
    0x080029b0   0x080029b0   0x00000030   Code   RO         3802    i.HAL_Init          stm32f7xx_hal.o
    0x080029e0   0x080029e0   0x0000004c   Code   RO         3803    i.HAL_InitTick      stm32f7xx_hal.o
    0x08002a2c   0x08002a2c   0x00000002   Code   RO         3805    i.HAL_MspInit       stm32f7xx_hal.o
    0x08002a2e   0x08002a2e   0x0000007c   Code   RO         4261    i.HAL_NVIC_SetPriority  stm32f7xx_hal_cortex.o
    0x08002aaa   0x08002aaa   0x00000002   PAD
    0x08002aac   0x08002aac   0x00000028   Code   RO         4262    i.HAL_NVIC_SetPriorityGrouping  stm32f7xx_hal_cortex.o
    0x08002ad4   0x08002ad4   0x00000090   Code   RO         4733    i.HAL_PWREx_EnableOverDrive  stm32f7xx_hal_pwr_ex.o
    0x08002b64   0x08002b64   0x00000190   Code   RO         4820    i.HAL_RCC_ClockConfig  stm32f7xx_hal_rcc.o
    0x08002cf4   0x08002cf4   0x000000b0   Code   RO         4829    i.HAL_RCC_GetSysClockFreq  stm32f7xx_hal_rcc.o
    0x08002da4   0x08002da4   0x000004b4   Code   RO         4832    i.HAL_RCC_OscConfig  stm32f7xx_hal_rcc.o
    0x08003258   0x08003258   0x00000034   Code   RO         4266    i.HAL_SYSTICK_Config  stm32f7xx_hal_cortex.o
    0x0800328c   0x0800328c   0x00000038   Code   RO          242    i.HexSwap           nohau_demo.o
    0x080032c4   0x080032c4   0x0000005c   Code   RO          243    i.ITM_printf        nohau_demo.o
    0x08003320   0x08003320   0x0000031c   Code   RO          244    i.InitArr           nohau_demo.o
    0x0800363c   0x0800363c   0x000000b0   Code   RO          245    i.InitMatrix        nohau_demo.o
    0x080036ec   0x080036ec   0x00000040   Code   RO          246    i.IntToFloat        nohau_demo.o
    0x0800372c   0x0800372c   0x00000018   Code   RO          777    i.IsIrqMasked       rtx_delay.o
    0x08003744   0x08003744   0x00000018   Code   RO         2028    i.IsIrqMasked       rtx_kernel.o
    0x0800375c   0x0800375c   0x00000018   Code   RO         2545    i.IsIrqMasked       rtx_msgqueue.o
    0x08003774   0x08003774   0x00000018   Code   RO         2723    i.IsIrqMasked       rtx_mutex.o
    0x0800378c   0x0800378c   0x00000018   Code   RO         3007    i.IsIrqMasked       rtx_thread.o
    0x080037a4   0x080037a4   0x00000010   Code   RO          778    i.IsIrqMode         rtx_delay.o
    0x080037b4   0x080037b4   0x00000010   Code   RO         2029    i.IsIrqMode         rtx_kernel.o
    0x080037c4   0x080037c4   0x00000010   Code   RO         2546    i.IsIrqMode         rtx_msgqueue.o
    0x080037d4   0x080037d4   0x00000010   Code   RO         2724    i.IsIrqMode         rtx_mutex.o
    0x080037e4   0x080037e4   0x00000010   Code   RO         3008    i.IsIrqMode         rtx_thread.o
    0x080037f4   0x080037f4   0x00000010   Code   RO         2030    i.IsPrivileged      rtx_kernel.o
    0x08003804   0x08003804   0x0000002e   Code   RO          247    i.Kain              nohau_demo.o
    0x08003832   0x08003832   0x00000004   Code   RO          715    i.LED_GetCount      led_756g_eval.o
    0x08003836   0x08003836   0x00000002   PAD
    0x08003838   0x08003838   0x0000007c   Code   RO          716    i.LED_Initialize    led_756g_eval.o
    0x080038b4   0x080038b4   0x0000002c   Code   RO          717    i.LED_Off           led_756g_eval.o
    0x080038e0   0x080038e0   0x0000002c   Code   RO          718    i.LED_On            led_756g_eval.o
    0x0800390c   0x0800390c   0x00000270   Code   RO          248    i.LeafOfJulia       nohau_demo.o
    0x08003b7c   0x08003b7c   0x00000042   Code   RO          249    i.LinkedListBlancFunction  nohau_demo.o
    0x08003bbe   0x08003bbe   0x00000042   Code   RO          250    i.LinkedListInitFunction  nohau_demo.o
    0x08003c00   0x08003c00   0x00000080   Code   RO          251    i.Linker            nohau_demo.o
    0x08003c80   0x08003c80   0x00000354   Code   RO          252    i.LoadFractMem      nohau_demo.o
    0x08003fd4   0x08003fd4   0x0000000a   Code   RO         2335    i.MemBlockPtr       rtx_memory.o
    0x08003fde   0x08003fde   0x00000034   Code   RO         2547    i.MessageQueueGet   rtx_msgqueue.o
    0x08004012   0x08004012   0x0000004c   Code   RO         2548    i.MessageQueuePut   rtx_msgqueue.o
    0x0800405e   0x0800405e   0x00000022   Code   RO         2549    i.MessageQueueRemove  rtx_msgqueue.o
    0x08004080   0x08004080   0x000000dc   Code   RO          253    i.Morgoth           nohau_demo.o
    0x0800415c   0x0800415c   0x00000008   Code   RO         3550    i.OS_Tick_AcknowledgeIRQ  os_systick.o
    0x08004164   0x08004164   0x00000030   Code   RO         3552    i.OS_Tick_Enable    os_systick.o
    0x08004194   0x08004194   0x00000006   Code   RO         3555    i.OS_Tick_GetIRQn   os_systick.o
    0x0800419a   0x0800419a   0x00000002   PAD
    0x0800419c   0x0800419c   0x00000050   Code   RO         3558    i.OS_Tick_Setup     os_systick.o
    0x080041ec   0x080041ec   0x00000048   Code   RO          254    i.Partition         nohau_demo.o
    0x08004234   0x08004234   0x0000005c   Code   RO          255    i.RecurcePower      nohau_demo.o
    0x08004290   0x08004290   0x0000009c   Code   RO            7    i.SCB_EnableDCache  main.o
    0x0800432c   0x0800432c   0x0000007c   Code   RO            8    i.SCB_EnableICache  main.o
    0x080043a8   0x080043a8   0x00000030   Code   RO          257    i.Sorter            nohau_demo.o
    0x080043d8   0x080043d8   0x00000090   Code   RO          258    i.SpeedTrouble      nohau_demo.o
    0x08004468   0x08004468   0x00000130   Code   RO          259    i.StructHandler     nohau_demo.o
    0x08004598   0x08004598   0x00000130   Code   RO          260    i.StructHandlerAnotherMem  nohau_demo.o
    0x080046c8   0x080046c8   0x00000028   Code   RO          262    i.SwapStructNameFault  nohau_demo.o
    0x080046f0   0x080046f0   0x0000006a   Code   RO            9    i.SystemClock_Config  main.o
    0x0800475a   0x0800475a   0x00000002   PAD
    0x0800475c   0x0800475c   0x000000c0   Code   RO         4988    i.SystemCoreClockUpdate  system_stm32f7xx.o
    0x0800481c   0x0800481c   0x00000064   Code   RO         4989    i.SystemInit        system_stm32f7xx.o
    0x08004880   0x08004880   0x00000056   Code   RO         3009    i.ThreadFlagsCheck  rtx_thread.o
    0x080048d6   0x080048d6   0x00000016   Code   RO         3011    i.ThreadFlagsSet    rtx_thread.o
    0x080048ec   0x080048ec   0x00000028   Code   RO          160    i.Thread_ADC        blinky.o
    0x08004914   0x08004914   0x00000040   Code   RO         3426    i.TimerInsert       rtx_timer.o
    0x08004954   0x08004954   0x00000018   Code   RO         3428    i.TimerUnlink       rtx_timer.o
    0x0800496c   0x0800496c   0x00000358   Code   RO          263    i.Trigo             nohau_demo.o
    0x08004cc4   0x08004cc4   0x00000016   Code   RO          264    i.Virtual           nohau_demo.o
    0x08004cda   0x08004cda   0x00000002   PAD
    0x08004cdc   0x08004cdc   0x000001f0   Code   RO          265    i.WaveFormer        nohau_demo.o
    0x08004ecc   0x08004ecc   0x000001a0   Code   RO          266    i.Wotan             nohau_demo.o
    0x0800506c   0x0800506c   0x00000074   Code   RO          267    i.WriteMemDest      nohau_demo.o
    0x080050e0   0x080050e0   0x00000074   Code   RO          268    i.WriteMemWrite     nohau_demo.o
    0x08005154   0x08005154   0x00000044   Code   RO          269    i.XEchoes           nohau_demo.o
    0x08005198   0x08005198   0x00000030   Code   RO         5339    i.__ARM_fpclassify  m_wm.l(fpclassify.o)
    0x080051c8   0x080051c8   0x00000010   Code   RO         4268    i.__NVIC_GetPriorityGrouping  stm32f7xx_hal_cortex.o
    0x080051d8   0x080051d8   0x00000028   Code   RO         4269    i.__NVIC_SetPriority  stm32f7xx_hal_cortex.o
    0x08005200   0x08005200   0x000002d8   Code   RO         5163    i.__hardfp_atan     m_wm.l(atan.o)
    0x080054d8   0x080054d8   0x000000c8   Code   RO         5177    i.__hardfp_cos      m_wm.l(cos.o)
    0x080055a0   0x080055a0   0x000000c8   Code   RO         5189    i.__hardfp_sin      m_wm.l(sin.o)
    0x08005668   0x08005668   0x00000080   Code   RO         5201    i.__hardfp_tan      m_wm.l(tan.o)
    0x080056e8   0x080056e8   0x00000438   Code   RO         5343    i.__ieee754_rem_pio2  m_wm.l(rred.o)
    0x08005b20   0x08005b20   0x00000170   Code   RO         5316    i.__kernel_cos      m_wm.l(cos_i.o)
    0x08005c90   0x08005c90   0x000000f8   Code   RO         5341    i.__kernel_poly     m_wm.l(poly.o)
    0x08005d88   0x08005d88   0x00000130   Code   RO         5348    i.__kernel_sin      m_wm.l(sin_i.o)
    0x08005eb8   0x08005eb8   0x00000350   Code   RO         5354    i.__kernel_tan      m_wm.l(tan_i.o)
    0x08006208   0x08006208   0x00000014   Code   RO         5320    i.__mathlib_dbl_infnan  m_wm.l(dunder.o)
    0x0800621c   0x0800621c   0x00000004   PAD
    0x08006220   0x08006220   0x00000020   Code   RO         5322    i.__mathlib_dbl_invalid  m_wm.l(dunder.o)
    0x08006240   0x08006240   0x00000020   Code   RO         5325    i.__mathlib_dbl_underflow  m_wm.l(dunder.o)
    0x08006260   0x08006260   0x00000058   Code   RO         2246    i.__user_perthread_libspace  rtx_lib.o
    0x080062b8   0x080062b8   0x00000016   Code   RO         2247    i._mutex_acquire    rtx_lib.o
    0x080062ce   0x080062ce   0x0000000c   Code   RO         2248    i._mutex_free       rtx_lib.o
    0x080062da   0x080062da   0x00000022   Code   RO         2249    i._mutex_initialize  rtx_lib.o
    0x080062fc   0x080062fc   0x00000012   Code   RO         2250    i._mutex_release    rtx_lib.o
    0x0800630e   0x0800630e   0x00000008   Code   RO         2251    i._platform_post_stackheap_init  rtx_lib.o
    0x08006316   0x08006316   0x00000002   PAD
    0x08006318   0x08006318   0x0000008c   Code   RO          161    i.app_main          blinky.o
    0x080063a4   0x080063a4   0x00000042   Code   RO         3671    i.crc16_ccitt       eventrecorder.o
    0x080063e6   0x080063e6   0x00000002   PAD
    0x080063e8   0x080063e8   0x000000b8   Code   RO          567    i.eaddr             vsprintf.o
    0x080064a0   0x080064a0   0x00000018   Code   RO         5335    i.fabs              m_wm.l(fabs.o)
    0x080064b8   0x080064b8   0x00000124   Code   RO          568    i.iaddr             vsprintf.o
    0x080065dc   0x080065dc   0x00000082   Code   RO         2550    i.isrRtxMessageQueueGet  rtx_msgqueue.o
    0x0800665e   0x0800665e   0x00000086   Code   RO         2551    i.isrRtxMessageQueuePut  rtx_msgqueue.o
    0x080066e4   0x080066e4   0x00000064   Code   RO         3012    i.isrRtxThreadFlagsSet  rtx_thread.o
    0x08006748   0x08006748   0x00000034   Code   RO         2951    i.isr_queue_get     rtx_system.o
    0x0800677c   0x0800677c   0x0000003c   Code   RO         2952    i.isr_queue_put     rtx_system.o
    0x080067b8   0x080067b8   0x00000018   Code   RO          270    i.itm_enable        nohau_demo.o
    0x080067d0   0x080067d0   0x00000038   Code   RO           10    i.main              main.o
    0x08006808   0x08006808   0x00000220   Code   RO          271    i.nohau_demo        nohau_demo.o
    0x08006a28   0x08006a28   0x00000160   Code   RO          569    i.number            vsprintf.o
    0x08006b88   0x08006b88   0x0000003c   Code   RO          779    i.osDelay           rtx_delay.o
    0x08006bc4   0x08006bc4   0x00000030   Code   RO         2034    i.osKernelGetState  rtx_kernel.o
    0x08006bf4   0x08006bf4   0x0000002c   Code   RO         2037    i.osKernelGetTickCount  rtx_kernel.o
    0x08006c20   0x08006c20   0x00000038   Code   RO         2039    i.osKernelInitialize  rtx_kernel.o
    0x08006c58   0x08006c58   0x00000034   Code   RO         2043    i.osKernelStart     rtx_kernel.o
    0x08006c8c   0x08006c8c   0x00000054   Code   RO         2553    i.osMessageQueueGet  rtx_msgqueue.o
    0x08006ce0   0x08006ce0   0x0000004c   Code   RO         2559    i.osMessageQueueNew  rtx_msgqueue.o
    0x08006d2c   0x08006d2c   0x00000054   Code   RO         2560    i.osMessageQueuePut  rtx_msgqueue.o
    0x08006d80   0x08006d80   0x00000044   Code   RO         2725    i.osMutexAcquire    rtx_mutex.o
    0x08006dc4   0x08006dc4   0x0000003c   Code   RO         2726    i.osMutexDelete     rtx_mutex.o
    0x08006e00   0x08006e00   0x0000003c   Code   RO         2729    i.osMutexNew        rtx_mutex.o
    0x08006e3c   0x08006e3c   0x0000003c   Code   RO         2730    i.osMutexRelease    rtx_mutex.o
    0x08006e78   0x08006e78   0x00000020   Code   RO         3624    i.osRtxErrorNotify  rtx_config.o
    0x08006e98   0x08006e98   0x00000006   Code   RO         3625    i.osRtxIdleThread   rtx_config.o
    0x08006e9e   0x08006e9e   0x00000002   PAD
    0x08006ea0   0x08006ea0   0x0000000c   Code   RO         3013    i.osRtxKernelGetState  rtx_thread.o
    0x08006eac   0x08006eac   0x00000002   Code   RO         2252    i.osRtxKernelPreInit  rtx_lib.o
    0x08006eae   0x08006eae   0x000000ee   Code   RO         2336    i.osRtxMemoryAlloc  rtx_memory.o
    0x08006f9c   0x08006f9c   0x0000007c   Code   RO         2337    i.osRtxMemoryFree   rtx_memory.o
    0x08007018   0x08007018   0x0000006a   Code   RO         2338    i.osRtxMemoryInit   rtx_memory.o
    0x08007082   0x08007082   0x00000030   Code   RO         2395    i.osRtxMemoryPoolAlloc  rtx_mempool.o
    0x080070b2   0x080070b2   0x00000044   Code   RO         2396    i.osRtxMemoryPoolFree  rtx_mempool.o
    0x080070f6   0x080070f6   0x00000058   Code   RO         2397    i.osRtxMemoryPoolInit  rtx_mempool.o
    0x0800714e   0x0800714e   0x00000110   Code   RO         2562    i.osRtxMessageQueuePostProcess  rtx_msgqueue.o
    0x0800725e   0x0800725e   0x0000005e   Code   RO         2731    i.osRtxMutexOwnerRelease  rtx_mutex.o
    0x080072bc   0x080072bc   0x00000084   Code   RO         2953    i.osRtxPendSV_Handler  rtx_system.o
    0x08007340   0x08007340   0x0000003c   Code   RO         2954    i.osRtxPostProcess  rtx_system.o
    0x0800737c   0x0800737c   0x00000040   Code   RO         3014    i.osRtxThreadBlock  rtx_thread.o
    0x080073bc   0x080073bc   0x00000068   Code   RO         3015    i.osRtxThreadDelayInsert  rtx_thread.o
    0x08007424   0x08007424   0x00000074   Code   RO         3016    i.osRtxThreadDelayRemove  rtx_thread.o
    0x08007498   0x08007498   0x000000dc   Code   RO         3017    i.osRtxThreadDelayTick  rtx_thread.o
    0x08007574   0x08007574   0x00000070   Code   RO         3018    i.osRtxThreadDispatch  rtx_thread.o
    0x080075e4   0x080075e4   0x00000064   Code   RO         3019    i.osRtxThreadFree   rtx_thread.o
    0x08007648   0x08007648   0x0000000c   Code   RO         3020    i.osRtxThreadGetRunning  rtx_thread.o
    0x08007654   0x08007654   0x0000001c   Code   RO         3021    i.osRtxThreadListGet  rtx_thread.o
    0x08007670   0x08007670   0x00000032   Code   RO         3022    i.osRtxThreadListPut  rtx_thread.o
    0x080076a2   0x080076a2   0x0000001a   Code   RO         3023    i.osRtxThreadListRemove  rtx_thread.o
    0x080076bc   0x080076bc   0x00000012   Code   RO         3024    i.osRtxThreadListRoot  rtx_thread.o
    0x080076ce   0x080076ce   0x0000002a   Code   RO         3025    i.osRtxThreadListSort  rtx_thread.o
    0x080076f8   0x080076f8   0x00000032   Code   RO         3027    i.osRtxThreadPostProcess  rtx_thread.o
    0x0800772a   0x0800772a   0x00000002   PAD
    0x0800772c   0x0800772c   0x00000018   Code   RO         3028    i.osRtxThreadReadyPut  rtx_thread.o
    0x08007744   0x08007744   0x00000018   Code   RO         3029    i.osRtxThreadRegPtr  rtx_thread.o
    0x0800775c   0x0800775c   0x0000000c   Code   RO         3030    i.osRtxThreadSetRunning  rtx_thread.o
    0x08007768   0x08007768   0x0000002c   Code   RO         3031    i.osRtxThreadStackCheck  rtx_thread.o
    0x08007794   0x08007794   0x00000060   Code   RO         3032    i.osRtxThreadStartup  rtx_thread.o
    0x080077f4   0x080077f4   0x0000001c   Code   RO         3033    i.osRtxThreadSwitch  rtx_thread.o
